:0400000018EF00F005
:1000080056820E0133AB0BEF00F00DEF00F016EF48
:1000180000F00B0ED46EDC0ED36E0101FA4BFB2BF5
:0C0028000E01339B5692110000EF18F0FF
:100E00000054696D653A253032643A253032643ACF
:100E1000253032642044253031640054696D653AD0
:100E200020253032643A253032643A25303464006B
:100E3000446174653A253032642F253032642F25A1
:050E40003034640000E5
:100E4600FFEC18F024EC19F054EC19F0E5EC13F073
:100E560034EC19F0849E7C9E88968096000E0101E3
:100E66006B6F010E6A6F000EFB6F370EFA6F000E86
:100E7600D16F3B0ED06F000ED36F160ED26F000EE1
:100E8600D56F1C0ED46F000ED76F050ED66F000EF1
:100E9600D96F020ED86F070EDB6FE80EDA6F000E01
:100EA600DD6F000EDC6F000EB76F1F0EB66F000E03
:100EB600B96F1C0EB86F000EBB6F1F0EBA6F000E17
:100EC600BD6F1E0EBC6F000EBF6F1F0EBE6F000EF5
:100ED600C16F1E0EC06F000EC36F1F0EC26F000ED5
:100EE600C56F1F0EC46F000EC76F1E0EC66F000EB5
:100EF600C96F1F0EC86F000ECB6F1E0ECA6F000E95
:100F0600CD6F1F0ECC6F000E9F6F000E9E6F000EF2
:100F1600A16F000EA06F000EA36F000EA26F000E51
:100F2600A56F000EA46F000EA76F170EA66F000E1A
:100F3600A96F000EA86F000EAB6F000EAA6F000E11
:100F4600AD6F000EAC6F000EAF6F170EAE6F000EDA
:100F5600B16F170EB06F000EB36F170EB26F000EA3
:100F6600B56F170EB46F000E876F090E866F000EF1
:100F7600896F0D0E886F000E8B6F080E8A6F000E3C
:100F86008D6F010E8C6F000E8F6F390E8E6F000EF7
:100F9600916F010E906F000E936F050E926F000E0B
:100FA600956F030E946F000E976F370E966F000EB7
:100FB600996F2F0E986F000E9B6F2E0E9A6F000E74
:100FC6009D6F380E9C6F000E7F6F070E7E6F000EB2
:100FD600816F000E806F000E776F070E766F000E22
:100FE600796F000E786F21EE20F00D0EDE6AE806AE
:100FF600FDE221EE2EF00D0EDE6AE806FDE221EEA0
:101006003CF00D0EDE6AE806FDE221EE4AF00D0E1A
:10101600DE6AE806FDE2000E676F460E666F000E9A
:10102600636F000E626FD4C160F1D5C161F1FAC180
:10103600CEF1FBC1CFF1000ECF6F000ECE6FD2C145
:10104600FAF1D3C1FBF16A516B11D8A42DEF08F068
:101056002FEF08F033EF08F0FAC1CEF1FBC1CFF164
:10106600FA0E076E010E086ED00E096E010E0A6E9C
:10107600D20E0B6E010E0C6ED40E0D6E010E0E6EA0
:10108600D60E0F6E010E106ED80E116E010E126E78
:10109600DA0E136E010E146EDC0E156E010E166E50
:1010A6006AC117F06BC118F04BEC0AF0D2C101F01F
:1010B600D3C102F0F8EC14F0010E83EC18F0000E28
:1010C6002F6E010E306E010E316ED2C132F0D3C1D9
:1010D60033F0D0C134F0D1C135F0CEC136F0CFC136
:1010E60037F0D6C138F0D7C139F047EC18F0000E0A
:1010F600046E010E056EBAEC18F0020E83EC18F0C1
:10110600000E2F6E010E306E300E316ED4C132F0ED
:10111600D5C133F0D8C134F0D9C135F0DAC136F0D3
:10112600DBC137F047EC18F0000E046E010E056EB9
:10113600BAEC18F0D4EC18F001016651015C675165
:101146000258D8B0A9EF08F0ABEF08F0DDEF08F0D1
:10115600D251D311D8B4B2EF08F0B4EF08F0BFEF14
:1011660008F0D35109E1050ED25DD8A0BDEF08F015
:10117600BFEF08F0D5EF08F0D35109E1080ED25DB4
:10118600D8A0C8EF08F0CAEF08F0D8EF08F0D3519E
:1011960007E10F0ED25DD8B0D3EF08F0D5EF08F017
:1011A600D8EF08F08096DDEF08F08086000E796FA4
:1011B600000E786FD4EC18F001500101665D025004
:1011C6006759D8B0E9EF08F0EBEF08F0F0EF08F058
:1011D6008096000E816F000E806FD451605DD551F0
:1011E6006159D8B0F9EF08F0FBEF08F026EF08F0E8
:1011F600000E816F000E806F000E796F000E786F03
:10120600624B632BD4C160F1D5C161F1070E62193F
:101216006311D8A411EF09F013EF09F026EF08F0D7
:10122600000E696F000E686F21EED8F0DECF47F032
:10123600DDCF48F0D89047364836160E4726000EC2
:101246004822860E4724D96E010E4820DA6EDECF7C
:1012560064F1DDCF65F121EED8F0DECF47F0DDCFCA
:1012660048F0D89047364836FE0E4724496EFF0EA2
:1012760048204A6E860E4924D96E010E4A20DA6E3F
:10128600DECF58F1DDCF59F1000E656F000E646FA9
:1012960064C101F065C102F0000E046E3C0E036EDF
:1012A600ECEC18F00101585101245A6F59510220F3
:1012B6005B6F21EE12F00D0EDE6AE806FDE2010E0E
:1012C600736F120E726F000E756F000E746F13EF50
:1012D6000AF0D8907435D96E7535DA6E2E0ED92689
:1012E600010EDA22DECF47F0DDCF48F0D890743514
:1012F600D96E7535DA6E4A0ED926010EDA22DECFA0
:1013060049F0DDCF4AF0D8907435D96E7535DA6E6E
:101316003C0ED926010EDA22DECF01F0DDCF02F037
:10132600000E046E3C0E036EECEC18F001C04BF0A0
:1013360002C04CF0D89001017435D96E7535DA6E5D
:10134600200ED926010EDA22DECF01F0DDCF02F023
:10135600000E046E3C0E036EECEC18F001504B24AC
:101366004D6E02504C204E6E49504D244F6E4A50E1
:101376004E20506E47504F240101686F4850502050
:10138600696F000E2C6E000E2D6E340E2E6E440EFE
:101396002F6E000E136E000E146E000E156E3F0EAD
:1013A600166E68C101F069C102F0000E02BEFF0EA2
:1013B600036E046E010E96EC11F001C00FF002C030
:1013C60010F003C011F004C012F081EC0FF00FC052
:1013D60028F010C029F011C02AF012C02BF021EC21
:1013E6000DF028C038F029C039F02AC03AF02BC0D9
:1013F6003BF075EC14F038C068F139C069F172C180
:1014060001F073C102F0000E046E070E036E68C190
:1014160005F069C106F056EC17F00101744B752B07
:10142600FF0E7E25476EFF0E7F21486E7451475C86
:101436004850800A496E7551800A4958D8B026EF3F
:101446000AF028EF0AF06CEF09F072C108F073C1D8
:1014560009F0000E0B6E070E0A6ECAEC16F008C0F5
:101466005CF109C05DF101015C515A5D5E6F5D5131
:101476005B595F6F5E51D025D06F5F51D121D16F1F
:10148600000E636F000E626F26EF08F018EF00F093
:1014960020EEAAF010EE1FF0170EDBCFE3FFE806F2
:1014A600FCE217041810D8A45BEF0AF05DEF0AF00F
:1014B60083EF0AF007C0D9FF08C0DAFF0BC0E1FFCF
:1014C6000CC0E2FFDECFE6FFDDCFE5FF07C0D9FFA8
:1014D60008C0DAFF010EDBBE7BEF0AF0010EDB501F
:1014E60009E1180EDE5CD8A07BEF0AF07DEF0AF06A
:1014F60083EF0AF007C0D9FF08C0DAFFDE6ADD6AAB
:1015060007C0D9FF08C0DAFF010EDBBE95EF0AF06F
:10151600010EDB5009E13C0EDE5CD8A095EF0AF027
:1015260097EF0AF0B1EF0AF007C0D9FF08C0DAFF5B
:10153600DE6ADD6A09C0D9FF0AC0DAFFDECF19F01C
:10154600DDCF1AF0010E1926000E1A2209C0D9FFA6
:101556000AC0DAFF19C0DEFF1AC0DDFF09C0D9FFD5
:101566000AC0DAFF010EDBBEC3EF0AF0010EDB5044
:1015760009E13C0EDE5CD8A0C3EF0AF0C5EF0AF025
:10158600DFEF0AF009C0D9FF0AC0DAFFDE6ADD6ABA
:101596000BC0D9FF0CC0DAFFDECF19F0DDCF1AF091
:1015A600010E1926000E1A220BC0D9FF0CC0DAFF55
:1015B60019C0DEFF1AC0DDFF0BC0D9FF0CC0DAFF71
:1015C600010EDBBEF1EF0AF0010EDB5009E1180E49
:1015D600DE5CD8A0F1EF0AF0F3EF0AF021EF0BF092
:1015E6000BC0D9FF0CC0DAFFDE6ADD6A0DC0D9FF79
:1015F6000EC0DAFFDECF19F0DDCF1AF0010E192684
:10160600000E1A220DC0D9FF0EC0DAFF19C0DEFF88
:101616001AC0DDFF0FC0D9FF10C0DAFFDECF19F008
:10162600DDCF1AF0010E1926000E1A220FC0D9FFBF
:1016360010C0DAFF19C0DEFF1AC0DDFF0FC0D9FFE8
:1016460010C0DAFF010EDBBE33EF0BF0010EDB50EC
:1016560009E1080EDE5CD8A033EF0BF035EF0BF096
:101666003DEF0BF00FC0D9FF10C0DAFF010EDE6EA2
:10167600000EDD6E15C0D9FF16C0DAFFDE50DE1093
:10168600D8A448EF0BF04AEF0BF0C6EF0BF011C0F1
:10169600D9FF12C0DAFF030EDE18DE10D8A456EF0B
:1016A6000BF058EF0BF0C6EF0BF00DC0D9FF0EC0D4
:1016B600DAFF010EDBBE6AEF0BF0010EDB5009E12B
:1016C600190EDE5CD8A06AEF0BF06CEF0BF0C6EFDC
:1016D6000BF00FC0D9FF10C0DAFF070EDE18DE10C0
:1016E600D8A478EF0BF07AEF0BF0C6EF0BF00BC037
:1016F600D9FF0CC0DAFF010EDBBE8BEF0BF0010E3B
:10170600DB5008E1DE04D8A08BEF0BF08DEF0BF079
:10171600C6EF0BF00BC0D9FF0CC0DAFFDECF19F015
:10172600DDCF1AF0010E1926000E1A220BC0D9FFC2
:101736000CC0DAFF19C0DEFF1AC0DDFF170418104F
:10174600D8A4A8EF0BF0AAEF0BF0BEEF0BF007C082
:10175600D9FF08C0DAFFDECF19F0DDCF1AF0010E8F
:101766001926000E1A2207C0D9FF08C0DAFF19C0D1
:10177600DEFF1AC0DDFF15C0D9FF16C0DAFF010E65
:10178600DE6E000EDD6E15C0D9FF16C0DAFFDE0470
:10179600DE10D8A4D1EF0BF0D3EF0BF04CEF0CF02A
:1017A60011C0D9FF12C0DAFF0A0EDE18DE10D8A467
:1017B600DFEF0BF0E1EF0BF04CEF0CF00DC0D9FFB3
:1017C6000EC0DAFF010EDBBEF3EF0BF0010EDB50AD
:1017D60009E1190EDE5CD8A0F3EF0BF0F5EF0BF084
:1017E6004CEF0CF00FC0D9FF10C0DAFF070EDE1861
:1017F600DE10D8A401EF0CF003EF0CF04CEF0CF068
:101806000BC0D9FF0CC0DAFF020EDE18DE10D8A41A
:101816000FEF0CF011EF0CF04CEF0CF00BC0D9FFF2
:101826000CC0DAFFDECF19F0DDCF1AF0FF0E192457
:101836001B6EFF0E1A201C6E0BC0D9FF0CC0DAFF00
:101846001BC0DEFF1CC0DDFF17041810D8A42EEF46
:101856000CF030EF0CF046EF0CF007C0D9FF08C0D3
:10186600DAFFDECF19F0DDCF1AF0FF0E19241B6E5A
:10187600FF0E1A201C6E07C0D9FF08C0DAFF1BC076
:10188600DEFF1CC0DDFF15C0D9FF16C0DAFFDE6A19
:10189600DD6A13C0D9FF14C0DAFFDECF19F0DDCF41
:1018A6001AF0030E1916000E1A1619501A10D8A49B
:1018B6005FEF0CF061EF0CF073EF0CF011C0D9FF85
:1018C60012C0DAFF020EDE18DE10D8A46DEF0CF09F
:1018D6006FEF0CF073EF0CF0000E226E1D0E216EF2
:1018E60013C0D9FF14C0DAFFDECF01F0DDCF02F05E
:1018F600000E046E640E036E1BEC16F0015002100F
:10190600D8A488EF0CF08AEF0CF0B3EF0CF011C0FE
:10191600D9FF12C0DAFF020EDE18DE10D8A496EF49
:101926000CF098EF0CF0B3EF0CF013C0D9FF14C015
:10193600DAFFDECF01F0DDCF02F0010E046E900E6D
:10194600036E1BEC16F001500210D8B4ADEF0CF08C
:10195600AFEF0CF0B3EF0CF0000E226E1C0E216EF2
:101966000DC0D9FF0EC0DAFF11C0E1FF12C0E2FFC1
:10197600E750020DF3CF1BF0FE0E1B261B501F0F68
:10198600E16EE26ADE50E65CE650800A1E6EDE50CC
:10199600800A1E58D8B0D2EF0CF0D4EF0CF020EF2E
:1019A6000DF00DC0D9FF0EC0DAFF010EDE6E000E7F
:1019B600DD6E11C0D9FF12C0DAFFDECF19F0DDCF20
:1019C6001AF0010E1926000E1A2211C0D9FF12C0F4
:1019D600DAFF19C0DEFF1AC0DDFF11C0D9FF12C041
:1019E600DAFF010EDBBE02EF0DF0010EDB5009E15E
:1019F6000D0EDE5CD8A002EF0DF004EF0DF020EF27
:101A06000DF011C0D9FF12C0DAFF010EDE6E000E16
:101A1600DD6E13C0D9FF14C0DAFFDECF19F0DDCFBB
:101A26001AF0010E1926000E1A2213C0D9FF14C08F
:101A3600DAFF19C0DEFF1AC0DDFF12002B50800B43
:101A4600346E2B502B24366E2AAE2CEF0DF02EEF73
:101A56000DF02FEF0DF036803650D8B435EF0DF07F
:101A660037EF0DF04CEF0DF03628D8A43DEF0DF012
:101A76003FEF0DF047EF0DF0000E286E000E296EB9
:101A8600000E2A6E000E2B6E2A8E000E2B6E54EF61
:101A96000DF0000E286E000E296E000E2A6E000E46
:101AA6002B6E2F50800B356E34503518D8B45EEF40
:101AB6000DF060EF0DF061EF0DF0348C2F502F24F8
:101AC600356E2EAE69EF0DF06BEF0DF06CEF0DF08D
:101AD60035803550D8B472EF0DF074EF0DF089EF04
:101AE6000DF03528D8A47AEF0DF07CEF0DF084EFD9
:101AF6000DF0000E2C6E000E2D6E000E2E6E000EDA
:101B06002F6E2E8E000E2F6E91EF0DF0000E2C6EA6
:101B1600000E2D6E000E2E6E000E2F6E3650355CAA
:101B2600D8B098EF0DF09AEF0DF0C1EF0DF034AC90
:101B36009FEF0DF0A1EF0DF0A3EF0DF0800E341A1C
:101B460036C037F035C036F037C035F028C037F02C
:101B56002CC028F037C02CF029C037F02DC029F052
:101B660037C02DF02AC037F02EC02AF037C02EF02D
:101B76002BC037F02FC02BF037C02FF0000E376E7A
:101B8600365035C030F0316A305E000E315A31BE03
:101B9600D6EF0DF0315009E11A0E305CD8A0D6EF21
:101BA6000DF0D8EF0DF00FEF0EF0285029102A1087
:101BB6002B10D8A4E1EF0DF0E4EF0DF0010EE5EFE8
:101BC6000DF0000E376E000E286E000E296E000E08
:101BD6002A6E000E2B6E35C036F018EF0EF037A0C9
:101BE600F7EF0DF0F9EF0DF0FFEF0DF0D89037306D
:101BF6000109376E01EF0EF0D890373228A006EFB4
:101C06000EF008EF0EF009EF0EF0378E2B342B3264
:101C16002A3229322832362A3550365CD8A016EFB9
:101C26000EF018EF0EF0F2EF0DF034BC1DEF0EF0D3
:101C36001FEF0EF05FEF0EF03650D8A425EF0EF032
:101C460027EF0EF031EF0EF0000E286E000E296E13
:101C5600000E2A6E000E2B6E80EF0FF02C502826F9
:101C66002D5029222E502A222F502B222BA03EEF18
:101C76000EF040EF0EF0ECEF0EF037A045EF0EF051
:101C860047EF0EF04DEF0EF0D89037300109376E62
:101C96004FEF0EF0D890373228A054EF0EF056EFE3
:101CA6000EF057EF0EF0378E2B342B322A322932B4
:101CB6002832362AECEF0EF02C50285C2D5029588D
:101CC6002E502A582B50800A306E2F50800A3058DA
:101CD600D8B070EF0EF072EF0EF09DEF0EF02850B8
:101CE6002C5C306E29502D58316E2A502E58326E8B
:101CF6002B502F58336EFF0E3024286EFF0E3120E6
:101D0600296EFF0E32202A6EFF0E33202B6E800EB8
:101D1600341A376C3750D8A493EF0EF095EF0EF0C7
:101D2600A5EF0EF0010E2826000E29222A222B22CC
:101D3600A5EF0EF02C50285E2D50295A2E502A5A07
:101D46002F502B5A285029102A102B10D8A4AEEF4A
:101D56000EF0B0EF0EF0E5EF0EF03750D8A4B6EF68
:101D66000EF0B8EF0EF0E5EF0EF0000E286E000E46
:101D7600296E000E2A6E000E2B6E80EF0FF0D890A3
:101D8600283629362A362B3637AECCEF0EF0CEEF74
:101D96000EF0CFEF0EF0288037A0D4EF0EF0D6EF7E
:101DA6000EF0DAEF0EF0D8803736DCEF0EF0D89072
:101DB60037363650D8B4E2EF0EF0E4EF0EF0E5EF2A
:101DC6000EF036062AAEEAEF0EF0ECEF0EF0C2EF9A
:101DD6000EF0000E356E37AEF3EF0EF0F5EF0EF0A7
:101DE6000DEF0FF037C030F07F0E3016D8B4FEEF8F
:101DF6000EF000EF0FF004EF0FF0010E356E0DEF51
:101E06000FF028A009EF0FF00BEF0FF00DEF0FF01A
:101E160000EF0FF03550D8B413EF0FF015EF0FF0B9
:101E260040EF0FF0010E2826000E29222A222B222F
:101E36002BA020EF0FF022EF0FF040EF0FF028C09D
:101E460030F029C031F02AC032F02BC033F03334E1
:101E5600333232323132303230C028F031C029F0DC
:101E660032C02AF033C02BF03628D8B43DEF0FF03D
:101E76003FEF0FF040EF0FF0362A3628D8B446EF82
:101E86000FF048EF0FF050EF0FF03650D8A44EEF9A
:101E96000FF050EF0FF062EF0FF0000E286E000EFD
:101EA600296E000E2A6E000E2B6E3650D8A45EEFF9
:101EB6000FF060EF0FF062EF0FF0000E346E36A0F9
:101EC60067EF0FF069EF0FF06CEF0FF02A8E6DEFF2
:101ED6000FF02A9ED89036302B6E34AE75EF0FF089
:101EE60077EF0FF078EF0FF02B8E28C028F029C07F
:101EF60029F02AC02AF02BC02BF012001250800BBA
:101F06001B6E12501224216E11AE8CEF0FF08EEF65
:101F16000FF08FEF0FF021802150D8B495EF0FF01E
:101F260097EF0FF0AAEF0FF02128D8A49DEF0FF03E
:101F36009FEF0FF0A7EF0FF0000E0F6E000E106E62
:101F4600000E116E000E126E118EB2EF0FF0000E23
:101F56000F6E000E106E000E116E000E126E1650F1
:101F6600800B1B1A16501624206E15AEBDEF0FF00F
:101F7600BFEF0FF0C0EF0FF020802050D8B4C6EFAF
:101F86000FF0C8EF0FF0DBEF0FF02028D8A4CEEF4C
:101F96000FF0D0EF0FF0D8EF0FF0000E136E000E1B
:101FA600146E000E156E000E166E158EE3EF0FF012
:101FB600000E136E000E146E000E156E000E166ED9
:101FC6002050D8B4E9EF0FF0EBEF0FF0F3EF0FF07E
:101FD6002150D8A4F1EF0FF0F3EF0FF0FDEF0FF063
:101FE600000E0F6E000E106E000E116E000E126EB9
:101FF60095EF11F015500F02F3CF26F0F4CF27F02E
:1020060026501C6E1D6A1E6A1F6A2750226E236A9E
:10201600246A256A14501002F3CF26F0F4CF27F075
:1020260026501C26000E1D221E221F222750222665
:10203600000E23222422252213501102F3CF26F06C
:10204600F4CF27F026501C26000E1D221E221F222A
:1020560027502226000E2322242225221EC01FF0EE
:102066001DC01EF01CC01DF01C6A13501002F3CFD9
:1020760026F0F4CF27F026501C2627501D22000EEE
:102086001E22000E1F2214500F02F3CF26F0F4CFAB
:1020960027F026501C2627501D22000E1E22000E59
:1020A6001F221EC01FF01DC01EF01CC01DF01C6AA2
:1020B60013500F02F3CF26F0F4CF27F026501C263C
:1020C60027501D22000E1E22000E1F221550100240
:1020D600F3CF26F0F4CF27F02650222627502322CE
:1020E600000E2422000E252214501102F3CF26F0F2
:1020F600F4CF27F02650222627502322000E242232
:10210600000E252215501102F3CF26F0F4CF27F04A
:102116002650176E2750186E196A1A6A19C01AF0D7
:1021260018C019F017C018F0176A17502226185051
:102136002322195024221A5025221CC017F01DC034
:1021460018F01EC019F01FC01AF0190EB0EF10F0EB
:10215600D8901A32193218321732E82EABEF10F037
:102166001750222618502322195024221A502522AD
:102176001EC01FF01DC01EF01CC01DF01C6A2050A2
:1021860021C017F0186A1726000E1822820E17248F
:10219600266EFF0E1820276EE6EF10F0D890223636
:1021A6002336243625361FAEDBEF10F0DDEF10F0B8
:1021B600DEEF10F02280D8901C361D361E361F36F4
:1021C6002606D8A0270624AEEBEF10F0EDEF10F0B0
:1021D600D1EF10F0000E206E1FAEF4EF10F0F6EF08
:1021E60010F01AEF11F0FF0E1C14176EFF0E1D14DF
:1021F600186EFF0E1E14196E7F0E1F141A6E1750DE
:10220600181019101A10D8B40BEF11F00DEF11F0C9
:1022160011EF11F0010E206E1AEF11F022A016EF49
:1022260011F018EF11F01AEF11F00DEF11F0205028
:10223600D8B420EF11F022EF11F046EF11F0010EA5
:102246002226000E23222422252225A02DEF11F07E
:102256002FEF11F046EF11F022C017F023C018F04F
:1022660024C019F025C01AF01A341A32193218325D
:10227600173217C022F018C023F019C024F01AC074
:1022860025F0264A272A27BE51EF11F0275008E1EC
:102296002628D8A051EF11F053EF11F05DEF11F0A1
:1022A600000E226E000E236E800E246E7F0E256EAB
:1022B6008BEF11F027BE6AEF11F0275006E12604D6
:1022C600D8B068EF11F06AEF11F076EF11F0000E5A
:1022D600226E000E236E000E246E000E256E000E7A
:1022E6001B6E8BEF11F026C021F0FF0E2216FF0E9B
:1022F60023167F0E2416000E251621A085EF11F059
:1023060087EF11F088EF11F0248ED8902130256EDA
:102316001B50251222C00FF023C010F024C011F06C
:1023260025C012F01200096E0950D8B49DEF11F0C5
:102336009FEF11F0C1EF11F004BEA6EF11F0A4EF6C
:1023460011F0C1EF11F001C005F002C006F003C0A4
:1023560007F004C008F0051E061E071E081E052A03
:10236600000E06220722082205C00BF006C00CF05C
:1023760007C00DF008C00EF0C9EF11F001C00BF058
:1023860002C00CF003C00DF004C00EF001500210A4
:1023960003100410D8A4D2EF11F0D4EF11F0DEEF41
:1023A60011F0000E016E000E026E000E036E000E9E
:1023B600046E6FEF12F0960E0A6EE8EF11F00A2A1D
:1023C600D8900E320D320C320B32000E0B14056E05
:1023D600000E0C14066E000E0D14076EFE0E0E1483
:1023E600086E0550061007100810D8A4FDEF11F06E
:1023F600FFEF11F0E2EF11F00DEF12F00A2A010ED5
:102406000B26000E0C220D220E22D8900E320D3213
:102416000C320B32000E0B14056E000E0C14066EF9
:10242600000E0D14076EFF0E0E14086E05500610F2
:1024360007100810D8A422EF12F024EF12F001EFD3
:1024460012F02CEF12F00A06D8900B360C360D3629
:102456000E360DBE31EF12F033EF12F03BEF12F0F5
:10246600020E0A6039EF12F03BEF12F026EF12F07F
:102476000AB040EF12F042EF12F043EF12F00D9E59
:10248600D8900A320AC005F0066A076A086A05C0CB
:1024960008F0076A066A056A05500B1206500C1208
:1024A60007500D1208500E120950D8B45DEF12F005
:1024B6005FEF12F067EF12F004BE66EF12F064EF02
:1024C60012F067EF12F00E8E0BC001F00CC002F096
:1024D6000DC003F00EC004F012002150D96EDA6A66
:1024E600DFCFF6FF0E0EF76E000EF86E0800F55001
:1024F600250AD8A481EF12F083EF12F01DEF13F036
:102506002150D96EDA6ADF2A000E526E000E516E25
:1025160051C055F053685468000E296EB9EF12F099
:1025260055822150D96EDA6ADF2AB9EF12F0010E10
:10253600296EB9EF12F02150D96EDA6ADFCFF6FFB5
:102546000E0EF76E000EF86E0800F550236E246A24
:102556002450000AD8B4B2EF12F09AEF12F02350CA
:10256600300AD8B493EF12F09AEF12F02950D8B48B
:10257600BFEF12F0C1EF12F09EEF12F021C007F08C
:1025860022C008F073EC16F007C051F008C052F0F4
:1025960052BED2EF12F0D0EF12F0D7EF12F0558004
:1025A600516C521ED8B0522A2150D96EDA6ADF50C9
:1025B6002A6E2AC0F6FF0E0EF76E000EF86E0800A1
:1025C600F550640AD8B4EAEF12F0ECEF12F0FCEF23
:1025D60012F02AC0F6FF0E0EF76E000EF86E080017
:1025E600F550690AD8A4FAEF12F0FCEF12F017EFD3
:1025F60013F02250D96EDA6A020EDF26DF5CD96E3E
:10260600DA6ADECF25F0DECF26F02150D96EDA6AFF
:102616002A28DF6E20C015F025C016F026C017F058
:1026260031EC13F030EF13F02150D96EDA6ADF2A5D
:1026360030EF13F02150D96EDA6ADFCFF6FF0E0EB7
:10264600F76E000EF86E0800F550016E026A20C0A3
:1026560003F0BEEC15F017EF13F01200010E1A6E20
:1026660017BE38EF13F03BEF13F0010E3CEF13F0FB
:10267600000E1D6E51C01BF052C01CF01D50D8B488
:1026860047EF13F049EF13F060EF13F01B06D8A0E5
:102696001C061D50D8A452EF13F054EF13F05AEF56
:1026A60013F0000E196E2B0E186E5EEF13F0000E6F
:1026B600196E2D0E186E18C01DF0000E1F6E1F0E1F
:1026C6001E6E000E0001A96F96EF13F01E06D8A02D
:1026D6001F061E508A0FD96EDA6A16C001F017C09F
:1026E60002F0000E046E0A0E036E1BEC16F001C01B
:1026F60007F002C008F0A0EC18F00750300FDF6EAC
:10270600000E1A6E1B06D8A01C0616C001F017C0D4
:1027160002F0000E046E0A0E036E5CEC15F001C0AA
:1027260016F002C017F01FBEA1EF13F01F5008E10C
:102736001E04D8A0A1EF13F0A3EF13F0C8EF13F017
:1027460016501710D8A4AAEF13F0ACEF13F069EFE8
:1027560013F01A50D8A4B2EF13F0B4EF13F069EFE8
:1027660013F01CBEBFEF13F01C5008E11B04D8A0E9
:10277600BFEF13F0C1EF13F0C8EF13F055B2C6EF79
:1027860013F0C8EF13F069EF13F01D50D8B4CEEF75
:1027960013F0D0EF13F0D9EF13F01E06D8A01F06E2
:1027A6001E508A0FD96EDA6A1DC0DFFF15C00EF003
:1027B6001E508A0F0F6E1BC010F01CC011F011ECDA
:1027C60017F0120082967A9682947A9485967D9670
:1027D60085927D9283947B94839C7B9C0D0E056EE3
:1027E6002D0E046ED80EE82EFED7042EFCD7052E2D
:1027F600FAD7030ECCEC17F0680E046EE40EE82E42
:10280600FED7042EFCD700D0030ECCEC17F0040E36
:10281600046E1C0EE82EFED7042EFCD700D0030E45
:10282600CCEC17F0040E046E1C0EE82EFED7042E18
:10283600FCD700D0020ECCEC17F0040E046E1C0E72
:10284600E82EFED7042EFCD700D0000E026E2C0E0A
:1028560012EC19F0E40E00D000D0E82EFCD700D020
:1028660000D0000E026E080E12EC19F0090E056E6D
:102876001E0E046EE40EE82EFED7042EFCD7052E9F
:10288600FAD700D0000E026E010E12EC19F0680E97
:10289600046EE40EE82EFED7042EFCD700D0000E00
:1028A600026E060E12EC19F0090E056E1E0E046E6F
:1028B600E40EE82EFED7042EFCD7052EFAD700D05C
:1028C600000E026E0C0E12EC19F0090E056E1E0EAD
:1028D600046EE40EE82EFED7042EFCD7052EFAD79A
:1028E60000D012003A343B34416E4150D8A47EEFFA
:1028F60014F080EF14F08AEF14F0000E386E000E1C
:10290600396E000E3A6E000E3B6EF7EF14F038C0CB
:102916003CF039C03DF03AC03EF03BC03FF0200EDF
:102926009AEF14F0D8903F323E323D323C32E82ED8
:1029360095EF14F03C50406E3A8EFF0E3816FF0E9F
:102946003916FF0E3A16000E3B16960E415E41BE34
:10295600B1EF14F0AFEF14F0C7EF14F04150800A56
:10296600970FD8B0B9EF14F0BBEF14F0BDEF14F029
:1029760080EF14F0D8903B323A3239323832413E49
:10298600BDEF14F0DFEF14F01F0E4164CDEF14F02D
:10299600CFEF14F0D7EF14F080EF14F0D89038365C
:1029A60039363A363B3641064150D8A4DDEF14F0AD
:1029B600DFEF14F0D1EF14F04050D8B4E5EF14F087
:1029C600E7EF14F0EFEF14F03B1E3A1E391E386C99
:1029D600000E39223A223B2238C038F039C039F08D
:1029E6003AC03AF03BC03BF0120001A0FDEF14F0F4
:1029F600FFEF14F002EF15F07F8003EF15F07F90E4
:102A060001A208EF15F00AEF15F00DEF15F07F8221
:102A16000EEF15F07F9201A413EF15F015EF15F0E8
:102A260018EF15F0798419EF15F0799401A61EEFC9
:102A360015F020EF15F023EF15F07E8C24EF15F03E
:102A46007E9C01A829EF15F02BEF15F02EEF15F05F
:102A560079882FEF15F0799801AA34EF15F036EF43
:102A660015F039EF15F0798A3AEF15F0799A01AC3D
:102A76003FEF15F041EF15F044EF15F07E8045EF7E
:102A860015F07E9001AE4AEF15F04CEF15F04FEFC2
:102A960015F07A8050EF15F07A9002A055EF15F0F8
:102AA60057EF15F05AEF15F07A825BEF15F07A9230
:102AB6001200000E066E04BE65EF15F063EF15F00A
:102AC6006BEF15F0036C041ED8B0042A010E066ED7
:102AD60002BE72EF15F070EF15F078EF15F0016C8D
:102AE600021ED8B0022A010E061A000E086E000E4B
:102AF600076E03500410D8B483EF15F085EF15F078
:102B0600ADEF15F0010E056E8DEF15F0D89003367A
:102B16000436052A04AE92EF15F094EF15F089EF0E
:102B260015F0D890073608360350015C0450025859
:102B3600D8A0A0EF15F0A2EF15F0A7EF15F00350FF
:102B4600015E0450025A0780D89004320332052EE3
:102B560094EF15F00650D8B4B3EF15F0B5EF15F0B5
:102B6600B9EF15F0076C081ED8B0082A07C001F0A7
:102B760008C002F012000350D8B4C4EF15F0C6EF37
:102B860015F0CEEF15F00350D8A4CCEF15F0CEEF2C
:102B960015F0D3EF15F001505BEC19F01AEF16F0B3
:102BA6000350D96EDA6A0A0ED926DE50DE10D8B482
:102BB600DFEF15F0E1EF15F0FAEF15F00350D96EDF
:102BC600DA6A0A0ED9260350E16EE26A030EE1269E
:102BD600DE50E65CE650800A086EDE50800A085831
:102BE600D8B0F8EF15F0FAEF15F01AEF16F003501B
:102BF600D96EDA6A030ED926DECF04F0DDCF05F0F2
:102C06000350D96EDA6ADECF06F0DDCF07F0045046
:102C16000624D96E05500720DA6E01C0DFFF035087
:102C2600D96EDA6A030ED926DE2A000EDD221200DC
:102C3600000E066E02BE24EF16F022EF16F02AEF03
:102C460016F0016C021ED8B0022A010E066E04BEF2
:102C560031EF16F02FEF16F035EF16F0036C041E69
:102C6600D8B0042A03500410D8B43CEF16F03EEF57
:102C760016F062EF16F0010E056E46EF16F0D890CC
:102C860003360436052A04AE4BEF16F04DEF16F068
:102C960042EF16F00350015C04500258D8A056EFDC
:102CA60016F058EF16F05CEF16F00350015E045074
:102CB600025AD89004320332052E4DEF16F0065014
:102CC600D8B468EF16F06AEF16F06EEF16F0016CE6
:102CD600021ED8B0022A01C001F002C002F01200A2
:102CE600000E0B6E000E0A6E0750D96EDA6ADFCF41
:102CF600F6FF0E0EF76E000EF86E0800F5502A0A63
:102D0600D8A488EF16F08AEF16F0B0EF16F0075049
:102D1600D96EDA6ADF2A0850D96EDA6A020EDF2621
:102D2600DF5CD96EDA6ADECF0AF0DECF0BF0C5EFD4
:102D360016F00AC001F00BC002F0000E046E0A0E77
:102D4600036EECEC18F0095001240A6E000E022006
:102D56000B6E0750D96EDA6ADF2A0750D96EDA6A27
:102D6600DFCFF6FF0E0EF76E000EF86E0800F55078
:102D7600D00F096E090E0964C3EF16F0C5EF16F001
:102D86009CEF16F00AC007F00BC008F01200000E08
:102D9600126E000E116E000E146E000E136EE9EF29
:102DA60016F0D8901334D96E1434DA6E0850D9263A
:102DB6000950DA22DECF0CF0DDCF0DF011500C24D5
:102DC600116E12500D20126E134A142AFF0E0A2499
:102DD6000C6EFF0E0B200D6E13500C5C0D50800A0E
:102DE6000E6E1450800A0E58D8B0FCEF16F0FEEFA7
:102DF60016F0D4EF16F011C001F012C002F00AC0AE
:102E060003F00BC004F092EC17F001C00FF002C003
:102E160010F00FC008F010C009F0120055A016EF10
:102E260017F018EF17F01EEF17F00FC009F00EC0DD
:102E36000AF065EC18F011BE25EF17F023EF17F036
:102E460029EF17F0000E116E000E106E000E146EB4
:102E5600000E136E39EF17F0000E026E200E016E93
:102E66000EC003F0BEEC15F0134A142A1050135C82
:102E76001450800A126E1150800A1258D8A046EFDC
:102E860017F048EF17F02FEF17F055B04DEF17F08A
:102E96004FEF17F055EF17F00FC009F00EC00AF00C
:102EA60065EC18F01200000E0B6E010E0A6E7CEF38
:102EB60017F0000E0B6E060E0A6E20EE0CF0015097
:102EC600D9260250DA2210EE0AF00150E12602500D
:102ED600E222DECFE6FFDDCFE5FF20EE0CF001506B
:102EE600D9260250DA2205C0DEFF06C0DDFF0A4AF7
:102EF6000B2AFF0E0324076EFF0E0420086E0A50ED
:102F0600075C0850800A096E0B50800A0958D8B031
:102F16008FEF17F091EF17F05CEF17F01200000E2D
:102F2600066E000E056E03500410D8B49DEF17F020
:102F36009FEF17F0C7EF17F0010E076EA7EF17F018
:102F4600D89003360436072A04AEACEF17F0AEEF7E
:102F560017F0A3EF17F0D890053606360350015C3C
:102F660004500258D8A0BAEF17F0BCEF17F0C1EF23
:102F760017F00350015E0450025A0580D8900432BF
:102F86000332072EAEEF17F005C001F006C002F0BF
:102F96001200016E01A0D2EF17F0D4EF17F0D7EFB1
:102FA60017F07A86D8EF17F07A9601A2DDEF17F0C0
:102FB600DFEF17F0E2EF17F07A84E3EF17F07A9479
:102FC60001A4E8EF17F0EAEF17F0EDEF17F07D86B2
:102FD600EEEF17F07D9601A6F3EF17F0F5EF17F079
:102FE600F8EF17F07D82F9EF17F07D924DEC19F0AE
:102FF6001A0EE82EFED700D01200820EF66E320EA2
:10300600F76E000EF86E00EEAAF010EE18F009004A
:10301600F5CFEEFFE550E150FAE101EEDEF01E0ECF
:10302600EE6AE806FDE100EE60F04A0EEE6AE8069A
:10303600FDE1556A546A536A526A516A569056922D
:10304600000123EF07F02CC02EF032EF18F02BC052
:1030560020F02E0E216E2DC022F070EC12F02EC044
:10306600F6FF0E0EF76E000EF86E0800F55000091A
:10307600D8A440EF18F042EF18F02AEF18F0000E2F
:103086002C6E000E2B6E1200320E3A6E2FC03BF0E5
:1030960030C03CF0000E3F6E000E3E6E000E466ED7
:1030A600000E456E3B0E2B6E31C02CF03A0E2D6E87
:1030B60026EC18F03E502F24D96E3F503020DA6EA1
:1030C600DF6A1200000E0D6E000E0C6E74EF18F023
:1030D6000BC001F0026A0AC003F0BEEC15F00C4A00
:1030E6000D2A09500C24D96EDA6ADF500B6E0B508C
:1030F600D8A480EF18F082EF18F06BEF18F01200EA
:10310600046E020E0418D8A48BEF18F08DEF18F099
:1031160092EF18F0000E026EC00E12EC19F00404C5
:10312600D8A498EF18F09AEF18F09FEF18F0000E59
:10313600026E800E12EC19F0120008BEA5EF18F010
:10314600A7EF18F0ADEF18F007C007F008C008F0B9
:10315600B9EF18F007C009F008C00AF0091E0A1EE8
:10316600094A0A2A09C007F00AC008F01200C7EF88
:1031760018F0010E026E04C0D9FF05C0DAFFDF5059
:1031860012EC19F0044A052A04C0D9FF05C0DAFF7B
:10319600DF50D8A4D1EF18F0D3EF18F0BCEF18F039
:1031A6001200608060B0DAEF18F0DCEF18F0D5EFAF
:1031B60018F064CF03F0046A0350FF08036E04504E
:1031C600D8A0E82A0008046E03C001F004C002F08B
:1031D600120001500302F3CF05F0F4CF06F00150C0
:1031E6000402F350062602500302F350062605C0D9
:1031F60001F006C002F0120087907F9087927F92BE
:1032060081947994869C7E9C81987998819A799A02
:1032160086907E9082907A9082927A921200036EC5
:1032260002B002D07B9C01D07B8C03380F0BCCEC18
:1032360017F00350CCEC17F0A00E00D0E82EFDD707
:103246001200D6501F0B4009D66ED688D650F00B0A
:103256000809D66ED5880B0ED46EDC0ED36ED58ECD
:10326600120081860E0192870F015899FC0E58179D
:10327600030E5F6F60946088608E12001F001C0052
:103286001F001E001F001E001F001F001E001F0043
:103296001E001F007B840A0EE82EFED700D07B940A
:1032A6001200F28C0E01298B339B1F8BF28E1200BB
:0232B600120004
:020000040030CA
:02000000AAFF55
:020004009FFF5C
:00000001FF
