:0400000018EF00F005
:100008005F820E0133AB0BEF00F00DEF00F016EF3F
:1000180000F00B0ED46EDC0ED36E0001F24BF32B06
:0C0028000E01339B5F92110018EF17F0DF
:100E00000054696D653A253032643A253032643ACF
:100E1000253032642044253031640054696D653AD0
:100E200020253032643A253032643A25303464006B
:100E3000446174653A253032642F253032642F25A1
:050E40003034640000E5
:100E460021EE90F010EE17F0170EDBCFE3FFE80669
:100E5600FCE20F041010D8A433EF07F035EF07F0CB
:100E660057EF07F00750D96EDA6A0950E16EE26A69
:100E7600DECFE6FFDDCFE5FF0750D96EDA6A010E59
:100E8600DBBE50EF07F0010EDB5009E1180EDE5C09
:100E9600D8A050EF07F052EF07F057EF07F00750D2
:100EA600D96EDA6ADE6ADD6A0750D96EDA6A010E31
:100EB600DBBE68EF07F0010EDB5009E13C0EDE5C9D
:100EC600D8A068EF07F06AEF07F081EF07F0075048
:100ED600D96EDA6ADE6ADD6A0850D96EDA6ADECF62
:100EE60011F0DDCF12F0010E1126000E122208506D
:100EF600D96EDA6A11C0DEFF12C0DDFF0850D96E66
:100F0600DA6A010EDBBE92EF07F0010EDB5009E153
:100F16003C0EDE5CD8A092EF07F094EF07F0ABEF43
:100F260007F00850D96EDA6ADE6ADD6A0950D96EB2
:100F3600DA6ADECF11F0DDCF12F0010E1126000EB7
:100F460012220950D96EDA6A11C0DEFF12C0DDFF27
:100F56000950D96EDA6A010EDBBEBCEF07F0010E4E
:100F6600DB5009E1180EDE5CD8A0BCEF07F0BEEF3F
:100F760007F0E7EF07F00950D96EDA6ADE6ADD6A34
:100F86000A50D96EDA6ADECF11F0DDCF12F0010E0B
:100F96001126000E12220A50D96EDA6A11C0DEFF3F
:100FA60012C0DDFF0B50D96EDA6ADECF11F0DDCF4D
:100FB60012F0010E1126000E12220B50D96EDA6ABB
:100FC60011C0DEFF12C0DDFF0B50D96EDA6A010ECA
:100FD600DBBEF8EF07F0010EDB5009E1080EDE5C20
:100FE600D8A0F8EF07F0FAEF07F001EF08F00B5082
:100FF600D96EDA6A010EDE6E000EDD6E0E50D96E07
:10100600DA6ADE50DE10D8A40BEF08F00DEF08F018
:1010160080EF08F00C50D96EDA6A030EDE18DE1087
:10102600D8A418EF08F01AEF08F080EF08F00A507D
:10103600D96EDA6A010EDBBE2BEF08F0010EDB502B
:1010460009E1190EDE5CD8A02BEF08F02DEF08F0B1
:1010560080EF08F00B50D96EDA6A070EDE18DE1044
:10106600D8A438EF08F03AEF08F080EF08F00950FE
:10107600D96EDA6A010EDBBE4AEF08F0010EDB50CC
:1010860008E1DE04D8A04AEF08F04CEF08F080EF44
:1010960008F00950D96EDA6ADECF11F0DDCF12F012
:1010A600010E1126000E12220950D96EDA6A11C0FD
:1010B600DEFF12C0DDFF0F041010D8A465EF08F0A4
:1010C60067EF08F079EF08F00750D96EDA6ADECFDD
:1010D60011F0DDCF12F0010E1126000E122207507C
:1010E600D96EDA6A11C0DEFF12C0DDFF0E50D96E6E
:1010F600DA6A010EDE6E000EDD6E0E50D96EDA6A09
:10110600DE04DE10D8A48AEF08F08CEF08F0FCEFBE
:1011160008F00C50D96EDA6A0A0EDE18DE10D8A472
:1011260097EF08F099EF08F0FCEF08F00A50D96E37
:10113600DA6A010EDBBEAAEF08F0010EDB5009E108
:10114600190EDE5CD8A0AAEF08F0ACEF08F0FCEFB1
:1011560008F00B50D96EDA6A070EDE18DE10D8A436
:10116600B7EF08F0B9EF08F0FCEF08F00950D96EB8
:10117600DA6A020EDE18DE10D8A4C4EF08F0C6EF55
:1011860008F0FCEF08F00950D96EDA6ADECF11F0EC
:10119600DDCF12F0FF0E1124136EFF0E1220146E17
:1011A6000950D96EDA6A13C0DEFF14C0DDFF0F04E2
:1011B6001010D8A4E1EF08F0E3EF08F0F7EF08F01D
:1011C6000750D96EDA6ADECF11F0DDCF12F0FF0ECE
:1011D6001124136EFF0E1220146E0750D96EDA6AB0
:1011E60013C0DEFF14C0DDFF0E50D96EDA6ADE6A68
:1011F600DD6A0D50D96EDA6ADECF11F0DDCF12F05E
:10120600030E1116000E121611501210D8A40EEF6E
:1012160009F010EF09F021EF09F00C50D96EDA6AE7
:10122600020EDE18DE10D8A41BEF09F01DEF09F040
:1012360021EF09F0000E1A6E1D0E196E0D50D96EB3
:10124600DA6ADECF01F0DDCF02F0000E046E640E26
:10125600036E15EC15F001500210D8A435EF09F015
:1012660037EF09F05EEF09F00C50D96EDA6A020E1C
:10127600DE18DE10D8A442EF09F044EF09F05EEF65
:1012860009F00D50D96EDA6ADECF01F0DDCF02F03B
:10129600010E046E900E036E15EC15F0015002104F
:1012A600D8B458EF09F05AEF09F05EEF09F0000ED6
:1012B6001A6E1C0E196E0A50D96EDA6A0C50E16E5F
:1012C600E26AE750020DF3CF13F0FE0E1326135019
:1012D600170FE16EE26ADE50E65CE650800A166E93
:1012E600DE50800A1658D8B07BEF09F07DEF09F082
:1012F600C2EF09F00A50D96EDA6A010EDE6E000EF0
:10130600DD6E0C50D96EDA6ADECF11F0DDCF12F049
:10131600010E1126000E12220C50D96EDA6A11C087
:10132600DEFF12C0DDFF0C50D96EDA6A010EDBBE9D
:10133600A7EF09F0010EDB5009E10D0EDE5CD8A027
:10134600A7EF09F0A9EF09F0C2EF09F00C50D96E2A
:10135600DA6A010EDE6E000EDD6E0D50D96EDA6AA7
:10136600DECF11F0DDCF12F0010E1126000E122293
:101376000D50D96EDA6A11C0DEFF12C0DDFF120011
:101386003150800B3A6E315031243C6E30AECEEF88
:1013960009F0D0EF09F0D1EF09F03C803C50D8B409
:1013A600D7EF09F0D9EF09F0EEEF09F03C28D8A401
:1013B600DFEF09F0E1EF09F0E9EF09F0000E2E6E1C
:1013C600000E2F6E000E306E000E316E308E000E47
:1013D600316EF6EF09F0000E2E6E000E2F6E000E27
:1013E600306E000E316E3550800B3B6E3A503B1816
:1013F600D8B400EF0AF002EF0AF003EF0AF03A8CD5
:10140600355035243B6E34AE0BEF0AF00DEF0AF083
:101416000EEF0AF03B803B50D8B414EF0AF016EFFB
:101426000AF02BEF0AF03B28D8A41CEF0AF01EEFB7
:101436000AF026EF0AF0000E326E000E336E000E32
:10144600346E000E356E348E000E356E33EF0AF0B4
:10145600000E326E000E336E000E346E000E356EC8
:101466003C503B5CD8B03AEF0AF03CEF0AF063EF31
:101476000AF03AAC41EF0AF043EF0AF045EF0AF002
:10148600800E3A1A3CC03DF03BC03CF03DC03BF0FC
:101496002EC03DF032C02EF03DC032F02FC03DF0E0
:1014A60033C02FF03DC033F030C03DF034C030F0D3
:1014B6003DC034F031C03DF035C031F03DC035F0AF
:1014C600000E3D6E3C503BC036F0376A365E000E6D
:1014D600375A37BE78EF0AF0375009E11A0E365CF4
:1014E600D8A078EF0AF07AEF0AF0B1EF0AF02E50A2
:1014F6002F1030103110D8A483EF0AF086EF0AF0CF
:10150600010E87EF0AF0000E3D6E000E2E6E000EE5
:101516002F6E000E306E000E316E3BC03CF0BAEFFF
:101526000AF03DA099EF0AF09BEF0AF0A1EF0AF04E
:10153600D8903D3001093D6EA3EF0AF0D8903D32B8
:101546002EA0A8EF0AF0AAEF0AF0ABEF0AF03D8E44
:101556003134313230322F322E323C2A3B503C5C11
:10156600D8A0B8EF0AF0BAEF0AF094EF0AF03ABC46
:10157600BFEF0AF0C1EF0AF001EF0BF03C50D8A420
:10158600C7EF0AF0C9EF0AF0D3EF0AF0000E2E6E8D
:10159600000E2F6E000E306E000E316E22EF0CF034
:1015A60032502E2633502F223450302235503122DD
:1015B60031A0E0EF0AF0E2EF0AF08EEF0BF03DA06B
:1015C600E7EF0AF0E9EF0AF0EFEF0AF0D8903D30C6
:1015D60001093D6EF1EF0AF0D8903D322EA0F6EFEC
:1015E6000AF0F8EF0AF0F9EF0AF03D8E31343132A5
:1015F60030322F322E323C2A8EEF0BF032502E5CD8
:1016060033502F58345030583150800A366E35508A
:10161600800A3658D8B012EF0BF014EF0BF03FEFFC
:101626000BF02E50325C366E2F503358376E3050DA
:101636003458386E31503558396EFF0E36242E6EBA
:10164600FF0E37202F6EFF0E3820306EFF0E39202A
:10165600316E800E3A1A3D6C3D50D8A435EF0BF032
:1016660037EF0BF047EF0BF0010E2E26000E2F2260
:101676003022312247EF0BF032502E5E33502F5A74
:101686003450305A3550315A2E502F1030103110F8
:10169600D8A450EF0BF052EF0BF087EF0BF03D5054
:1016A600D8A458EF0BF05AEF0BF087EF0BF0000EB3
:1016B6002E6E000E2F6E000E306E000E316E22EF73
:1016C6000CF0D8902E362F36303631363DAE6EEFD2
:1016D6000BF070EF0BF071EF0BF02E803DA076EF64
:1016E6000BF078EF0BF07CEF0BF0D8803D367EEFF9
:1016F6000BF0D8903D363C50D8B484EF0BF086EF13
:101706000BF087EF0BF03C0630AE8CEF0BF08EEF54
:101716000BF064EF0BF0000E3B6E3DAE95EF0BF059
:1017260097EF0BF0AFEF0BF03DC036F07F0E36169D
:10173600D8B4A0EF0BF0A2EF0BF0A6EF0BF0010E62
:101746003B6EAFEF0BF02EA0ABEF0BF0ADEF0BF057
:10175600AFEF0BF0A2EF0BF03B50D8B4B5EF0BF0A8
:10176600B7EF0BF0E2EF0BF0010E2E26000E2F2244
:101776003022312231A0C2EF0BF0C4EF0BF0E2EFC2
:101786000BF02EC036F02FC037F030C038F031C025
:1017960039F03934393238323732363236C02EF0F3
:1017A60037C02FF038C030F039C031F03C28D8B4FB
:1017B600DFEF0BF0E1EF0BF0E2EF0BF03C2A3C28F9
:1017C600D8B4E8EF0BF0EAEF0BF0F2EF0BF03C5079
:1017D600D8A4F0EF0BF0F2EF0BF004EF0CF0000ED4
:1017E6002E6E000E2F6E000E306E000E316E3C50C7
:1017F600D8A400EF0CF002EF0CF004EF0CF0000E92
:101806003A6E3CA009EF0CF00BEF0CF00EEF0CF06B
:10181600308E0FEF0CF0309ED8903C30316E3AAEE1
:1018260017EF0CF019EF0CF01AEF0CF0318E2EC0FA
:101836002EF02FC02FF030C030F031C031F0120042
:101846001850800B216E18501824276E17AE2EEFF5
:101856000CF030EF0CF031EF0CF027802750D8B4A5
:1018660037EF0CF039EF0CF04CEF0CF02728D8A42A
:101876003FEF0CF041EF0CF049EF0CF0000E156E47
:10188600000E166E000E176E000E186E178E54EFB1
:101896000CF0000E156E000E166E000E176E000E82
:1018A600186E1C50800B211A1C501C24266E1BAE71
:1018B6005FEF0CF061EF0CF062EF0CF02680265023
:1018C600D8B468EF0CF06AEF0CF07DEF0CF0262828
:1018D600D8A470EF0CF072EF0CF07AEF0CF0000E5B
:1018E600196E000E1A6E000E1B6E000E1C6E1B8EFD
:1018F60085EF0CF0000E196E000E1A6E000E1B6EB0
:10190600000E1C6E2650D8B48BEF0CF08DEF0CF049
:1019160095EF0CF02750D8A493EF0CF095EF0CF050
:101926009FEF0CF0000E156E000E166E000E176E71
:10193600000E186E37EF0EF01B501502F3CF2CF089
:10194600F4CF2DF02C50226E236A246A256A2D507E
:10195600286E296A2A6A2B6A1A501602F3CF2CF0CF
:10196600F4CF2DF02C502226000E232224222522ED
:101976002D502826000E29222A222B221950170222
:10198600F3CF2CF0F4CF2DF02C502226000E23227C
:10199600242225222D502826000E29222A222B22F7
:1019A60024C025F023C024F022C023F0226A195057
:1019B6001602F3CF2CF0F4CF2DF02C5022262D500A
:1019C6002322000E2422000E25221A501502F3CFE0
:1019D6002CF0F4CF2DF02C5022262D502322000E71
:1019E6002422000E252224C025F023C024F022C084
:1019F60023F0226A19501502F3CF2CF0F4CF2DF004
:101A06002C5022262D502322000E2422000E2522A1
:101A16001B501602F3CF2CF0F4CF2DF02C502826B5
:101A26002D502922000E2A22000E2B221A501702B0
:101A3600F3CF2CF0F4CF2DF02C5028262D50292250
:101A4600000E2A22000E2B221B501702F3CF2CF079
:101A5600F4CF2DF02C501D6E2D501E6E1F6A206A7D
:101A66001FC020F01EC01FF01DC01EF01D6A1D50B5
:101A760028261E5029221F502A2220502B2222C0FF
:101A86001DF023C01EF024C01FF025C020F0190E43
:101A960052EF0DF0D89020321F321E321D32E82E42
:101AA6004DEF0DF01D5028261E5029221F502A22C8
:101AB60020502B2224C025F023C024F022C023F07E
:101AC600226A265027C01DF01E6A1D26000E1E2201
:101AD600820E1D242C6EFF0E1E202D6E88EF0DF03B
:101AE600D890283629362A362B3625AE7DEF0DF0CE
:101AF6007FEF0DF080EF0DF02880D8902236233648
:101B0600243625362C06D8A02D062AAE8DEF0DF0EC
:101B16008FEF0DF073EF0DF0000E266E25AE96EFEB
:101B26000DF098EF0DF0BCEF0DF0FF0E22141D6EB8
:101B3600FF0E23141E6EFF0E24141F6E7F0E251437
:101B4600206E1D501E101F102010D8B4ADEF0DF0E2
:101B5600AFEF0DF0B3EF0DF0010E266EBCEF0DF0FA
:101B660028A0B8EF0DF0BAEF0DF0BCEF0DF0AFEF17
:101B76000DF02650D8B4C2EF0DF0C4EF0DF0E8EF2B
:101B86000DF0010E2826000E29222A222B222BA038
:101B9600CFEF0DF0D1EF0DF0E8EF0DF028C01DF0FE
:101BA60029C01EF02AC01FF02BC020F0203420329E
:101BB6001F321E321D321DC028F01EC029F01FC064
:101BC6002AF020C02BF02C4A2D2A2DBEF3EF0DF063
:101BD6002D5008E12C28D8A0F3EF0DF0F5EF0DF00D
:101BE600FFEF0DF0000E286E000E296E800E2A6E95
:101BF6007F0E2B6E2DEF0EF02DBE0CEF0EF02D503E
:101C060006E12C04D8B00AEF0EF00CEF0EF018EF38
:101C16000EF0000E286E000E296E000E2A6E000EC3
:101C26002B6E000E216E2DEF0EF02CC027F0FF0E4E
:101C36002816FF0E29167F0E2A16000E2B1627A031
:101C460027EF0EF029EF0EF02AEF0EF02A8ED8902D
:101C560027302B6E21502B1228C015F029C016F004
:101C66002AC017F02BC018F01200FCEC17F034EC69
:101C760018F058EC18F05FEC18F03CEC13F044EC5C
:101C860018F021EE48F010EE90F0470EDBCFE3FFA0
:101C9600E806FCE2000E00018B6F000E8A6F000E54
:101CA6008D6F000E8C6F000ED96F000ED86F000E70
:101CB600DB6F000EDA6F000EF36F370EF26F000E59
:101CC600E16F3B0EE06F000EE36F040EE26F000E55
:101CD600E56F1F0EE46F000EE76F010EE66F000E54
:101CE600E96F0C0EE86F070EEB6FE80EEA6F000E59
:101CF600ED6F000EEC6F000EDD6F010EDC6FF2C0B3
:101D0600DEF0F3C0DFF0000EDF6F000EDE6FE2C024
:101D1600F2F0E3C0F3F00001DC51DD11D8A496EF38
:101D26000EF098EF0EF09CEF0EF0F2C0DEF0F3C06E
:101D3600DFF0F20E076EE00E086EE20E096EE40E9C
:101D46000A6EE60E0B6EE80E0C6EEA0E0D6EEC0ECB
:101D56000E6EDCC00FF0DDC010F023EC07F0E2C021
:101D660001F0E3C002F04FEC14F0CDEC17F001C027
:101D760005F002C006F0E2C007F0E3C008F0EAECA6
:101D860016F0CDEC17F001C048F002C049F0E8C0EB
:101D96004AF0E9C04BF0E4C04CF0E5C04DF0E2C0BB
:101DA6004EF0E3C04FF0E0C050F0E1C051F0ECC09F
:101DB60052F0EDC053F0D80E546EDA0E556E860E04
:101DC600566E8A0E576E880E586E8C0E596E00012E
:101DD600E851020DF3CF72F0FE0E72277251900F8A
:101DE600D96EDA6ADECF5AF0DDCF5BF0E851020D2C
:101DF600F3CF73F0160E73277351900FD96EDA6A0C
:101E0600DECF5CF0DDCF5DF08EEC0FF048C08EF0DB
:101E160049C08FF0170E0001E219E311D8A416EF9E
:101E26000FF018EF0FF054EF0FF0D805D911D8A422
:101E36001FEF0FF021EF0FF054EF0FF0DA05DB1173
:101E4600D8A428EF0FF02AEF0FF054EF0FF08EC052
:101E560001F08FC002F0000E046E3C0E036E15EC0E
:101E660015F00001E0510124E06FE1510220E16F1D
:101E76008EC001F08FC002F0000E046E3C0E036EA1
:101E8600B3EC14F00001E2510124E26FE3510220A9
:101E9600E36F000ED96F000ED86F000EDB6F000ED9
:101EA600DA6F010E7CEC17F0740E316E010E326E95
:101EB600E2C033F0E3C034F0E0C035F0E1C036F004
:101EC600DEC037F0DFC038F0E6C039F0E7C03AF0E0
:101ED60099EC17F0740E046EE5EC17F0020E7CEC2C
:101EE60017F0740E316E300E326EE4C033F0E5C07A
:101EF60034F0E8C035F0E9C036F0EAC037F0EBC0A0
:101F060038F099EC17F0740E046EE5EC17F08EEFCE
:101F16000EF018EF00F05450D96EDA6ADE50DE107B
:101F2600D8A498EF0FF09AEF0FF0D9EF0FF049BE53
:101F3600A6EF0FF0495009E1460E485CD8A0A6EF7F
:101F46000FF0A8EF0FF0D9EF0FF04FBEB4EF0FF080
:101F56004F5009E1040E4E5CD8A0B4EF0FF0B6EF77
:101F66000FF0D9EF0FF04FBEC4EF0FF04F5007E15F
:101F76000A0E4E5CD8B0C2EF0FF0C4EF0FF0D9EFE7
:101F86000FF05750D96EDA6A4EC0DEFF4FC0DDFF44
:101F96005650D96EDA6A50C0DEFF51C0DDFF54508C
:101FA600D96EDA6A010EDE6E000EDD6E5550D96E00
:101FB600DA6ADE50DE10D8A4E3EF0FF0E5EF0FF09B
:101FC60024EF10F049BEF3EF0FF0495007E1470E3A
:101FD600485CD8B0F1EF0FF0F3EF0FF024EF10F0FC
:101FE6004FBEFFEF0FF04F5009E10F0E4E5CD8A029
:101FF600FFEF0FF001EF10F024EF10F04FBE0FEFE0
:1020060010F04F5007E1150E4E5CD8B00DEF10F0F2
:102016000FEF10F024EF10F05950D96EDA6A4EC067
:10202600DEFF4FC0DDFF5850D96EDA6A50C0DEFFC2
:1020360051C0DDFF5550D96EDA6A010EDE6E000E14
:10204600DD6E000E326E000E336E340E346E440EAC
:10205600356E000E196E000E1A6E000E1B6E3F0EC8
:102066001C6E5650D96EDA6ADECF60F0DDCF61F0B5
:102076005850D96EDA6ADECF62F0DDCF63F0595080
:10208600D96EDA6ADECF01F0DDCF02F0000E046E03
:102096003C0E036E0FEC18F001C064F002C065F050
:1020A6005750D96EDA6ADECF01F0DDCF02F0000EAE
:1020B600046E3C0E036E0FEC18F00150000164250F
:1020C600666F02506521676F62516625686F6351BE
:1020D6006721696F605168256A6F615169216B6F6D
:1020E6006AC007F06BC008F0000E08BEFF0E096E4E
:1020F6000A6E010EE4EC10F007C015F008C016F0E9
:1021060009C017F00AC018F023EC0CF015C02EF029
:1021160016C02FF017C030F018C031F0C3EC09F02C
:102126002EC03EF02FC03FF030C040F031C041F02D
:10213600CCEC13F03EC06CF03FC06DF0520453106F
:10214600D8A4A8EF10F0AAEF10F0B0EF10F0010E2F
:102156005C245C6E000E5D205D6E5C505D10D8B434
:10216600B7EF10F0B9EF10F0C2EF10F05C045D109D
:10217600D8A4C0EF10F0C2EF10F0C8EF10F0180EA0
:102186005C245C6E000E5D205D6E5CC001F05DC07F
:1021960002F0000E046E3C0E036E0FEC18F05A505F
:1021A600012400016E6F5B5002206F6F6C516E5DF3
:1021B600706F6D516F59716F70C048F071C049F002
:1021C60012000F6E0F50D8B4EBEF10F0EDEF10F0D9
:1021D6000FEF11F00ABEF4EF10F0F2EF10F00FEF70
:1021E60011F007C00BF008C00CF009C00DF00AC0D2
:1021F6000EF00B1E0C1E0D1E0E1E0B2A000E0C22C0
:102206000D220E220BC011F00CC012F00DC013F0FF
:102216000EC014F017EF11F007C011F008C012F04D
:1022260009C013F00AC014F00750081009100A106C
:10223600D8A420EF11F022EF11F02CEF11F0000ED0
:10224600076E000E086E000E096E000E0A6EBDEFD8
:1022560011F0960E106E36EF11F0102AD890143247
:10226600133212321132000E11140B6E000E1214BC
:102276000C6E000E13140D6EFE0E14140E6E0B5023
:102286000C100D100E10D8A44BEF11F04DEF11F0FD
:1022960030EF11F05BEF11F0102A010E1126000E3F
:1022A600122213221422D89014321332123211320F
:1022B600000E11140B6E000E12140C6E000E131489
:1022C6000D6EFF0E14140E6E0B500C100D100E102A
:1022D600D8A470EF11F072EF11F04FEF11F07AEF12
:1022E60011F01006D890113612361336143613BE76
:1022F6007FEF11F081EF11F089EF11F0020E1060FF
:1023060087EF11F089EF11F074EF11F010B08EEF36
:1023160011F090EF11F091EF11F0139ED89010325A
:1023260010C00BF00C6A0D6A0E6A0BC00EF00D6A37
:102336000C6A0B6A0B5011120C5012120D5013122C
:102346000E5014120F50D8B4ABEF11F0ADEF11F0E0
:10235600B5EF11F00ABEB4EF11F0B2EF11F0B5EF20
:1023660011F0148E11C007F012C008F013C009F066
:1023760014C00AF012002350D96EDA6ADFCFF6FFD6
:102386000E0EF76E000EF86E0800F550250AD8A45A
:10239600CFEF11F0D1EF11F06DEF12F02350D96E9F
:1023A600DA6ADF2A000E0001EF6F000EEE6FEEC054
:1023B6005EF0F069F169000E2B6E08EF12F05E8296
:1023C6002350D96EDA6ADF2A08EF12F0010E2B6E5F
:1023D60008EF12F02350D96EDA6ADFCFF6FF0E0E41
:1023E600F76E000EF86E0800F550256E266A265028
:1023F600000AD8B401EF12F0E9EF11F02550300AC7
:10240600D8B4E2EF11F0E9EF11F02B50D8B40EEF8B
:1024160012F010EF12F0EDEF11F023C007F024C018
:1024260008F06DEC15F007C0EEF008C0EFF0000103
:10243600EFBF22EF12F020EF12F027EF12F05E80CE
:10244600EE6DEF1FD8B0EF2B2350D96EDA6ADF504E
:102456002C6E2CC0F6FF0E0EF76E000EF86E0800FE
:10246600F550640AD8B43AEF12F03CEF12F04CEF94
:1024760012F02CC0F6FF0E0EF76E000EF86E080076
:10248600F550690AD8A44AEF12F04CEF12F067EF44
:1024960012F02450D96EDA6A020EDF26DF5CD96E9E
:1024A600DA6ADECF27F0DECF28F02350D96EDA6A5B
:1024B6002C28DF6E22C017F027C018F028C019F0AC
:1024C60081EC12F080EF12F02350D96EDA6ADF2A1F
:1024D60080EF12F02350D96EDA6ADFCFF6FF0E0EC8
:1024E600F76E000EF86E0800F550016E026A22C003
:1024F60003F0C4EC15F067EF12F01200010E1C6E2B
:1025060019BE88EF12F08BEF12F0010E8CEF12F06D
:10251600000E1F6EEEC01DF0EFC01EF01F50D8B4A7
:1025260097EF12F099EF12F0B0EF12F01D06D8A057
:102536001E061F50D8A4A2EF12F0A4EF12F0AAEFC5
:1025460012F0000E1B6E2B0E1A6EAEEF12F0000E7E
:102556001B6E2D0E1A6E1AC01FF0000E216E1F0E76
:10256600206E000E0101C76FE8EF12F02006D8A01A
:102576002106A80E2024D96E010E2120DA6E18C07D
:1025860001F019C002F0000E046E0A0E036E15EC7F
:1025960015F001C007F002C008F0B3EC17F00750C1
:1025A600300FDF6E000E1C6E1D06D8A01E0618C06A
:1025B60001F019C002F0000E046E0A0E036EB3ECB1
:1025C60014F001C018F002C019F021BEF3EF12F0AA
:1025D600215008E12004D8A0F3EF12F0F5EF12F035
:1025E6001AEF13F018501910D8A4FCEF12F0FEEFF2
:1025F60012F0B9EF12F01C50D8A404EF13F006EF56
:1026060013F0B9EF12F01EBE11EF13F01E5008E1E1
:102616001D04D8A011EF13F013EF13F01AEF13F007
:102626005EB218EF13F01AEF13F0B9EF12F01F5065
:10263600D8B420EF13F022EF13F02DEF13F020069D
:10264600D8A02106A80E2024D96E010E2120DA6E0C
:102656001FC0DFFF17C00FF0A80E2024106E010E5A
:102666002120116E1DC012F01EC013F06DEC16F085
:10267600120082967A9682947A9485967D968592B1
:102686007D9283947B94839C7B9C0D0E056E2D0E10
:10269600046ED80EE82EFED7042EFCD7052EFAD7E8
:1026A600030EB6EC16F0680E046EE40EE82EFED7A6
:1026B600042EFCD700D0030EB6EC16F0040E046E02
:1026C6001C0EE82EFED7042EFCD700D0030EB6EC67
:1026D60016F0040E046E1C0EE82EFED7042EFCD750
:1026E60000D0020EB6EC16F0040E046E1C0EE82E98
:1026F600FED7042EFCD700D0000E026E2C0E22EC64
:1027060018F0E40E00D000D0E82EFCD700D000D0A0
:10271600000E026E080E22EC18F0090E056E1E0E53
:10272600046EE40EE82EFED7042EFCD7052EFAD74B
:1027360000D0000E026E010E22EC18F0680E046E38
:10274600E40EE82EFED7042EFCD700D0000E026E53
:10275600060E22EC18F0090E056E1E0E046EE40E2F
:10276600E82EFED7042EFCD7052EFAD700D0000E91
:10277600026E0C0E22EC18F0090E056E1E0E046E8B
:10278600E40EE82EFED7042EFCD7052EFAD700D08D
:10279600120040344134476E4750D8A4D5EF13F0A9
:1027A600D7EF13F0E1EF13F0000E3E6E000E3F6E12
:1027B600000E406E000E416E4EEF14F03EC042F029
:1027C6003FC043F040C044F041C045F0200EF1EF59
:1027D60013F0D8904532443243324232E82EECEFC1
:1027E60013F04250466E408EFF0E3E16FF0E3F1609
:1027F600FF0E4016000E4116960E475E47BE08EFC6
:1028060014F006EF14F01EEF14F04750800A970FED
:10281600D8B010EF14F012EF14F014EF14F0D7EF55
:1028260013F0D890413240323F323E32473E14EFE9
:1028360014F036EF14F01F0E476424EF14F026EF61
:1028460014F02EEF14F0D7EF13F0D8903E363F3643
:102856004036413647064750D8A434EF14F036EFD9
:1028660014F028EF14F04650D8B43CEF14F03EEFC5
:1028760014F046EF14F0411E401E3F1E3E6C000E43
:102886003F22402241223EC03EF03FC03FF040C0C2
:1028960040F041C041F0120001A054EF14F056EF91
:1028A60014F059EF14F07F805AEF14F07F9001A2D4
:1028B6005FEF14F061EF14F064EF14F07F8265EFC0
:1028C60014F07F9201A46AEF14F06CEF14F06FEF2E
:1028D60014F0798470EF14F0799401A675EF14F072
:1028E60077EF14F07AEF14F07E8C7BEF14F07E9C79
:1028F60001A880EF14F082EF14F085EF14F07988C8
:1029060086EF14F0799801AA8BEF14F08DEF14F08E
:1029160090EF14F0798A91EF14F0799A01AC96EF62
:1029260014F098EF14F09BEF14F07E809CEF14F0F7
:102936007E9001AEA1EF14F0A3EF14F0A6EF14F011
:102946007A80A7EF14F07A9002A0ACEF14F0AEEF05
:1029560014F0B1EF14F07A82B2EF14F07A9212000A
:10296600000E066E04BEBCEF14F0BAEF14F0C2EF10
:1029760014F0036C041ED8B0042A010E066E02BEC3
:10298600C9EF14F0C7EF14F0CFEF14F0016C021E7C
:10299600D8B0022A010E061A000E086E000E076E47
:1029A60003500410D8B4DAEF14F0DCEF14F004EF9F
:1029B60015F0010E056EE4EF14F0D89003360436D8
:1029C600052A04AEE9EF14F0EBEF14F0E0EF14F093
:1029D600D890073608360350015C04500258D8A038
:1029E600F7EF14F0F9EF14F0FEEF14F00350015E68
:1029F6000450025A0780D89004320332052EEBEFBA
:102A060014F00650D8B40AEF15F00CEF15F010EFDD
:102A160015F0076C081ED8B0082A07C001F008C0D8
:102A260002F01200000E066E02BE1EEF15F01CEF3D
:102A360015F024EF15F0016C021ED8B0022A010E23
:102A4600066E04BE2BEF15F029EF15F02FEF15F0EB
:102A5600036C041ED8B0042A03500410D8B436EF11
:102A660015F038EF15F05CEF15F0010E056E40EF2E
:102A760015F0D89003360436052A04AE45EF15F056
:102A860047EF15F03CEF15F00350015C0450025877
:102A9600D8A050EF15F052EF15F056EF15F0035091
:102AA600015E0450025AD89004320332052E47EFD5
:102AB60015F00650D8B462EF15F064EF15F068EF24
:102AC60015F0016C021ED8B0022A01C001F002C046
:102AD60002F01200000E0B6E000E0A6E0750D96E41
:102AE600DA6ADFCFF6FF0E0EF76E000EF86E0800FC
:102AF600F5502A0AD8A482EF15F084EF15F0AAEF54
:102B060015F00750D96EDA6ADF2A0850D96EDA6AEC
:102B1600020EDF26DF5CD96EDA6ADECF0AF0DECF80
:102B26000BF0BFEF15F00AC001F00BC002F0000E6B
:102B3600046E0A0E036E0FEC18F0095001240A6E9B
:102B4600000E02200B6E0750D96EDA6ADF2A075094
:102B5600D96EDA6ADFCFF6FF0E0EF76E000EF86E4C
:102B66000800F550D00F096E090E0964BDEF15F087
:102B7600BFEF15F096EF15F00AC007F00BC008F08E
:102B860012000350D8B4CAEF15F0CCEF15F0D4EF0D
:102B960015F00350D8A4D2EF15F0D4EF15F0D9EF05
:102BA60015F0015062EC18F018EF16F00350D96ECC
:102BB600DA6A0A0ED926DE50DE10D8B4E5EF15F033
:102BC600E7EF15F000EF16F00350D96EDA6A0A0E39
:102BD600D9260350E16EE26A030EE126DE50E65C7A
:102BE600E650800A086EDE50800A0858D8B0FEEF1C
:102BF60015F000EF16F018EF16F00350D96EDA6AEA
:102C0600030ED926DF50046E0350D96EDA6ADF5000
:102C16000424D96EDA6A01C0DFFF0350D96EDA6A7E
:102C2600030ED926DE2A000EDD2212001F001C002C
:102C36001F001E001F001E001F001F001E001F0099
:102C46001E001F000000000000000000170000002A
:102C560000000000170017001700170009000D00FC
:102C660008000100390001000500030037002F00AD
:102C76002E00380009000D0008000100390001008F
:102C86000500030037002F002E003800000000006A
:102C960000000000170000000000000017001700E9
:102CA600170017001F001C001F001E001F001E003B
:102CB6001F001F001E001F001E001F001F001C001B
:102CC6001F001E001F001E001F001F001E001F0009
:102CD6001E001F005EA072EF16F074EF16F07CEF78
:102CE60016F010C009F011C00AF00FC00BF05CEC32
:102CF60017F013BE83EF16F081EF16F087EF16F08C
:102D0600000E136E000E126E000E166E000E156E7D
:102D160097EF16F0000E026E200E016E0FC003F044
:102D2600C4EC15F0154A162A1250155C1650800A86
:102D3600146E1350800A1458D8A0A4EF16F0A6EF0C
:102D460016F08DEF16F05EB0ABEF16F0ADEF16F0A5
:102D5600B5EF16F010C009F011C00AF00FC00BF065
:102D66005CEC17F01200016E01A0BCEF16F0BEEF8E
:102D760016F0C1EF16F07A86C2EF16F07A9601A227
:102D8600C7EF16F0C9EF16F0CCEF16F07A84CDEF48
:102D960016F07A9401A4D2EF16F0D4EF16F0D7EF1E
:102DA60016F07D86D8EF16F07D9601A6DDEF16F0BB
:102DB600DFEF16F0E2EF16F07D82E3EF16F07D927C
:102DC60051EC18F01A0EE82EFED700D0120006BEFF
:102DD600F8EF16F0065007E1470E055CD8B0F6EF9F
:102DE60016F0F8EF16F016EF17F008BE03EF17F01F
:102DF600085008E10704D8A003EF17F005EF17F015
:102E060013EF17F008BE11EF17F0085009E1050E91
:102E1600075CD8A011EF17F013EF17F016EF17F0B5
:102E2600808617EF17F080961200320EF66E2C0E83
:102E3600F76E000EF86E01EE00F010EEA8F0090035
:102E4600F5CFEEFFE550E150FAE101EEA8F0200ED5
:102E5600EE6AE806FDE10001F36BF26BF16BF06BD5
:102E6600EF6BEE6B5E6A5F905F92000138EF0EF0DB
:102E76002EC030F047EF17F02DC022F0300E236E33
:102E86002FC024F0BEEC11F030C0F6FF0E0EF76E28
:102E9600000EF86E0800F5500009D8A455EF17F09B
:102EA60057EF17F03FEF17F0000E2E6E000E2D6E47
:102EB6001200000E0E6E000E0D6E6BEF17F00CC0BA
:102EC60001F0026A0BC003F0C4EC15F00D4A0E2A9D
:102ED6000D500924D96E0E500A20DA6EDF500C6EA2
:102EE6000C50D8A479EF17F07BEF17F062EF17F0CC
:102EF6001200046E020E0418D8A484EF17F086EFB1
:102F060017F08BEF17F0000E026EC00E22EC18F0D1
:102F16000404D8A491EF17F093EF17F098EF17F089
:102F2600000E026E800E22EC18F01200330E3B6E7D
:102F360031C03CF0000E406E000E3F6E000E476E34
:102F4600000E466E3C0E2D6E32C02EF03B0E2F6EDE
:102F56003BEC17F031503F24D96EDA6ADF6A120073
:102F660008BEB8EF17F0BAEF17F0C0EF17F007C0BA
:102F760007F008C008F0CCEF17F007C009F008C04A
:102F86000AF0091E0A1E094A0A2A09C007F00AC0E1
:102F960008F01200608060B0D3EF17F0D5EF17F09D
:102FA600CEEF17F064CF03F0046A0350FF08036EF8
:102FB6000450D8A0E82A0008046E03C001F004C03B
:102FC60002F01200F0EF17F0010E026E0450D96EF7
:102FD600DA6ADF5022EC18F0042A0450D96EDA6A55
:102FE600DF50D8A4F9EF17F0FBEF17F0E7EF17F073
:102FF600120087907F9087927F9281947994869C25
:103006007E9C81987998819A799A86907E90829012
:103016007A9082927A92120001500302F3CF05F061
:10302600F4CF06F001500402F350062602500302C4
:10303600F350062605C001F006C002F01200036E2A
:1030460002B002D07B9C01D07B8C03380F0BB6EC10
:1030560016F00350B6EC16F0A00E00D0E82EFDD701
:103066001200D6501F0B4009D66ED688D650F00BEC
:103076000809D66ED5880B0ED46EDC0ED36ED58EAF
:10308600120081860E0192870F015899FC0E58177F
:10309600030E5F6F60946088608E12007B840A0E58
:1030A600E82EFED700D07B941200F28C0E01298BFD
:1030B600339B1F8BF28E12008896809612001200A8
:020000040030CA
:02000000AAFF55
:020004009FFF5C
:00000001FF
