:0400000027EF00F0F6
:100008000D820E0133AB0BEF00F00DEF00F025EF82
:1000180000F080A612EF00F016EF00F0016A012A46
:1000280017EF00F0016A01460146014680500118A9
:10003800F70B0118806E0B0ED46EDC0ED36E0E011A
:0A004800339B0D9211000BEF08F03E
:100E000000007CAE06EF07F00AEF07F0086A082A38
:100E10000BEF07F0086A083208327C5008187F0B85
:100E200008187C6E06A017EF07F019EF07F01CEF0B
:100E300007F07F801DEF07F07F9006A222EF07F0FA
:100E400024EF07F027EF07F07F8228EF07F07F926B
:100E500006A42DEF07F02FEF07F032EF07F07984AB
:100E600033EF07F0799406A638EF07F03AEF07F072
:100E70003DEF07F07E8C3EEF07F07E9C06A843EF27
:100E800007F045EF07F048EF07F0798849EF07F0E2
:100E9000799806AA4EEF07F050EF07F053EF07F0EE
:100EA000798A54EF07F0799A06AC59EF07F05BEFB7
:100EB00007F05EEF07F07E805FEF07F07E9006AEF2
:100EC00064EF07F066EF07F069EF07F07A806AEFEA
:100ED00007F07A9007A06FEF07F071EF07F074EF5B
:100EE00007F07A8275EF07F07A921200000E076E13
:100EF000000E066E04500510D8B481EF07F083EFA2
:100F000007F0ABEF07F0010E086E8BEF07F0D890FB
:100F100004360536082A05AE90EF07F092EF07F089
:100F200087EF07F0D890063607360450025C05506C
:100F30000358D8A09EEF07F0A0EF07F0A5EF07F049
:100F40000450025E0550035A0680D89005320432E0
:100F5000082E92EF07F006C002F007C003F012005F
:100F6000D2EC07F0E5EC07F012EC08F0F5EC07F036
:100F7000000E036E640E026E000E056E090E046E06
:100F800076EC07F0000E0A6E000E096E02EC08F017
:100F900002C006F003C007F001EC07F0C6EF07F04F
:100FA00027EF00F087907F8087927F8281947984F9
:100FB000869C7E8C81987988819A798A86907E80B9
:100FC00082907A8082927A821200D6501F0B40095A
:100FD000D66ED688D650F00B0809D66ED5880B0E83
:100FE000D46EDC0ED36ED58E120081860E019287F0
:100FF0000F015899FC0E5817030E5F6F60946088BC
:10100000608E1200D350D4CF04F0056A04C002F001
:1010100005C003F012000C6A0B6A0D900D920001DE
:10102000B0EF07F0F28C0E01298B339B1F8BF28EF1
:021030001200AC
:020000040030CA
:02000000AAFF55
:020004009FFF5C
:00000001FF
