:0400000018EF00F005
:100008004B820E0133AB0BEF00F00DEF00F016EF53
:1000180000F00B0ED46EDC0ED36E0001A44BA52BA2
:0C0028000E01339B4B92110009EF0EF00B
:100E00000054696D653A253032643A253032643ACF
:100E1000253032642044253031640054696D653AD0
:100E200020253032643A253032643A25303464006B
:100E3000446174653A253032642F253032642F25A1
:050E40003034640000E5
:100E460020EEA6F010EE16F0170EDBCFE3FFE80655
:100E5600FCE20E040F10D8A433EF07F035EF07F0CD
:100E66006EEF07F00750D96EDA6A0950E16EE26A52
:100E7600DECFE6FFDDCFE5FF0750D96EDA6A010E59
:100E8600DBBE50EF07F0010EDB5009E1180EDE5C09
:100E9600D8A050EF07F052EF07F06EEF07F00750BB
:100EA600D96EDA6ADE6ADD6A0950D96EDA6ADE6AF6
:100EB600DD6A0A50D96EDA6ADECF10F0DDCF11F0A6
:100EC600010E1026000E11220A50D96EDA6A10C0E1
:100ED600DEFF11C0DDFF0750D96EDA6A010EDBBEF8
:100EE6007FEF07F0010EDB5009E13C0EDE5CD8A077
:100EF6007FEF07F081EF07F098EF07F00750D96E04
:100F0600DA6ADE6ADD6A0850D96EDA6ADECF10F078
:100F1600DDCF11F0010E1026000E11220850D96EF9
:100F2600DA6A10C0DEFF11C0DDFF0850D96EDA6A3A
:100F3600010EDBBEA9EF07F0010EDB5009E13C0E06
:100F4600DE5CD8A0A9EF07F0ABEF07F0C2EF07F021
:100F56000850D96EDA6ADE6ADD6A0950D96EDA6A35
:100F6600DECF10F0DDCF11F0010E1026000E11229B
:100F76000950D96EDA6A10C0DEFF11C0DDFF0950D4
:100F8600D96EDA6A010EDBBED3EF07F0010EDB5035
:100F960009E1180EDE5CD8A0D3EF07F0D5EF07F015
:100FA600FEEF07F00950D96EDA6ADE6ADD6A0A508A
:100FB600D96EDA6ADECF10F0DDCF11F0010E102601
:100FC600000E11220A50D96EDA6A10C0DEFF11C077
:100FD600DDFF0B50D96EDA6ADECF10F0DDCF11F0EF
:100FE600010E1026000E11220B50D96EDA6A10C0BF
:100FF600DEFF11C0DDFF0B50D96EDA6A010EDBBED3
:101006000FEF08F0010EDB5009E1080EDE5CD8A0F8
:101016000FEF08F011EF08F018EF08F00B50D96E3B
:10102600DA6A010EDE6E000EDD6E0D50D96EDA6ADA
:10103600DECF10F0DDCF11F0030E1016000E1116E4
:1010460010501110D8A42AEF08F02CEF08F03DEF4D
:1010560008F00C50D96EDA6A020EDE18DE10D8A43B
:1010660037EF08F039EF08F03DEF08F0000E196E83
:101076001D0E186E0D50D96EDA6ADECF01F0DDCF87
:1010860002F0000E046E640E036E6BEC0CF0015061
:101096000210D8A451EF08F053EF08F07AEF08F0E9
:1010A6000C50D96EDA6A020EDE18DE10D8A45EEF96
:1010B60008F060EF08F07AEF08F00D50D96EDA6AA2
:1010C600DECF01F0DDCF02F0010E046E900E036E4E
:1010D6006BEC0CF001500210D8B474EF08F076EF08
:1010E60008F07AEF08F0000E196E1C0E186E0A5002
:1010F600D96EDA6A0C50E16EE26AE750020DF3CF60
:1011060012F0FE0E12261250160FE16EE26ADE5043
:10111600E65CE650800A156EDE50800A1558D8B097
:1011260097EF08F099EF08F0DEEF08F00A50D96E55
:10113600DA6A010EDE6E000EDD6E0C50D96EDA6ACA
:10114600DECF10F0DDCF11F0010E1026000E1122B9
:101156000C50D96EDA6A10C0DEFF11C0DDFF0C50EC
:10116600D96EDA6A010EDBBEC3EF08F0010EDB5062
:1011760009E10D0EDE5CD8A0C3EF08F0C5EF08F05C
:10118600DEEF08F00C50D96EDA6A010EDE6E000E44
:10119600DD6E0D50D96EDA6ADECF10F0DDCF11F0BC
:1011A600010E1026000E11220D50D96EDA6A10C0FB
:1011B600DEFF11C0DDFF1200C2EC0EF0E7EC0EF010
:1011C60017EC0FF015EC0BF0F7EC0EF01FEC0FF030
:1011D600849E7C9E88968096000E0001A56F370E31
:1011E600A46F000E796F3B0E786F000E7B6F020EB8
:1011F6007A6F000E7D6F1C0E7C6F000E7F6F030EE4
:101206007E6F000E816F020E806F070E836F6D0E6C
:10121600826F000E756F010E746F000174517511A7
:10122600D8A418EF09F01AEF09F01EEF09F0A4C0D0
:1012360076F0A5C077F0A40E076E780E086E7A0ECB
:10124600096E7C0E0A6E7E0E0B6E800E0C6E820E82
:101256000D6E74C00EF075C00FF023EC07F07AC067
:1012660001F07BC002F0A5EC0BF0030E0001801923
:101276008111D8A441EF09F043EF09F046EF09F0D8
:101286007C8E47EF09F07C9E7BBF52EF09F07B51C5
:1012960008E17A05D8A052EF09F054EF09F065EF9E
:1012A60009F07BBF62EF09F07B5107E1060E7A5D1C
:1012B600D8B060EF09F062EF09F065EF09F08096AB
:1012C60066EF09F08086010E47EC0EF0600E2F6E79
:1012D600010E306E7AC031F07BC032F078C033F048
:1012E60079C034F076C035F077C036F07EC037F07E
:1012F6007FC038F064EC0EF0600E046E98EC0EF0D1
:10130600020E47EC0EF0600E2F6E300E306E7CC073
:1013160031F07DC032F080C033F081C034F082C03D
:1013260035F083C036F064EC0EF0600E046E98EC77
:101336000EF010EF09F018EF00F02150D96EDA6ABE
:10134600DFCFF6FF0E0EF76E000EF86E0800F550B2
:10135600250AD8A4B1EF09F0B3EF09F04DEF0AF072
:101366002150D96EDA6ADF2A000E476E000E466EED
:1013760046C04AF048684968000E296EE9EF09F050
:101386004A822150D96EDA6ADF2AE9EF09F0010EA6
:10139600296EE9EF09F02150D96EDA6ADFCFF6FF40
:1013A6000E0EF76E000EF86E0800F550236E246AD6
:1013B6002450000AD8B4E2EF09F0CAEF09F023502E
:1013C600300AD8B4C3EF09F0CAEF09F02950D8B4EF
:1013D600EFEF09F0F1EF09F0CEEF09F021C007F0C9
:1013E60022C008F0C3EC0CF007C046F008C047F076
:1013F60047BE02EF0AF000EF0AF007EF0AF04A8054
:10140600466C471ED8B0472A2150D96EDA6ADF509B
:101416002A6E2AC0F6FF0E0EF76E000EF86E080052
:10142600F550640AD8B41AEF0AF01CEF0AF02CEF54
:101436000AF02AC0F6FF0E0EF76E000EF86E0800D0
:10144600F550690AD8A42AEF0AF02CEF0AF047EF04
:101456000AF02250D96EDA6A020EDF26DF5CD96EF8
:10146600DA6ADECF25F0DECF26F02150D96EDA6AB1
:101476002A28DF6E20C015F025C016F026C017F00A
:1014860061EC0AF060EF0AF02150D96EDA6ADF2AC1
:1014960060EF0AF02150D96EDA6ADFCFF6FF0E0E42
:1014A600F76E000EF86E0800F550016E026A20C055
:1014B60003F01AEC0DF047EF0AF01200010E1A6E57
:1014C60017BE68EF0AF06BEF0AF0010E6CEF0AF038
:1014D600000E1D6E46C01BF047C01CF01D50D8B450
:1014E60077EF0AF079EF0AF090EF0AF01B06D8A022
:1014F6001C061D50D8A482EF0AF084EF0AF08AEF8A
:101506000AF0000E196E2B0E186E8EEF0AF0000E02
:10151600196E2D0E186E18C01DF0000E1F6E1F0ED0
:101526001E6E000E0001A36FC6EF0AF01E06D8A0BD
:101536001F061E50840FD96EDA6A16C001F017C056
:1015460002F0000E046E0A0E036E6BEC0CF001C086
:1015560007F002C008F07EEC0EF00750300FDF6E89
:10156600000E1A6E1B06D8A01C0616C001F017C086
:1015760002F0000E046E0A0E036E09EC0CF001C0B8
:1015860016F002C017F01FBED1EF0AF01F5008E197
:101596001E04D8A0D1EF0AF0D3EF0AF0F8EF0AF054
:1015A60016501710D8A4DAEF0AF0DCEF0AF099EF1C
:1015B6000AF01A50D8A4E2EF0AF0E4EF0AF099EF25
:1015C6000AF01CBEEFEF0AF01C5008E11B04D8A07D
:1015D600EFEF0AF0F1EF0AF0F8EF0AF04AB2F6EF91
:1015E6000AF0F8EF0AF099EF0AF01D50D8B4FEEFB2
:1015F6000AF000EF0BF009EF0BF01E06D8A01F064D
:101606001E50840FD96EDA6A1DC0DFFF15C00EF0BA
:101616001E50840F0F6E1BC010F01CC011F06FEC33
:101626000DF0120082967A9682947A9485967D962B
:1016360085927D9283947B94839C7B9C0D0E056E94
:101646002D0E046ED80EE82EFED7042EFCD7052EDE
:10165600FAD7030EB4EC0DF0680E046EE40EE82E15
:10166600FED7042EFCD700D0030EB4EC0DF0040E0A
:10167600046E1C0EE82EFED7042EFCD700D0030EF7
:10168600B4EC0DF0040E046E1C0EE82EFED7042EEC
:10169600FCD700D0020EB4EC0DF0040E046E1C0E46
:1016A600E82EFED7042EFCD700D0000E026E2C0EBC
:1016B600D5EC0EF0E40E00D000D0E82EFCD700D01A
:1016C60000D0000E026E080ED5EC0EF0090E056E67
:1016D6001E0E046EE40EE82EFED7042EFCD7052E51
:1016E600FAD700D0000E026E010ED5EC0EF0680E91
:1016F600046EE40EE82EFED7042EFCD700D0000EB2
:10170600026E060ED5EC0EF0090E056E1E0E046E68
:10171600E40EE82EFED7042EFCD7052EFAD700D00D
:10172600000E026E0C0ED5EC0EF0090E056E1E0EA6
:10173600046EE40EE82EFED7042EFCD7052EFAD74B
:1017460000D0120001A0AAEF0BF0ACEF0BF0AFEF48
:101756000BF07F80B0EF0BF07F9001A2B5EF0BF09E
:10176600B7EF0BF0BAEF0BF07F82BBEF0BF07F9277
:1017760001A4C0EF0BF0C2EF0BF0C5EF0BF07984BC
:10178600C6EF0BF0799401A6CBEF0BF0CDEF0BF083
:10179600D0EF0BF07E8CD1EF0BF07E9C01A8D6EF3C
:1017A6000BF0D8EF0BF0DBEF0BF07988DCEF0BF0EA
:1017B600799801AAE1EF0BF0E3EF0BF0E6EF0BF0FF
:1017C600798AE7EF0BF0799A01ACECEF0BF0EEEFCC
:1017D6000BF0F1EF0BF07E80F2EF0BF07E9001AE96
:1017E600F7EF0BF0F9EF0BF0FCEF0BF07A80FDEF63
:1017F6000BF07A9002A002EF0CF004EF0CF007EF6A
:101806000CF07A8208EF0CF07A921200000E066E47
:1018160004BE12EF0CF010EF0CF018EF0CF0036C96
:10182600041ED8B0042A010E066E02BE1FEF0CF08D
:101836001DEF0CF025EF0CF0016C021ED8B0022A49
:10184600010E061A000E086E000E076E03500410F5
:10185600D8B430EF0CF032EF0CF05AEF0CF0010E6A
:10186600056E3AEF0CF0D89003360436052A04AE1E
:101876003FEF0CF041EF0CF036EF0CF0D890073646
:1018860008360350015C04500258D8A04DEF0CF006
:101896004FEF0CF054EF0CF00350015E0450025A67
:1018A6000780D89004320332052E41EF0CF0065023
:1018B600D8B460EF0CF062EF0CF066EF0CF0076C3A
:1018C600081ED8B0082A07C001F008C002F01200AE
:1018D600000E066E02BE74EF0CF072EF0CF07AEF9B
:1018E6000CF0016C021ED8B0022A010E066E04BE70
:1018F60081EF0CF07FEF0CF085EF0CF0036C041E0B
:10190600D8B0042A03500410D8B48CEF0CF08EEF34
:101916000CF0B2EF0CF0010E056E96EF0CF0D890BD
:1019260003360436052A04AE9BEF0CF09DEF0CF04F
:1019360092EF0CF00350015C04500258D8A0A6EFB9
:101946000CF0A8EF0CF0ACEF0CF00350015E045065
:10195600025AD89004320332052E9DEF0CF0065041
:10196600D8B4B8EF0CF0BAEF0CF0BEEF0CF0016C87
:10197600021ED8B0022A01C001F002C002F0120015
:10198600000E0B6E000E0A6E0750D96EDA6ADFCFB4
:10199600F6FF0E0EF76E000EF86E0800F5502A0AD6
:1019A600D8A4D8EF0CF0DAEF0CF000EF0DF00750EA
:1019B600D96EDA6ADF2A0850D96EDA6A020EDF2695
:1019C600DF5CD96EDA6ADECF0AF0DECF0BF015EFF8
:1019D6000DF00AC001F00BC002F0000E046E0A0EF4
:1019E600036EAFEC0EF0095001240A6E000E0220C1
:1019F6000B6E0750D96EDA6ADF2A0750D96EDA6A9B
:101A0600DFCFF6FF0E0EF76E000EF86E0800F550EB
:101A1600D00F096E090E096413EF0DF015EF0DF0E6
:101A2600ECEF0CF00AC007F00BC008F012000350F0
:101A3600D8B420EF0DF022EF0DF02AEF0DF0035091
:101A4600D8A428EF0DF02AEF0DF02FEF0DF001507E
:101A56001EEC0FF06EEF0DF00350D96EDA6A0A0E27
:101A6600D926DE50DE10D8B43BEF0DF03DEF0DF079
:101A760056EF0DF00350D96EDA6A0A0ED9260350D6
:101A8600E16EE26A030EE126DE50E65CE650800A6D
:101A9600086EDE50800A0858D8B054EF0DF056EFA5
:101AA6000DF06EEF0DF00350D96EDA6A030ED926EB
:101AB600DF50046E0350D96EDA6ADF500424D96E03
:101AC600DA6A01C0DFFF0350D96EDA6A030ED9263F
:101AD600DE2A000EDD2212004AA074EF0DF076EF2A
:101AE6000DF07CEF0DF00FC009F00EC00AF029ECE6
:101AF6000EF011BE83EF0DF081EF0DF087EF0DF0C4
:101B0600000E116E000E106E000E146E000E136E97
:101B160097EF0DF0000E026E200E016E0EC003F060
:101B26001AEC0DF0134A142A1050135C1450800A54
:101B3600126E1150800A1258D8A0A4EF0DF0A6EF2D
:101B46000DF08DEF0DF04AB0ABEF0DF0ADEF0DF0EF
:101B5600B3EF0DF00FC009F00EC00AF029EC0EF03D
:101B66001200016E01A0BAEF0DF0BCEF0DF0BFEF51
:101B76000DF07A86C0EF0DF07A9601A2C5EF0DF052
:101B8600C7EF0DF0CAEF0DF07A84CBEF0DF07A9423
:101B960001A4D0EF0DF0D2EF0DF0D5EF0DF07D865C
:101BA600D6EF0DF07D9601A6DBEF0DF0DDEF0DF023
:101BB600E0EF0DF07D82E1EF0DF07D9210EC0FF07D
:101BC6001A0EE82EFED700D012002CC02EF0F4EF2D
:101BD6000DF02BC020F02E0E216E2DC022F0A0ECB1
:101BE60009F02EC0F6FF0E0EF76E000EF86E080016
:101BF600F5500009D8A402EF0EF004EF0EF0ECEF5A
:101C06000DF0000E2C6E000E2B6E1200080EF66EF6
:101C16001E0EF76E000EF86E00EEA6F010EE18F02F
:101C26000900F5CFEEFFE550E150FAE100EE84F051
:101C3600220EEE6AE806FDE14A6A496A486A476A80
:101C4600466A4B904B920001DFEF08F0000E0D6ED6
:101C5600000E0C6E38EF0EF00BC001F0026A0AC0DF
:101C660003F01AEC0DF00C4A0D2A09500C24D96E1B
:101C7600DA6ADF500B6E0B50D8A444EF0EF046EF35
:101C86000EF02FEF0EF01200046E020E0418D8A408
:101C96004FEF0EF051EF0EF056EF0EF0000E026E03
:101CA600C00ED5EC0EF00404D8A45CEF0EF05EEF87
:101CB6000EF063EF0EF0000E026E800ED5EC0EF005
:101CC6001200310E396E2FC03AF0000E3E6E000E35
:101CD6003D6E000E456E000E446E3A0E2B6E30C001
:101CE6002CF0390E2D6EE8EC0DF02F503D24D96EF8
:101CF600DA6ADF6A120008BE83EF0EF085EF0EF097
:101D06008BEF0EF007C007F008C008F097EF0EF053
:101D160007C009F008C00AF0091E0A1E094A0A2A65
:101D260009C007F00AC008F01200A3EF0EF0010E7A
:101D3600026E0450D96EDA6ADF50D5EC0EF0042A32
:101D46000450D96EDA6ADF50D8A4ACEF0EF0AEEFCD
:101D56000EF09AEF0EF0120001500302F3CF05F0D9
:101D6600F4CF06F001500402F35006260250030297
:101D7600F350062605C001F006C002F01200879057
:101D86007F9087927F9281947994869C7E9C81989D
:101D96007998819A799A86907E9082907A908292AA
:101DA6007A921200036E02B002D07B9C01D07B8C2B
:101DB60003380F0BB4EC0DF00350B4EC0DF0A00E8D
:101DC60000D0E82EFDD71200D6501F0B4009D66E64
:101DD600D688D650F00B0809D66ED5880B0ED46E71
:101DE600DC0ED36ED58E120081860E0192870F010E
:101DF6005899FC0E5817030E5F6F60946088608ECA
:101E060012001F001C001F001E001F001E001F00E6
:101E16001F001E001F001E001F007B840A0EE82EF6
:101E2600FED700D07B941200F28C0E01298B339BD7
:0A1E36001F8BF28E12001200120042
:020000040030CA
:02000000AAFF55
:020004009FFF5C
:00000001FF
