:0400000018EF00F005
:100008005F820E0133AB0BEF00F00DEF00F016EF3F
:1000180000F00B0ED46EDC0ED36E0001F04BF12B0A
:0C0028000E01339B5F921100DBEF16F01D
:100E00000054696D653A253032643A253032643ACF
:100E1000253032642044253031640054696D653AD0
:100E200020253032643A253032643A25303464006B
:100E3000446174653A253032642F253032642F25A1
:050E40003034640000E5
:100E460021EE90F010EE17F0170EDBCFE3FFE80669
:100E5600FCE20F041010D8A433EF07F035EF07F0CB
:100E660057EF07F00750D96EDA6A0950E16EE26A69
:100E7600DECFE6FFDDCFE5FF0750D96EDA6A010E59
:100E8600DBBE50EF07F0010EDB5009E1180EDE5C09
:100E9600D8A050EF07F052EF07F057EF07F00750D2
:100EA600D96EDA6ADE6ADD6A0750D96EDA6A010E31
:100EB600DBBE68EF07F0010EDB5009E13C0EDE5C9D
:100EC600D8A068EF07F06AEF07F081EF07F0075048
:100ED600D96EDA6ADE6ADD6A0850D96EDA6ADECF62
:100EE60011F0DDCF12F0010E1126000E122208506D
:100EF600D96EDA6A11C0DEFF12C0DDFF0850D96E66
:100F0600DA6A010EDBBE92EF07F0010EDB5009E153
:100F16003C0EDE5CD8A092EF07F094EF07F0ABEF43
:100F260007F00850D96EDA6ADE6ADD6A0950D96EB2
:100F3600DA6ADECF11F0DDCF12F0010E1126000EB7
:100F460012220950D96EDA6A11C0DEFF12C0DDFF27
:100F56000950D96EDA6A010EDBBEBCEF07F0010E4E
:100F6600DB5009E1180EDE5CD8A0BCEF07F0BEEF3F
:100F760007F0E7EF07F00950D96EDA6ADE6ADD6A34
:100F86000A50D96EDA6ADECF11F0DDCF12F0010E0B
:100F96001126000E12220A50D96EDA6A11C0DEFF3F
:100FA60012C0DDFF0B50D96EDA6ADECF11F0DDCF4D
:100FB60012F0010E1126000E12220B50D96EDA6ABB
:100FC60011C0DEFF12C0DDFF0B50D96EDA6A010ECA
:100FD600DBBEF8EF07F0010EDB5009E1080EDE5C20
:100FE600D8A0F8EF07F0FAEF07F001EF08F00B5082
:100FF600D96EDA6A010EDE6E000EDD6E0E50D96E07
:10100600DA6ADE50DE10D8A40BEF08F00DEF08F018
:1010160080EF08F00C50D96EDA6A030EDE18DE1087
:10102600D8A418EF08F01AEF08F080EF08F00A507D
:10103600D96EDA6A010EDBBE2BEF08F0010EDB502B
:1010460009E1190EDE5CD8A02BEF08F02DEF08F0B1
:1010560080EF08F00B50D96EDA6A070EDE18DE1044
:10106600D8A438EF08F03AEF08F080EF08F00950FE
:10107600D96EDA6A010EDBBE4AEF08F0010EDB50CC
:1010860008E1DE04D8A04AEF08F04CEF08F080EF44
:1010960008F00950D96EDA6ADECF11F0DDCF12F012
:1010A600010E1126000E12220950D96EDA6A11C0FD
:1010B600DEFF12C0DDFF0F041010D8A465EF08F0A4
:1010C60067EF08F079EF08F00750D96EDA6ADECFDD
:1010D60011F0DDCF12F0010E1126000E122207507C
:1010E600D96EDA6A11C0DEFF12C0DDFF0E50D96E6E
:1010F600DA6A010EDE6E000EDD6E0E50D96EDA6A09
:10110600DE04DE10D8A48AEF08F08CEF08F0FCEFBE
:1011160008F00C50D96EDA6A0A0EDE18DE10D8A472
:1011260097EF08F099EF08F0FCEF08F00A50D96E37
:10113600DA6A010EDBBEAAEF08F0010EDB5009E108
:10114600190EDE5CD8A0AAEF08F0ACEF08F0FCEFB1
:1011560008F00B50D96EDA6A070EDE18DE10D8A436
:10116600B7EF08F0B9EF08F0FCEF08F00950D96EB8
:10117600DA6A020EDE18DE10D8A4C4EF08F0C6EF55
:1011860008F0FCEF08F00950D96EDA6ADECF11F0EC
:10119600DDCF12F0FF0E1124136EFF0E1220146E17
:1011A6000950D96EDA6A13C0DEFF14C0DDFF0F04E2
:1011B6001010D8A4E1EF08F0E3EF08F0F7EF08F01D
:1011C6000750D96EDA6ADECF11F0DDCF12F0FF0ECE
:1011D6001124136EFF0E1220146E0750D96EDA6AB0
:1011E60013C0DEFF14C0DDFF0E50D96EDA6ADE6A68
:1011F600DD6A0D50D96EDA6ADECF11F0DDCF12F05E
:10120600030E1116000E121611501210D8A40EEF6E
:1012160009F010EF09F021EF09F00C50D96EDA6AE7
:10122600020EDE18DE10D8A41BEF09F01DEF09F040
:1012360021EF09F0000E1A6E1D0E196E0D50D96EB3
:10124600DA6ADECF01F0DDCF02F0000E046E640E26
:10125600036ED8EC14F001500210D8A435EF09F053
:1012660037EF09F05EEF09F00C50D96EDA6A020E1C
:10127600DE18DE10D8A442EF09F044EF09F05EEF65
:1012860009F00D50D96EDA6ADECF01F0DDCF02F03B
:10129600010E046E900E036ED8EC14F0015002108D
:1012A600D8B458EF09F05AEF09F05EEF09F0000ED6
:1012B6001A6E1C0E196E0A50D96EDA6A0C50E16E5F
:1012C600E26AE750020DF3CF13F0FE0E1326135019
:1012D600170FE16EE26ADE50E65CE650800A166E93
:1012E600DE50800A1658D8B07BEF09F07DEF09F082
:1012F600C2EF09F00A50D96EDA6A010EDE6E000EF0
:10130600DD6E0C50D96EDA6ADECF11F0DDCF12F049
:10131600010E1126000E12220C50D96EDA6A11C087
:10132600DEFF12C0DDFF0C50D96EDA6A010EDBBE9D
:10133600A7EF09F0010EDB5009E10D0EDE5CD8A027
:10134600A7EF09F0A9EF09F0C2EF09F00C50D96E2A
:10135600DA6A010EDE6E000EDD6E0D50D96EDA6AA7
:10136600DECF11F0DDCF12F0010E1126000E122293
:101376000D50D96EDA6A11C0DEFF12C0DDFF120011
:101386003150800B3A6E315031243C6E30AECEEF88
:1013960009F0D0EF09F0D1EF09F03C803C50D8B409
:1013A600D7EF09F0D9EF09F0EEEF09F03C28D8A401
:1013B600DFEF09F0E1EF09F0E9EF09F0000E2E6E1C
:1013C600000E2F6E000E306E000E316E308E000E47
:1013D600316EF6EF09F0000E2E6E000E2F6E000E27
:1013E600306E000E316E3550800B3B6E3A503B1816
:1013F600D8B400EF0AF002EF0AF003EF0AF03A8CD5
:10140600355035243B6E34AE0BEF0AF00DEF0AF083
:101416000EEF0AF03B803B50D8B414EF0AF016EFFB
:101426000AF02BEF0AF03B28D8A41CEF0AF01EEFB7
:101436000AF026EF0AF0000E326E000E336E000E32
:10144600346E000E356E348E000E356E33EF0AF0B4
:10145600000E326E000E336E000E346E000E356EC8
:101466003C503B5CD8B03AEF0AF03CEF0AF063EF31
:101476000AF03AAC41EF0AF043EF0AF045EF0AF002
:10148600800E3A1A3CC03DF03BC03CF03DC03BF0FC
:101496002EC03DF032C02EF03DC032F02FC03DF0E0
:1014A60033C02FF03DC033F030C03DF034C030F0D3
:1014B6003DC034F031C03DF035C031F03DC035F0AF
:1014C600000E3D6E3C503BC036F0376A365E000E6D
:1014D600375A37BE78EF0AF0375009E11A0E365CF4
:1014E600D8A078EF0AF07AEF0AF0B1EF0AF02E50A2
:1014F6002F1030103110D8A483EF0AF086EF0AF0CF
:10150600010E87EF0AF0000E3D6E000E2E6E000EE5
:101516002F6E000E306E000E316E3BC03CF0BAEFFF
:101526000AF03DA099EF0AF09BEF0AF0A1EF0AF04E
:10153600D8903D3001093D6EA3EF0AF0D8903D32B8
:101546002EA0A8EF0AF0AAEF0AF0ABEF0AF03D8E44
:101556003134313230322F322E323C2A3B503C5C11
:10156600D8A0B8EF0AF0BAEF0AF094EF0AF03ABC46
:10157600BFEF0AF0C1EF0AF001EF0BF03C50D8A420
:10158600C7EF0AF0C9EF0AF0D3EF0AF0000E2E6E8D
:10159600000E2F6E000E306E000E316E22EF0CF034
:1015A60032502E2633502F223450302235503122DD
:1015B60031A0E0EF0AF0E2EF0AF08EEF0BF03DA06B
:1015C600E7EF0AF0E9EF0AF0EFEF0AF0D8903D30C6
:1015D60001093D6EF1EF0AF0D8903D322EA0F6EFEC
:1015E6000AF0F8EF0AF0F9EF0AF03D8E31343132A5
:1015F60030322F322E323C2A8EEF0BF032502E5CD8
:1016060033502F58345030583150800A366E35508A
:10161600800A3658D8B012EF0BF014EF0BF03FEFFC
:101626000BF02E50325C366E2F503358376E3050DA
:101636003458386E31503558396EFF0E36242E6EBA
:10164600FF0E37202F6EFF0E3820306EFF0E39202A
:10165600316E800E3A1A3D6C3D50D8A435EF0BF032
:1016660037EF0BF047EF0BF0010E2E26000E2F2260
:101676003022312247EF0BF032502E5E33502F5A74
:101686003450305A3550315A2E502F1030103110F8
:10169600D8A450EF0BF052EF0BF087EF0BF03D5054
:1016A600D8A458EF0BF05AEF0BF087EF0BF0000EB3
:1016B6002E6E000E2F6E000E306E000E316E22EF73
:1016C6000CF0D8902E362F36303631363DAE6EEFD2
:1016D6000BF070EF0BF071EF0BF02E803DA076EF64
:1016E6000BF078EF0BF07CEF0BF0D8803D367EEFF9
:1016F6000BF0D8903D363C50D8B484EF0BF086EF13
:101706000BF087EF0BF03C0630AE8CEF0BF08EEF54
:101716000BF064EF0BF0000E3B6E3DAE95EF0BF059
:1017260097EF0BF0AFEF0BF03DC036F07F0E36169D
:10173600D8B4A0EF0BF0A2EF0BF0A6EF0BF0010E62
:101746003B6EAFEF0BF02EA0ABEF0BF0ADEF0BF057
:10175600AFEF0BF0A2EF0BF03B50D8B4B5EF0BF0A8
:10176600B7EF0BF0E2EF0BF0010E2E26000E2F2244
:101776003022312231A0C2EF0BF0C4EF0BF0E2EFC2
:101786000BF02EC036F02FC037F030C038F031C025
:1017960039F03934393238323732363236C02EF0F3
:1017A60037C02FF038C030F039C031F03C28D8B4FB
:1017B600DFEF0BF0E1EF0BF0E2EF0BF03C2A3C28F9
:1017C600D8B4E8EF0BF0EAEF0BF0F2EF0BF03C5079
:1017D600D8A4F0EF0BF0F2EF0BF004EF0CF0000ED4
:1017E6002E6E000E2F6E000E306E000E316E3C50C7
:1017F600D8A400EF0CF002EF0CF004EF0CF0000E92
:101806003A6E3CA009EF0CF00BEF0CF00EEF0CF06B
:10181600308E0FEF0CF0309ED8903C30316E3AAEE1
:1018260017EF0CF019EF0CF01AEF0CF0318E2EC0FA
:101836002EF02FC02FF030C030F031C031F0120042
:101846001850800B216E18501824276E17AE2EEFF5
:101856000CF030EF0CF031EF0CF027802750D8B4A5
:1018660037EF0CF039EF0CF04CEF0CF02728D8A42A
:101876003FEF0CF041EF0CF049EF0CF0000E156E47
:10188600000E166E000E176E000E186E178E54EFB1
:101896000CF0000E156E000E166E000E176E000E82
:1018A600186E1C50800B211A1C501C24266E1BAE71
:1018B6005FEF0CF061EF0CF062EF0CF02680265023
:1018C600D8B468EF0CF06AEF0CF07DEF0CF0262828
:1018D600D8A470EF0CF072EF0CF07AEF0CF0000E5B
:1018E600196E000E1A6E000E1B6E000E1C6E1B8EFD
:1018F60085EF0CF0000E196E000E1A6E000E1B6EB0
:10190600000E1C6E2650D8B48BEF0CF08DEF0CF049
:1019160095EF0CF02750D8A493EF0CF095EF0CF050
:101926009FEF0CF0000E156E000E166E000E176E71
:10193600000E186E37EF0EF01B501502F3CF2CF089
:10194600F4CF2DF02C50226E236A246A256A2D507E
:10195600286E296A2A6A2B6A1A501602F3CF2CF0CF
:10196600F4CF2DF02C502226000E232224222522ED
:101976002D502826000E29222A222B221950170222
:10198600F3CF2CF0F4CF2DF02C502226000E23227C
:10199600242225222D502826000E29222A222B22F7
:1019A60024C025F023C024F022C023F0226A195057
:1019B6001602F3CF2CF0F4CF2DF02C5022262D500A
:1019C6002322000E2422000E25221A501502F3CFE0
:1019D6002CF0F4CF2DF02C5022262D502322000E71
:1019E6002422000E252224C025F023C024F022C084
:1019F60023F0226A19501502F3CF2CF0F4CF2DF004
:101A06002C5022262D502322000E2422000E2522A1
:101A16001B501602F3CF2CF0F4CF2DF02C502826B5
:101A26002D502922000E2A22000E2B221A501702B0
:101A3600F3CF2CF0F4CF2DF02C5028262D50292250
:101A4600000E2A22000E2B221B501702F3CF2CF079
:101A5600F4CF2DF02C501D6E2D501E6E1F6A206A7D
:101A66001FC020F01EC01FF01DC01EF01D6A1D50B5
:101A760028261E5029221F502A2220502B2222C0FF
:101A86001DF023C01EF024C01FF025C020F0190E43
:101A960052EF0DF0D89020321F321E321D32E82E42
:101AA6004DEF0DF01D5028261E5029221F502A22C8
:101AB60020502B2224C025F023C024F022C023F07E
:101AC600226A265027C01DF01E6A1D26000E1E2201
:101AD600820E1D242C6EFF0E1E202D6E88EF0DF03B
:101AE600D890283629362A362B3625AE7DEF0DF0CE
:101AF6007FEF0DF080EF0DF02880D8902236233648
:101B0600243625362C06D8A02D062AAE8DEF0DF0EC
:101B16008FEF0DF073EF0DF0000E266E25AE96EFEB
:101B26000DF098EF0DF0BCEF0DF0FF0E22141D6EB8
:101B3600FF0E23141E6EFF0E24141F6E7F0E251437
:101B4600206E1D501E101F102010D8B4ADEF0DF0E2
:101B5600AFEF0DF0B3EF0DF0010E266EBCEF0DF0FA
:101B660028A0B8EF0DF0BAEF0DF0BCEF0DF0AFEF17
:101B76000DF02650D8B4C2EF0DF0C4EF0DF0E8EF2B
:101B86000DF0010E2826000E29222A222B222BA038
:101B9600CFEF0DF0D1EF0DF0E8EF0DF028C01DF0FE
:101BA60029C01EF02AC01FF02BC020F0203420329E
:101BB6001F321E321D321DC028F01EC029F01FC064
:101BC6002AF020C02BF02C4A2D2A2DBEF3EF0DF063
:101BD6002D5008E12C28D8A0F3EF0DF0F5EF0DF00D
:101BE600FFEF0DF0000E286E000E296E800E2A6E95
:101BF6007F0E2B6E2DEF0EF02DBE0CEF0EF02D503E
:101C060006E12C04D8B00AEF0EF00CEF0EF018EF38
:101C16000EF0000E286E000E296E000E2A6E000EC3
:101C26002B6E000E216E2DEF0EF02CC027F0FF0E4E
:101C36002816FF0E29167F0E2A16000E2B1627A031
:101C460027EF0EF029EF0EF02AEF0EF02A8ED8902D
:101C560027302B6E21502B1228C015F029C016F004
:101C66002AC017F02BC018F012005450D96EDA6A49
:101C7600DE50DE10D8A442EF0EF044EF0EF083EFF4
:101C86000EF049BE50EF0EF0495009E1460E485C91
:101C9600D8A050EF0EF052EF0EF083EF0EF04FBECD
:101CA6005EEF0EF04F5009E1040E4E5CD8A05EEFD9
:101CB6000EF060EF0EF083EF0EF04FBE6EEF0EF0FB
:101CC6004F5007E1080E4E5CD8B06CEF0EF06EEF89
:101CD6000EF083EF0EF05750D96EDA6A4EC0DEFF73
:101CE6004FC0DDFF5650D96EDA6A50C0DEFF51C0D4
:101CF600DDFF5450D96EDA6A010EDE6E000EDD6E1F
:101D06005550D96EDA6ADE50DE10D8A48DEF0EF08B
:101D16008FEF0EF0CEEF0EF049BE9DEF0EF049505C
:101D260007E1470E485CD8B09BEF0EF09DEF0EF032
:101D3600CEEF0EF04FBEA9EF0EF04F5009E10F0E99
:101D46004E5CD8A0A9EF0EF0ABEF0EF0CEEF0EF082
:101D56004FBEB9EF0EF04F5007E1140E4E5CD8B0EF
:101D6600B7EF0EF0B9EF0EF0CEEF0EF05950D96E78
:101D7600DA6A4EC0DEFF4FC0DDFF5850D96EDA6A10
:101D860050C0DEFF51C0DDFF5550D96EDA6A010E34
:101D9600DE6E000EDD6E000E326E000E336E340EF9
:101DA600346E440E356E000E196E000E1A6E000E5D
:101DB6001B6E3F0E1C6E5650D96EDA6ADECF60F08F
:101DC600DDCF61F05850D96EDA6ADECF62F0DDCF32
:101DD60063F05950D96EDA6ADECF01F0DDCF02F03A
:101DE600000E046E3C0E036ED2EC17F001C064F0D8
:101DF60002C065F05750D96EDA6ADECF01F0DDCF4A
:101E060002F0000E046E3C0E036ED2EC17F0015089
:101E160000016425666F02506521676F6251662571
:101E2600686F63516721696F605168256A6F6151F8
:101E360069216B6F6AC007F06BC008F0000E08BE20
:101E4600FF0E096E0A6E010EA7EC10F007C015F022
:101E560008C016F009C017F00AC018F023EC0CF001
:101E660015C02EF016C02FF017C030F018C031F094
:101E7600C3EC09F02EC03EF02FC03FF030C040F05A
:101E860031C041F08FEC13F03EC06CF03FC06DF0F6
:101E960052045310D8A452EF0FF054EF0FF05AEF3C
:101EA6000FF0010E5C245C6E000E5D205D6E5C50D2
:101EB6005D10D8B461EF0FF063EF0FF06CEF0FF029
:101EC6005C045D10D8A46AEF0FF06CEF0FF072EFB0
:101ED6000FF0180E5C245C6E000E5D205D6E5CC01B
:101EE60001F05DC002F0000E046E3C0E036ED2ECF3
:101EF60017F05A50012400016E6F5B5002206F6F7D
:101F06006C516E5D706F6D516F59716F70C048F096
:101F160071C049F01200BFEC17F0F7EC17F01BEC9C
:101F260018F022EC18F0FFEC12F007EC18F021EE96
:101F360048F010EE90F0470EDBCFE3FFE806FCE238
:101F4600000E00018B6F000E8A6F000E8D6F000E63
:101F56008C6F000E8F6F000E8E6F000ED96F000E05
:101F6600D86F000EF16F370EF06F000EDF6F3B0E6D
:101F7600DE6F000EE16F140EE06F000EE36F1F0EB2
:101F8600E26F000EE56F010EE46F000EE76F0C0EB8
:101F9600E66F070EE96FE80EE86F000EEB6F000EB6
:101FA600EA6F000EDB6F010EDA6FF0C0DCF0F1C0F5
:101FB600DDF0000EDD6F000EDC6FE0C0F0F0E1C07A
:101FC600F1F00001DA51DB11D8A4ECEF0FF0EEEFDF
:101FD6000FF0F2EF0FF0F0C0DCF0F1C0DDF0F00E24
:101FE600076EDE0E086EE00E096EE20E0A6EE40E55
:101FF6000B6EE60E0C6EE80E0D6EEA0E0E6EDAC075
:102006000FF0DBC010F023EC07F0E0C001F0E1C0F8
:1020160002F012EC14F090EC17F001C005F002C0CB
:1020260006F0E0C007F0E1C008F0ADEC16F00001E4
:10203600E15109E1100EE05DD8A024EF10F026EF83
:1020460010F028EF10F090EC17F090EC17F001C0AC
:1020560048F002C049F0E6C04AF0E7C04BF0E2C0E3
:102066004CF0E3C04DF0E0C04EF0E1C04FF0DEC0F2
:1020760050F0DFC051F0EAC052F0EBC053F08E0EC4
:10208600546ED80E556E860E566E8A0E576E880E94
:10209600586E8C0E596E0001E651020DF3CF72F0A8
:1020A600FE0E72277251900FD96EDA6ADECF5AF0A1
:1020B600DDCF5BF0E651020DF3CF73F0160E7327FA
:1020C6007351900FD96EDA6ADECF5CF0DDCF5DF02A
:1020D60038EC0EF0010E3FEC17F0740E316E010E67
:1020E600326EE0C033F0E1C034F0DEC035F0DFC060
:1020F60036F0DCC037F0DDC038F0E4C039F0E5C0BA
:102106003AF05CEC17F0740E046EA8EC17F0020EB1
:102116003FEC17F0740E316E300E326EE2C033F0C3
:10212600E3C034F0E6C035F0E7C036F0E8C037F07B
:10213600E9C038F05CEC17F0740E046EA8EC17F0EA
:10214600E4EF0FF018EF00F00F6E0F50D8B4AEEFBB
:1021560010F0B0EF10F0D2EF10F00ABEB7EF10F0AB
:10216600B5EF10F0D2EF10F007C00BF008C00CF07E
:1021760009C00DF00AC00EF00B1E0C1E0D1E0E1E21
:102186000B2A000E0C220D220E220BC011F00CC0E1
:1021960012F00DC013F00EC014F0DAEF10F007C005
:1021A60011F008C012F009C013F00AC014F007506D
:1021B600081009100A10D8A4E3EF10F0E5EF10F0AC
:1021C600EFEF10F0000E076E000E086E000E096E9F
:1021D600000E0A6E80EF11F0960E106EF9EF10F0F9
:1021E600102AD8901432133212321132000E111402
:1021F6000B6E000E12140C6E000E13140D6EFE0EF6
:1022060014140E6E0B500C100D100E10D8A40EEFF9
:1022160011F010EF11F0F3EF10F01EEF11F0102A8D
:10222600010E1126000E122213221422D890143207
:10223600133212321132000E11140B6E000E1214EC
:102246000C6E000E13140D6EFF0E14140E6E0B5052
:102256000C100D100E10D8A433EF11F035EF11F05D
:1022660012EF11F03DEF11F01006D890113612362C
:102276001336143613BE42EF11F044EF11F04CEF53
:1022860011F0020E10604AEF11F04CEF11F037EF2B
:1022960011F010B051EF11F053EF11F054EF11F0AF
:1022A600139ED890103210C00BF00C6A0D6A0E6A9D
:1022B6000BC00EF00D6A0C6A0B6A0B5011120C5013
:1022C60012120D5013120E5014120F50D8B46EEF96
:1022D60011F070EF11F078EF11F00ABE77EF11F000
:1022E60075EF11F078EF11F0148E11C007F012C0DF
:1022F60008F013C009F014C00AF012002350D96E7A
:10230600DA6ADFCFF6FF0E0EF76E000EF86E0800E3
:10231600F550250AD8A492EF11F094EF11F030EFA2
:1023260012F02350D96EDA6ADF2A000E0001ED6F33
:10233600000EEC6FECC05EF0EE69EF69000E2B6EDE
:10234600CBEF11F05E822350D96EDA6ADF2ACBEF2B
:1023560011F0010E2B6ECBEF11F02350D96EDA6A15
:10236600DFCFF6FF0E0EF76E000EF86E0800F55082
:10237600256E266A2650000AD8B4C4EF11F0ACEFD9
:1023860011F02550300AD8B4A5EF11F0ACEF11F0DA
:102396002B50D8B4D1EF11F0D3EF11F0B0EF11F00C
:1023A60023C007F024C008F030EC15F007C0ECF0AD
:1023B60008C0EDF00001EDBFE5EF11F0E3EF11F01D
:1023C600EAEF11F05E80EC6DED1FD8B0ED2B2350D7
:1023D600D96EDA6ADF502C6E2CC0F6FF0E0EF76E41
:1023E600000EF86E0800F550640AD8B4FDEF11F03F
:1023F600FFEF11F00FEF12F02CC0F6FF0E0EF76E86
:10240600000EF86E0800F550690AD8A40DEF12F018
:102416000FEF12F02AEF12F02450D96EDA6A020E8C
:10242600DF26DF5CD96EDA6ADECF27F0DECF28F052
:102436002350D96EDA6A2C28DF6E22C017F027C027
:1024460018F028C019F044EC12F043EF12F02350B4
:10245600D96EDA6ADF2A43EF12F02350D96EDA6AB0
:10246600DFCFF6FF0E0EF76E000EF86E0800F55081
:10247600016E026A22C003F087EC15F02AEF12F013
:102486001200010E1C6E19BE4BEF12F04EEF12F049
:10249600010E4FEF12F0000E1F6EECC01DF0EDC0E6
:1024A6001EF01F50D8B45AEF12F05CEF12F073EF23
:1024B60012F01D06D8A01E061F50D8A465EF12F014
:1024C60067EF12F06DEF12F0000E1B6E2B0E1A6EF8
:1024D60071EF12F0000E1B6E2D0E1A6E1AC01FF051
:1024E600000E216E1F0E206E000E0101C76FABEFAE
:1024F60012F02006D8A02106A80E2024D96E010EBF
:102506002120DA6E18C001F019C002F0000E046E28
:102516000A0E036ED8EC14F001C007F002C008F0F2
:1025260076EC17F00750300FDF6E000E1C6E1D069E
:10253600D8A01E0618C001F019C002F0000E046EE5
:102546000A0E036E76EC14F001C018F002C019F002
:1025560021BEB6EF12F0215008E12004D8A0B6EF54
:1025660012F0B8EF12F0DDEF12F018501910D8A4DF
:10257600BFEF12F0C1EF12F07CEF12F01C50D8A49E
:10258600C7EF12F0C9EF12F07CEF12F01EBED4EFC7
:1025960012F01E5008E11D04D8A0D4EF12F0D6EFB9
:1025A60012F0DDEF12F05EB2DBEF12F0DDEF12F0AB
:1025B6007CEF12F01F50D8B4E3EF12F0E5EF12F003
:1025C600F0EF12F02006D8A02106A80E2024D96E1E
:1025D600010E2120DA6E1FC0DFFF17C00FF0A80E14
:1025E6002024106E010E2120116E1DC012F01EC097
:1025F60013F030EC16F0120082967A9682947A9452
:1026060085967D9685927D9283947B94839C7B9C14
:102616000D0E056E2D0E046ED80EE82EFED7042E76
:10262600FCD7052EFAD7030E79EC16F0680E046E69
:10263600E40EE82EFED7042EFCD700D0030E79EC6C
:1026460016F0040E046E1C0EE82EFED7042EFCD7E0
:1026560000D0030E79EC16F0040E046E1C0EE82E64
:10266600FED7042EFCD700D0020E79EC16F0040E2D
:10267600046E1C0EE82EFED7042EFCD700D0000EEA
:10268600026E2C0EE5EC17F0E40E00D000D0E82E1A
:10269600FCD700D000D0000E026E080EE5EC17F055
:1026A600090E056E1E0E046EE40EE82EFED7042EED
:1026B600FCD7052EFAD700D0000E026E010EE5EC0F
:1026C60017F0680E046EE40EE82EFED7042EFCD733
:1026D60000D0000E026E060EE5EC17F0090E056E30
:1026E6001E0E046EE40EE82EFED7042EFCD7052E31
:1026F600FAD700D0000E026E0C0EE5EC17F0090EAC
:10270600056E1E0E046EE40EE82EFED7042EFCD7D0
:10271600052EFAD700D0120040344134476E475098
:10272600D8A498EF13F09AEF13F0A4EF13F0000E6D
:102736003E6E000E3F6E000E406E000E416E11EFB3
:1027460014F03EC042F03FC043F040C044F041C0E8
:1027560045F0200EB4EF13F0D890453244324332A0
:102766004232E82EAFEF13F04250466E408EFF0E17
:102776003E16FF0E3F16FF0E4016000E4116960E31
:10278600475E47BECBEF13F0C9EF13F0E1EF13F04E
:102796004750800A970FD8B0D3EF13F0D5EF13F058
:1027A600D7EF13F09AEF13F0D890413240323F3210
:1027B6003E32473ED7EF13F0F9EF13F01F0E476492
:1027C600E7EF13F0E9EF13F0F1EF13F09AEF13F0E0
:1027D600D8903E363F364036413647064750D8A455
:1027E600F7EF13F0F9EF13F0EBEF13F04650D8B410
:1027F600FFEF13F001EF14F009EF14F0411E401E35
:102806003F1E3E6C000E3F22402241223EC03EF05B
:102816003FC03FF040C040F041C041F0120001A06F
:1028260017EF14F019EF14F01CEF14F07F801DEF72
:1028360014F07F9001A222EF14F024EF14F027EF9A
:1028460014F07F8228EF14F07F9201A42DEF14F08C
:102856002FEF14F032EF14F0798433EF14F07994FB
:1028660001A638EF14F03AEF14F03DEF14F07E8C29
:102876003EEF14F07E9C01A843EF14F045EF14F0F0
:1028860048EF14F0798849EF14F0799801AA4EEFD1
:1028960014F050EF14F053EF14F0798A54EF14F05B
:1028A600799A01AC59EF14F05BEF14F05EEF14F077
:1028B6007E805FEF14F07E9001AE64EF14F066EF59
:1028C60014F069EF14F07A806AEF14F07A9002A09F
:1028D6006FEF14F071EF14F074EF14F07A8275EF65
:1028E60014F07A921200000E066E04BE7FEF14F00A
:1028F6007DEF14F085EF14F0036C041ED8B0042AA3
:10290600010E066E02BE8CEF14F08AEF14F092EF01
:1029160014F0016C021ED8B0022A010E061A000E2F
:10292600086E000E076E03500410D8B49DEF14F025
:102936009FEF14F0C7EF14F0010E056EA7EF14F029
:10294600D89003360436052A04AEACEF14F0AEEF89
:1029560014F0A3EF14F0D890073608360350015C44
:1029660004500258D8A0BAEF14F0BCEF14F0C1EF2F
:1029760014F00350015E0450025A0780D8900432C6
:102986000332052EAEEF14F00650D8B4CDEF14F096
:10299600CFEF14F0D3EF14F0076C081ED8B0082A56
:1029A60007C001F008C002F01200000E066E02BE5B
:1029B600E1EF14F0DFEF14F0E7EF14F0016C021E04
:1029C600D8B0022A010E066E04BEEEEF14F0ECEF4C
:1029D60014F0F2EF14F0036C041ED8B0042A03506E
:1029E6000410D8B4F9EF14F0FBEF14F01FEF15F054
:1029F600010E056E03EF15F0D89003360436052A4E
:102A060004AE08EF15F00AEF15F0FFEF14F00350CF
:102A1600015C04500258D8A013EF15F015EF15F01D
:102A260019EF15F00350015E0450025AD890043293
:102A36000332052E0AEF15F00650D8B425EF15F02F
:102A460027EF15F02BEF15F0016C021ED8B0022A05
:102A560001C001F002C002F01200000E0B6E000E63
:102A66000A6E0750D96EDA6ADFCFF6FF0E0EF76EE2
:102A7600000EF86E0800F5502A0AD8A445EF15F0A6
:102A860047EF15F06DEF15F00750D96EDA6ADF2AB9
:102A96000850D96EDA6A020EDF26DF5CD96EDA6A72
:102AA600DECF0AF0DECF0BF082EF15F00AC001F0A0
:102AB6000BC002F0000E046E0A0E036ED2EC17F085
:102AC600095001240A6E000E02200B6E0750D96EC3
:102AD600DA6ADF2A0750D96EDA6ADFCFF6FF0E0E02
:102AE600F76E000EF86E0800F550D00F096E090E4D
:102AF600096480EF15F082EF15F059EF15F00AC062
:102B060007F00BC008F012000350D8B48DEF15F093
:102B16008FEF15F097EF15F00350D8A495EF15F049
:102B260097EF15F09CEF15F0015025EC18F0DBEF50
:102B360015F00350D96EDA6A0A0ED926DE50DE1079
:102B4600D8B4A8EF15F0AAEF15F0C3EF15F00350AF
:102B5600D96EDA6A0A0ED9260350E16EE26A030ECE
:102B6600E126DE50E65CE650800A086EDE50800AFA
:102B76000858D8B0C1EF15F0C3EF15F0DBEF15F02C
:102B86000350D96EDA6A030ED926DF50046E03505D
:102B9600D96EDA6ADF500424D96EDA6A01C0DFFF23
:102BA6000350D96EDA6A030ED926DE2A000EDD221C
:102BB60012001F001C001F001E001F001E001F0029
:102BC6001F001E001F001E001F0000000000000066
:102BD6000000170000000000000017001700170093
:102BE600170009000D00080001003900010005006A
:102BF600030037002F002E00380009000D000800E2
:102C06000100390001000500030037002F002E00E7
:102C1600380000000000000000001700000000005F
:102C2600000017001700170017001F001C001F00E8
:102C36001E001F001E001F001F001E001F001E009A
:102C46001F001F001C001F001E001F001E001F008B
:102C56001F001E001F001E001F005EA035EF16F0AD
:102C660037EF16F03FEF16F010C009F011C00AF06A
:102C76000FC00BF01FEC17F013BE46EF16F044EF33
:102C860016F04AEF16F0000E136E000E126E000ECE
:102C9600166E000E156E5AEF16F0000E026E200E1E
:102CA600016E0FC003F087EC15F0154A162A125074
:102CB600155C1650800A146E1350800A1458D8A05A
:102CC60067EF16F069EF16F050EF16F05EB06EEF94
:102CD60016F070EF16F078EF16F010C009F011C07C
:102CE6000AF00FC00BF01FEC17F01200016E01A0E6
:102CF6007FEF16F081EF16F084EF16F07A8685EFF7
:102D060016F07A9601A28AEF16F08CEF16F08FEF86
:102D160016F07A8490EF16F07A9401A495EF16F0E7
:102D260097EF16F09AEF16F07D869BEF16F07D96DC
:102D360001A6A0EF16F0A2EF16F0A5EF16F07D8221
:102D4600A6EF16F07D9214EC18F01A0EE82EFED7B8
:102D560000D0120006BEBBEF16F0065007E1470E84
:102D6600055CD8B0B9EF16F0BBEF16F0D9EF16F048
:102D760008BEC6EF16F0085008E10704D8A0C6EF53
:102D860016F0C8EF16F0D6EF16F008BED4EF16F020
:102D9600085009E1050E075CD8A0D4EF16F0D6EF6F
:102DA60016F0D9EF16F08086DAEF16F0809612004C
:102DB600B80EF66E2B0EF76E000EF86E01EE00F0F2
:102DC60010EEA8F00900F5CFEEFFE550E150FAE16C
:102DD60001EEA8F0200EEE6AE806FDE10001F16BB7
:102DE600F06BEF6BEE6BED6BEC6B5E6A5F905F9278
:102DF60000018EEF0FF02EC030F00AEF17F02DC055
:102E060022F0300E236E2FC024F081EC11F030C07A
:102E1600F6FF0E0EF76E000EF86E0800F55000096C
:102E2600D8A418EF17F01AEF17F002EF17F0000EFC
:102E36002E6E000E2D6E1200000E0E6E000E0D6E22
:102E46002EEF17F00CC001F0026A0BC003F087ECFE
:102E560015F00D4A0E2A0D500924D96E0E500A207F
:102E6600DA6EDF500C6E0C50D8A43CEF17F03EEF34
:102E760017F025EF17F01200046E020E0418D8A4FE
:102E860047EF17F049EF17F04EEF17F0000E026EFE
:102E9600C00EE5EC17F00404D8A454EF17F056EF73
:102EA60017F05BEF17F0000E026E800EE5EC17F0E0
:102EB6001200330E3B6E31C03CF0000E406E000E29
:102EC6003F6E000E476E000E466E3C0E2D6E32C0F3
:102ED6002EF03B0E2F6EFEEC16F031503F24D96ECD
:102EE600DA6ADF6A120008BE7BEF17F07DEF17F093
:102EF60083EF17F007C007F008C008F08FEF17F050
:102F060007C009F008C00AF0091E0A1E094A0A2A63
:102F160009C007F00AC008F01200608060B096EFA2
:102F260017F098EF17F091EF17F064CF03F0046AEB
:102F36000350FF08036E0450D8A0E82A0008046E68
:102F460003C001F004C002F01200B3EF17F0010E47
:102F5600026E0450D96EDA6ADF50E5EC17F0042AE7
:102F66000450D96EDA6ADF50D8A4BCEF17F0BEEF72
:102F760017F0AAEF17F0120087907F9087927F9242
:102F860081947994869C7E9C81987998819A799A85
:102F960086907E9082907A9082927A921200015068
:102FA6000302F3CF05F0F4CF06F001500402F3500C
:102FB600062602500302F350062605C001F006C09D
:102FC60002F01200036E02B002D07B9C01D07B8C13
:102FD60003380F0B79EC16F0035079EC16F0A00EBF
:102FE60000D0E82EFDD71200D6501F0B4009D66E32
:102FF600D688D650F00B0809D66ED5880B0ED46E3F
:10300600DC0ED36ED58E120081860E0192870F01DB
:103016005899FC0E5817030E5F6F60946088608E97
:1030260012007B840A0EE82EFED700D07B94120095
:10303600F28C0E01298B339B1F8BF28E1200889621
:063046008096120012004A
:020000040030CA
:02000000AAFF55
:020004009FFF5C
:00000001FF
