:0400000018EF00F005
:100008005F820E0133AB0BEF00F00DEF00F016EF3F
:1000180000F00B0ED46EDC0ED36E0001F04BF12B0A
:0C0028000E01339B5F921100CDEF16F02B
:100E00000054696D653A253032643A253032643ACF
:100E1000253032642044253031640054696D653AD0
:100E200020253032643A253032643A25303464006B
:100E3000446174653A253032642F253032642F25A1
:050E40003034640000E5
:100E460021EE90F010EE17F0170EDBCFE3FFE80669
:100E5600FCE20F041010D8A433EF07F035EF07F0CB
:100E660057EF07F00750D96EDA6A0950E16EE26A69
:100E7600DECFE6FFDDCFE5FF0750D96EDA6A010E59
:100E8600DBBE50EF07F0010EDB5009E1180EDE5C09
:100E9600D8A050EF07F052EF07F057EF07F00750D2
:100EA600D96EDA6ADE6ADD6A0750D96EDA6A010E31
:100EB600DBBE68EF07F0010EDB5009E13C0EDE5C9D
:100EC600D8A068EF07F06AEF07F081EF07F0075048
:100ED600D96EDA6ADE6ADD6A0850D96EDA6ADECF62
:100EE60011F0DDCF12F0010E1126000E122208506D
:100EF600D96EDA6A11C0DEFF12C0DDFF0850D96E66
:100F0600DA6A010EDBBE92EF07F0010EDB5009E153
:100F16003C0EDE5CD8A092EF07F094EF07F0ABEF43
:100F260007F00850D96EDA6ADE6ADD6A0950D96EB2
:100F3600DA6ADECF11F0DDCF12F0010E1126000EB7
:100F460012220950D96EDA6A11C0DEFF12C0DDFF27
:100F56000950D96EDA6A010EDBBEBCEF07F0010E4E
:100F6600DB5009E1180EDE5CD8A0BCEF07F0BEEF3F
:100F760007F0E7EF07F00950D96EDA6ADE6ADD6A34
:100F86000A50D96EDA6ADECF11F0DDCF12F0010E0B
:100F96001126000E12220A50D96EDA6A11C0DEFF3F
:100FA60012C0DDFF0B50D96EDA6ADECF11F0DDCF4D
:100FB60012F0010E1126000E12220B50D96EDA6ABB
:100FC60011C0DEFF12C0DDFF0B50D96EDA6A010ECA
:100FD600DBBEF8EF07F0010EDB5009E1080EDE5C20
:100FE600D8A0F8EF07F0FAEF07F001EF08F00B5082
:100FF600D96EDA6A010EDE6E000EDD6E0E50D96E07
:10100600DA6ADE50DE10D8A40BEF08F00DEF08F018
:1010160080EF08F00C50D96EDA6A030EDE18DE1087
:10102600D8A418EF08F01AEF08F080EF08F00A507D
:10103600D96EDA6A010EDBBE2BEF08F0010EDB502B
:1010460009E1190EDE5CD8A02BEF08F02DEF08F0B1
:1010560080EF08F00B50D96EDA6A070EDE18DE1044
:10106600D8A438EF08F03AEF08F080EF08F00950FE
:10107600D96EDA6A010EDBBE4AEF08F0010EDB50CC
:1010860008E1DE04D8A04AEF08F04CEF08F080EF44
:1010960008F00950D96EDA6ADECF11F0DDCF12F012
:1010A600010E1126000E12220950D96EDA6A11C0FD
:1010B600DEFF12C0DDFF0F041010D8A465EF08F0A4
:1010C60067EF08F079EF08F00750D96EDA6ADECFDD
:1010D60011F0DDCF12F0010E1126000E122207507C
:1010E600D96EDA6A11C0DEFF12C0DDFF0E50D96E6E
:1010F600DA6A010EDE6E000EDD6E0E50D96EDA6A09
:10110600DE04DE10D8A48AEF08F08CEF08F0FCEFBE
:1011160008F00C50D96EDA6A0A0EDE18DE10D8A472
:1011260097EF08F099EF08F0FCEF08F00A50D96E37
:10113600DA6A010EDBBEAAEF08F0010EDB5009E108
:10114600190EDE5CD8A0AAEF08F0ACEF08F0FCEFB1
:1011560008F00B50D96EDA6A070EDE18DE10D8A436
:10116600B7EF08F0B9EF08F0FCEF08F00950D96EB8
:10117600DA6A020EDE18DE10D8A4C4EF08F0C6EF55
:1011860008F0FCEF08F00950D96EDA6ADECF11F0EC
:10119600DDCF12F0FF0E1124136EFF0E1220146E17
:1011A6000950D96EDA6A13C0DEFF14C0DDFF0F04E2
:1011B6001010D8A4E1EF08F0E3EF08F0F7EF08F01D
:1011C6000750D96EDA6ADECF11F0DDCF12F0FF0ECE
:1011D6001124136EFF0E1220146E0750D96EDA6AB0
:1011E60013C0DEFF14C0DDFF0E50D96EDA6ADE6A68
:1011F600DD6A0D50D96EDA6ADECF11F0DDCF12F05E
:10120600030E1116000E121611501210D8A40EEF6E
:1012160009F010EF09F021EF09F00C50D96EDA6AE7
:10122600020EDE18DE10D8A41BEF09F01DEF09F040
:1012360021EF09F0000E1A6E1D0E196E0D50D96EB3
:10124600DA6ADECF01F0DDCF02F0000E046E640E26
:10125600036ECAEC14F001500210D8A435EF09F061
:1012660037EF09F05EEF09F00C50D96EDA6A020E1C
:10127600DE18DE10D8A442EF09F044EF09F05EEF65
:1012860009F00D50D96EDA6ADECF01F0DDCF02F03B
:10129600010E046E900E036ECAEC14F0015002109B
:1012A600D8B458EF09F05AEF09F05EEF09F0000ED6
:1012B6001A6E1C0E196E0A50D96EDA6A0C50E16E5F
:1012C600E26AE750020DF3CF13F0FE0E1326135019
:1012D600170FE16EE26ADE50E65CE650800A166E93
:1012E600DE50800A1658D8B07BEF09F07DEF09F082
:1012F600C2EF09F00A50D96EDA6A010EDE6E000EF0
:10130600DD6E0C50D96EDA6ADECF11F0DDCF12F049
:10131600010E1126000E12220C50D96EDA6A11C087
:10132600DEFF12C0DDFF0C50D96EDA6A010EDBBE9D
:10133600A7EF09F0010EDB5009E10D0EDE5CD8A027
:10134600A7EF09F0A9EF09F0C2EF09F00C50D96E2A
:10135600DA6A010EDE6E000EDD6E0D50D96EDA6AA7
:10136600DECF11F0DDCF12F0010E1126000E122293
:101376000D50D96EDA6A11C0DEFF12C0DDFF120011
:101386003150800B3A6E315031243C6E30AECEEF88
:1013960009F0D0EF09F0D1EF09F03C803C50D8B409
:1013A600D7EF09F0D9EF09F0EEEF09F03C28D8A401
:1013B600DFEF09F0E1EF09F0E9EF09F0000E2E6E1C
:1013C600000E2F6E000E306E000E316E308E000E47
:1013D600316EF6EF09F0000E2E6E000E2F6E000E27
:1013E600306E000E316E3550800B3B6E3A503B1816
:1013F600D8B400EF0AF002EF0AF003EF0AF03A8CD5
:10140600355035243B6E34AE0BEF0AF00DEF0AF083
:101416000EEF0AF03B803B50D8B414EF0AF016EFFB
:101426000AF02BEF0AF03B28D8A41CEF0AF01EEFB7
:101436000AF026EF0AF0000E326E000E336E000E32
:10144600346E000E356E348E000E356E33EF0AF0B4
:10145600000E326E000E336E000E346E000E356EC8
:101466003C503B5CD8B03AEF0AF03CEF0AF063EF31
:101476000AF03AAC41EF0AF043EF0AF045EF0AF002
:10148600800E3A1A3CC03DF03BC03CF03DC03BF0FC
:101496002EC03DF032C02EF03DC032F02FC03DF0E0
:1014A60033C02FF03DC033F030C03DF034C030F0D3
:1014B6003DC034F031C03DF035C031F03DC035F0AF
:1014C600000E3D6E3C503BC036F0376A365E000E6D
:1014D600375A37BE78EF0AF0375009E11A0E365CF4
:1014E600D8A078EF0AF07AEF0AF0B1EF0AF02E50A2
:1014F6002F1030103110D8A483EF0AF086EF0AF0CF
:10150600010E87EF0AF0000E3D6E000E2E6E000EE5
:101516002F6E000E306E000E316E3BC03CF0BAEFFF
:101526000AF03DA099EF0AF09BEF0AF0A1EF0AF04E
:10153600D8903D3001093D6EA3EF0AF0D8903D32B8
:101546002EA0A8EF0AF0AAEF0AF0ABEF0AF03D8E44
:101556003134313230322F322E323C2A3B503C5C11
:10156600D8A0B8EF0AF0BAEF0AF094EF0AF03ABC46
:10157600BFEF0AF0C1EF0AF001EF0BF03C50D8A420
:10158600C7EF0AF0C9EF0AF0D3EF0AF0000E2E6E8D
:10159600000E2F6E000E306E000E316E22EF0CF034
:1015A60032502E2633502F223450302235503122DD
:1015B60031A0E0EF0AF0E2EF0AF08EEF0BF03DA06B
:1015C600E7EF0AF0E9EF0AF0EFEF0AF0D8903D30C6
:1015D60001093D6EF1EF0AF0D8903D322EA0F6EFEC
:1015E6000AF0F8EF0AF0F9EF0AF03D8E31343132A5
:1015F60030322F322E323C2A8EEF0BF032502E5CD8
:1016060033502F58345030583150800A366E35508A
:10161600800A3658D8B012EF0BF014EF0BF03FEFFC
:101626000BF02E50325C366E2F503358376E3050DA
:101636003458386E31503558396EFF0E36242E6EBA
:10164600FF0E37202F6EFF0E3820306EFF0E39202A
:10165600316E800E3A1A3D6C3D50D8A435EF0BF032
:1016660037EF0BF047EF0BF0010E2E26000E2F2260
:101676003022312247EF0BF032502E5E33502F5A74
:101686003450305A3550315A2E502F1030103110F8
:10169600D8A450EF0BF052EF0BF087EF0BF03D5054
:1016A600D8A458EF0BF05AEF0BF087EF0BF0000EB3
:1016B6002E6E000E2F6E000E306E000E316E22EF73
:1016C6000CF0D8902E362F36303631363DAE6EEFD2
:1016D6000BF070EF0BF071EF0BF02E803DA076EF64
:1016E6000BF078EF0BF07CEF0BF0D8803D367EEFF9
:1016F6000BF0D8903D363C50D8B484EF0BF086EF13
:101706000BF087EF0BF03C0630AE8CEF0BF08EEF54
:101716000BF064EF0BF0000E3B6E3DAE95EF0BF059
:1017260097EF0BF0AFEF0BF03DC036F07F0E36169D
:10173600D8B4A0EF0BF0A2EF0BF0A6EF0BF0010E62
:101746003B6EAFEF0BF02EA0ABEF0BF0ADEF0BF057
:10175600AFEF0BF0A2EF0BF03B50D8B4B5EF0BF0A8
:10176600B7EF0BF0E2EF0BF0010E2E26000E2F2244
:101776003022312231A0C2EF0BF0C4EF0BF0E2EFC2
:101786000BF02EC036F02FC037F030C038F031C025
:1017960039F03934393238323732363236C02EF0F3
:1017A60037C02FF038C030F039C031F03C28D8B4FB
:1017B600DFEF0BF0E1EF0BF0E2EF0BF03C2A3C28F9
:1017C600D8B4E8EF0BF0EAEF0BF0F2EF0BF03C5079
:1017D600D8A4F0EF0BF0F2EF0BF004EF0CF0000ED4
:1017E6002E6E000E2F6E000E306E000E316E3C50C7
:1017F600D8A400EF0CF002EF0CF004EF0CF0000E92
:101806003A6E3CA009EF0CF00BEF0CF00EEF0CF06B
:10181600308E0FEF0CF0309ED8903C30316E3AAEE1
:1018260017EF0CF019EF0CF01AEF0CF0318E2EC0FA
:101836002EF02FC02FF030C030F031C031F0120042
:101846001850800B216E18501824276E17AE2EEFF5
:101856000CF030EF0CF031EF0CF027802750D8B4A5
:1018660037EF0CF039EF0CF04CEF0CF02728D8A42A
:101876003FEF0CF041EF0CF049EF0CF0000E156E47
:10188600000E166E000E176E000E186E178E54EFB1
:101896000CF0000E156E000E166E000E176E000E82
:1018A600186E1C50800B211A1C501C24266E1BAE71
:1018B6005FEF0CF061EF0CF062EF0CF02680265023
:1018C600D8B468EF0CF06AEF0CF07DEF0CF0262828
:1018D600D8A470EF0CF072EF0CF07AEF0CF0000E5B
:1018E600196E000E1A6E000E1B6E000E1C6E1B8EFD
:1018F60085EF0CF0000E196E000E1A6E000E1B6EB0
:10190600000E1C6E2650D8B48BEF0CF08DEF0CF049
:1019160095EF0CF02750D8A493EF0CF095EF0CF050
:101926009FEF0CF0000E156E000E166E000E176E71
:10193600000E186E37EF0EF01B501502F3CF2CF089
:10194600F4CF2DF02C50226E236A246A256A2D507E
:10195600286E296A2A6A2B6A1A501602F3CF2CF0CF
:10196600F4CF2DF02C502226000E232224222522ED
:101976002D502826000E29222A222B221950170222
:10198600F3CF2CF0F4CF2DF02C502226000E23227C
:10199600242225222D502826000E29222A222B22F7
:1019A60024C025F023C024F022C023F0226A195057
:1019B6001602F3CF2CF0F4CF2DF02C5022262D500A
:1019C6002322000E2422000E25221A501502F3CFE0
:1019D6002CF0F4CF2DF02C5022262D502322000E71
:1019E6002422000E252224C025F023C024F022C084
:1019F60023F0226A19501502F3CF2CF0F4CF2DF004
:101A06002C5022262D502322000E2422000E2522A1
:101A16001B501602F3CF2CF0F4CF2DF02C502826B5
:101A26002D502922000E2A22000E2B221A501702B0
:101A3600F3CF2CF0F4CF2DF02C5028262D50292250
:101A4600000E2A22000E2B221B501702F3CF2CF079
:101A5600F4CF2DF02C501D6E2D501E6E1F6A206A7D
:101A66001FC020F01EC01FF01DC01EF01D6A1D50B5
:101A760028261E5029221F502A2220502B2222C0FF
:101A86001DF023C01EF024C01FF025C020F0190E43
:101A960052EF0DF0D89020321F321E321D32E82E42
:101AA6004DEF0DF01D5028261E5029221F502A22C8
:101AB60020502B2224C025F023C024F022C023F07E
:101AC600226A265027C01DF01E6A1D26000E1E2201
:101AD600820E1D242C6EFF0E1E202D6E88EF0DF03B
:101AE600D890283629362A362B3625AE7DEF0DF0CE
:101AF6007FEF0DF080EF0DF02880D8902236233648
:101B0600243625362C06D8A02D062AAE8DEF0DF0EC
:101B16008FEF0DF073EF0DF0000E266E25AE96EFEB
:101B26000DF098EF0DF0BCEF0DF0FF0E22141D6EB8
:101B3600FF0E23141E6EFF0E24141F6E7F0E251437
:101B4600206E1D501E101F102010D8B4ADEF0DF0E2
:101B5600AFEF0DF0B3EF0DF0010E266EBCEF0DF0FA
:101B660028A0B8EF0DF0BAEF0DF0BCEF0DF0AFEF17
:101B76000DF02650D8B4C2EF0DF0C4EF0DF0E8EF2B
:101B86000DF0010E2826000E29222A222B222BA038
:101B9600CFEF0DF0D1EF0DF0E8EF0DF028C01DF0FE
:101BA60029C01EF02AC01FF02BC020F0203420329E
:101BB6001F321E321D321DC028F01EC029F01FC064
:101BC6002AF020C02BF02C4A2D2A2DBEF3EF0DF063
:101BD6002D5008E12C28D8A0F3EF0DF0F5EF0DF00D
:101BE600FFEF0DF0000E286E000E296E800E2A6E95
:101BF6007F0E2B6E2DEF0EF02DBE0CEF0EF02D503E
:101C060006E12C04D8B00AEF0EF00CEF0EF018EF38
:101C16000EF0000E286E000E296E000E2A6E000EC3
:101C26002B6E000E216E2DEF0EF02CC027F0FF0E4E
:101C36002816FF0E29167F0E2A16000E2B1627A031
:101C460027EF0EF029EF0EF02AEF0EF02A8ED8902D
:101C560027302B6E21502B1228C015F029C016F004
:101C66002AC017F02BC018F012005450D96EDA6A49
:101C7600DE50DE10D8A442EF0EF044EF0EF083EFF4
:101C86000EF049BE50EF0EF0495009E1460E485C91
:101C9600D8A050EF0EF052EF0EF083EF0EF04FBECD
:101CA6005EEF0EF04F5009E1040E4E5CD8A05EEFD9
:101CB6000EF060EF0EF083EF0EF04FBE6EEF0EF0FB
:101CC6004F5007E1080E4E5CD8B06CEF0EF06EEF89
:101CD6000EF083EF0EF05750D96EDA6A4EC0DEFF73
:101CE6004FC0DDFF5650D96EDA6A50C0DEFF51C0D4
:101CF600DDFF5450D96EDA6A010EDE6E000EDD6E1F
:101D06005550D96EDA6ADE50DE10D8A48DEF0EF08B
:101D16008FEF0EF0CEEF0EF049BE9DEF0EF049505C
:101D260007E1470E485CD8B09BEF0EF09DEF0EF032
:101D3600CEEF0EF04FBEA9EF0EF04F5009E10F0E99
:101D46004E5CD8A0A9EF0EF0ABEF0EF0CEEF0EF082
:101D56004FBEB9EF0EF04F5007E1140E4E5CD8B0EF
:101D6600B7EF0EF0B9EF0EF0CEEF0EF05950D96E78
:101D7600DA6A4EC0DEFF4FC0DDFF5850D96EDA6A10
:101D860050C0DEFF51C0DDFF5550D96EDA6A010E34
:101D9600DE6E000EDD6E000E326E000E336E340EF9
:101DA600346E440E356E000E196E000E1A6E000E5D
:101DB6001B6E3F0E1C6E5650D96EDA6ADECF60F08F
:101DC600DDCF61F05850D96EDA6ADECF62F0DDCF32
:101DD60063F05950D96EDA6ADECF01F0DDCF02F03A
:101DE600000E046E3C0E036EC4EC17F001C064F0E6
:101DF60002C065F05750D96EDA6ADECF01F0DDCF4A
:101E060002F0000E046E3C0E036EC4EC17F0015097
:101E160000016425666F02506521676F6251662571
:101E2600686F63516721696F605168256A6F6151F8
:101E360069216B6F6AC007F06BC008F0000E08BE20
:101E4600FF0E096E0A6E010E99EC10F007C015F030
:101E560008C016F009C017F00AC018F023EC0CF001
:101E660015C02EF016C02FF017C030F018C031F094
:101E7600C3EC09F02EC03EF02FC03FF030C040F05A
:101E860031C041F081EC13F03EC06CF03FC06DF004
:101E960052045310D8A452EF0FF054EF0FF05AEF3C
:101EA6000FF0010E5C245C6E000E5D205D6E5C50D2
:101EB6005D10D8B461EF0FF063EF0FF06CEF0FF029
:101EC6005C045D10D8A46AEF0FF06CEF0FF072EFB0
:101ED6000FF0180E5C245C6E000E5D205D6E5CC01B
:101EE60001F05DC002F0000E046E3C0E036EC4EC01
:101EF60017F05A50012400016E6F5B5002206F6F7D
:101F06006C516E5D706F6D516F59716F70C048F096
:101F160071C049F01200B1EC17F0E9EC17F00DECC6
:101F260018F014EC18F0F1EC12F0F9EC17F021EEC1
:101F360048F010EE92F0470EDBCFE3FFE806FCE236
:101F4600000E00018B6F000E8A6F000E8D6F000E63
:101F56008C6F000E8F6F000E8E6F000E916F000E4D
:101F6600906F000EF16F370EF06F000EDF6F3B0EB5
:101F7600DE6F000EE16F140EE06F000EE36F1F0EB2
:101F8600E26F000EE56F010EE46F000EE76F0C0EB8
:101F9600E66F070EE96FE80EE86F000EEB6F000EB6
:101FA600EA6F000EDB6F010EDA6FF0C0DCF0F1C0F5
:101FB600DDF0000EDD6F000EDC6FE0C0F0F0E1C07A
:101FC600F1F00001DA51DB11D8A4ECEF0FF0EEEFDF
:101FD6000FF0F2EF0FF0F0C0DCF0F1C0DDF0F00E24
:101FE600076EDE0E086EE00E096EE20E0A6EE40E55
:101FF6000B6EE60E0C6EE80E0D6EEA0E0E6EDAC075
:102006000FF0DBC010F023EC07F0E0C001F0E1C0F8
:1020160002F004EC14F082EC17F001C005F002C0E7
:1020260006F0E0C007F0E1C008F09FEC16F082EC85
:1020360017F001C048F002C049F0E6C04AF0E7C018
:102046004BF0E2C04CF0E3C04DF0E0C04EF0E1C012
:102056004FF0DEC050F0DFC051F0EAC052F0EBC0E6
:1020660053F08E0E546E900E556E860E566E8A0E78
:10207600576E880E586E8C0E596E0001E651020D91
:10208600F3CF72F0FE0E72277251920FD96EDA6A92
:10209600DECF5AF0DDCF5BF0E651020DF3CF73F0E1
:1020A600160E73277351920FD96EDA6ADECF5CF083
:1020B600DDCF5DF038EC0EF0010E31EC17F0740E4A
:1020C600316E010E326EE0C033F0E1C034F0DEC096
:1020D60035F0DFC036F0DCC037F0DDC038F0E4C0E4
:1020E60039F0E5C03AF04EEC17F0740E046E9AEC37
:1020F60017F0020E31EC17F0740E316E300E326EA0
:10210600E2C033F0E3C034F0E6C035F0E7C036F0A5
:10211600E8C037F0E9C038F04EEC17F0740E046EE4
:102126009AEC17F0E4EF0FF018EF00F00F6E0F5077
:10213600D8B4A0EF10F0A2EF10F0C4EF10F00ABE72
:10214600A9EF10F0A7EF10F0C4EF10F007C00BF0E6
:1021560008C00CF009C00DF00AC00EF00B1E0C1ED4
:102166000D1E0E1E0B2A000E0C220D220E220BC077
:1021760011F00CC012F00DC013F00EC014F0CCEF2D
:1021860010F007C011F008C012F009C013F00AC021
:1021960014F00750081009100A10D8A4D5EF10F053
:1021A600D7EF10F0E1EF10F0000E076E000E086E8C
:1021B600000E096E000E0A6E72EF11F0960E106E8A
:1021C600EBEF10F0102AD89014321332123211327B
:1021D600000E11140B6E000E12140C6E000E13146A
:1021E6000D6EFE0E14140E6E0B500C100D100E100C
:1021F600D8A400EF11F002EF11F0E5EF10F010EFA8
:1022060011F0102A010E1126000E1222132214229A
:10221600D8901432133212321132000E11140B6E92
:10222600000E12140C6E000E13140D6EFF0E141415
:102236000E6E0B500C100D100E10D8A425EF11F0D9
:1022460027EF11F004EF11F02FEF11F01006D890E0
:10225600113612361336143613BE34EF11F036EF3C
:1022660011F03EEF11F0020E10603CEF11F03EEF60
:1022760011F029EF11F010B043EF11F045EF11F016
:1022860046EF11F0139ED890103210C00BF00C6A76
:102296000D6A0E6A0BC00EF00D6A0C6A0B6A0B50C3
:1022A60011120C5012120D5013120E5014120F5020
:1022B600D8B460EF11F062EF11F06AEF11F00ABEC8
:1022C60069EF11F067EF11F06AEF11F0148E11C08B
:1022D60007F012C008F013C009F014C00AF012008B
:1022E6002350D96EDA6ADFCFF6FF0E0EF76E000EB8
:1022F600F86E0800F550250AD8A484EF11F086EF91
:1023060011F022EF12F02350D96EDA6ADF2A000E9E
:102316000001ED6F000EEC6FECC05EF0EE69EF6948
:10232600000E2B6EBDEF11F05E822350D96EDA6A75
:10233600DF2ABDEF11F0010E2B6EBDEF11F0235019
:10234600D96EDA6ADFCFF6FF0E0EF76E000EF86E64
:102356000800F550256E266A2650000AD8B4B6EF56
:1023660011F09EEF11F02550300AD8B497EF11F016
:102376009EEF11F02B50D8B4C3EF11F0C5EF11F05A
:10238600A2EF11F023C007F024C008F022EC15F0EC
:1023960007C0ECF008C0EDF00001EDBFD7EF11F07B
:1023A600D5EF11F0DCEF11F05E80EC6DED1FD8B0CB
:1023B600ED2B2350D96EDA6ADF502C6E2CC0F6FF57
:1023C6000E0EF76E000EF86E0800F550640AD8B4CB
:1023D600EFEF11F0F1EF11F001EF12F02CC0F6FF64
:1023E6000E0EF76E000EF86E0800F550690AD8A4B6
:1023F600FFEF11F001EF12F01CEF12F02450D96E2E
:10240600DA6A020EDF26DF5CD96EDA6ADECF27F0E3
:10241600DECF28F02350D96EDA6A2C28DF6E22C070
:1024260017F027C018F028C019F036EC12F035EF77
:1024360012F02350D96EDA6ADF2A35EF12F02350F4
:10244600D96EDA6ADFCFF6FF0E0EF76E000EF86E63
:102456000800F550016E026A22C003F079EC15F00F
:102466001CEF12F01200010E1C6E19BE3DEF12F0A9
:1024760040EF12F0010E41EF12F0000E1F6EECC09D
:102486001DF0EDC01EF01F50D8B44CEF12F04EEF09
:1024960012F065EF12F01D06D8A01E061F50D8A434
:1024A60057EF12F059EF12F05FEF12F0000E1B6EAD
:1024B6002B0E1A6E63EF12F0000E1B6E2D0E1A6EA7
:1024C6001AC01FF0000E216E1F0E206E000E0101B5
:1024D600C76F9DEF12F02006D8A02106A80E202473
:1024E600D96E010E2120DA6E18C001F019C002F073
:1024F600000E046E0A0E036ECAEC14F001C007F05B
:1025060002C008F068EC17F00750300FDF6E000EBF
:102516001C6E1D06D8A01E0618C001F019C002F0D8
:10252600000E046E0A0E036E68EC14F001C018F07B
:1025360002C019F021BEA8EF12F0215008E12004D4
:10254600D8A0A8EF12F0AAEF12F0CFEF12F01850B1
:102556001910D8A4B1EF12F0B3EF12F06EEF12F02B
:102566001C50D8A4B9EF12F0BBEF12F06EEF12F0C8
:102576001EBEC6EF12F01E5008E11D04D8A0C6EF1D
:1025860012F0C8EF12F0CFEF12F05EB2CDEF12F0FC
:10259600CFEF12F06EEF12F01F50D8B4D5EF12F055
:1025A600D7EF12F0E2EF12F02006D8A02106A80E0F
:1025B6002024D96E010E2120DA6E1FC0DFFF17C05E
:1025C6000FF0A80E2024106E010E2120116E1DC0E2
:1025D60012F01EC013F022EC16F0120082967A96C4
:1025E60082947A9485967D9685927D9283947B9447
:1025F600839C7B9C0D0E056E2D0E046ED80EE82E68
:10260600FED7042EFCD7052EFAD7030E6BEC16F078
:10261600680E046EE40EE82EFED7042EFCD700D01A
:10262600030E6BEC16F0040E046E1C0EE82EFED79D
:10263600042EFCD700D0030E6BEC16F0040E046ECD
:102646001C0EE82EFED7042EFCD700D0020E6BEC33
:1026560016F0040E046E1C0EE82EFED7042EFCD7D0
:1026660000D0000E026E2C0ED7EC17F0E40E00D050
:1026760000D0E82EFCD700D000D0000E026E080E67
:10268600D7EC17F0090E056E1E0E046EE40EE82E4A
:10269600FED7042EFCD7052EFAD700D0000E026E08
:1026A600010ED7EC17F0680E046EE40EE82EFED786
:1026B600042EFCD700D0000E026E060ED7EC17F0E3
:1026C600090E056E1E0E046EE40EE82EFED7042ECD
:1026D600FCD7052EFAD700D0000E026E0C0ED7ECF2
:1026E60017F0090E056E1E0E046EE40EE82EFED7D8
:1026F600042EFCD7052EFAD700D012004034413400
:10270600476E4750D8A48AEF13F08CEF13F096EF7C
:1027160013F0000E3E6E000E3F6E000E406E000E71
:10272600416E03EF14F03EC042F03FC043F040C09C
:1027360044F041C045F0200EA6EF13F0D890453284
:10274600443243324232E82EA1EF13F04250466E35
:10275600408EFF0E3E16FF0E3F16FF0E4016000E71
:102766004116960E475E47BEBDEF13F0BBEF13F062
:10277600D3EF13F04750800A970FD8B0C5EF13F088
:10278600C7EF13F0C9EF13F08CEF13F0D890413276
:1027960040323F323E32473EC9EF13F0EBEF13F0C3
:1027A6001F0E4764D9EF13F0DBEF13F0E3EF13F0DE
:1027B6008CEF13F0D8903E363F364036413647060A
:1027C6004750D8A4E9EF13F0EBEF13F0DDEF13F069
:1027D6004650D8B4F1EF13F0F3EF13F0FBEF13F01C
:1027E600411E401E3F1E3E6C000E3F2240224122EB
:1027F6003EC03EF03FC03FF040C040F041C041F017
:10280600120001A009EF14F00BEF14F00EEF14F014
:102816007F800FEF14F07F9001A214EF14F016EFF3
:1028260014F019EF14F07F821AEF14F07F9201A4CE
:102836001FEF14F021EF14F024EF14F0798425EF44
:1028460014F0799401A62AEF14F02CEF14F02FEF70
:1028560014F07E8C30EF14F07E9C01A835EF14F056
:1028660037EF14F03AEF14F079883BEF14F07998CB
:1028760001AA40EF14F042EF14F045EF14F0798A04
:1028860046EF14F0799A01AC4BEF14F04DEF14F0CB
:1028960050EF14F07E8051EF14F07E9001AE56EFAB
:1028A60014F058EF14F05BEF14F07A805CEF14F03C
:1028B6007A9002A061EF14F063EF14F066EF14F063
:1028C6007A8267EF14F07A921200000E066E04BE4A
:1028D60071EF14F06FEF14F077EF14F0036C041E31
:1028E600D8B0042A010E066E02BE7EEF14F07CEF0D
:1028F60014F084EF14F0016C021ED8B0022A010E07
:10290600061A000E086E000E076E03500410D8B4A7
:102916008FEF14F091EF14F0B9EF14F0010E056E7D
:1029260099EF14F0D89003360436052A04AE9EEFCC
:1029360014F0A0EF14F095EF14F0D890073608368F
:102946000350015C04500258D8A0ACEF14F0AEEF6F
:1029560014F0B3EF14F00350015E0450025A0780DE
:10296600D89004320332052EA0EF14F00650D8B4E6
:10297600BFEF14F0C1EF14F0C5EF14F0076C081E9A
:10298600D8B0082A07C001F008C002F01200000EF5
:10299600066E02BED3EF14F0D1EF14F0D9EF14F0A7
:1029A600016C021ED8B0022A010E066E04BEE0EFCC
:1029B60014F0DEEF14F0E4EF14F0036C041ED8B04C
:1029C600042A03500410D8B4EBEF14F0EDEF14F022
:1029D60011EF15F0010E056EF5EF14F0D8900336E1
:1029E6000436052A04AEFAEF14F0FCEF14F0F1EF0A
:1029F60014F00350015C04500258D8A005EF15F0FE
:102A060007EF15F00BEF15F00350015E0450025A64
:102A1600D89004320332052EFCEF14F00650D8B4D9
:102A260017EF15F019EF15F01DEF15F0016C021EEA
:102A3600D8B0022A01C001F002C002F01200000E56
:102A46000B6E000E0A6E0750D96EDA6ADFCFF6FFFC
:102A56000E0EF76E000EF86E0800F5502A0AD8A47E
:102A660037EF15F039EF15F05FEF15F00750D96E17
:102A7600DA6ADF2A0850D96EDA6A020EDF26DF5CD0
:102A8600D96EDA6ADECF0AF0DECF0BF074EF15F0FE
:102A96000AC001F00BC002F0000E046E0A0E036EAF
:102AA600C4EC17F0095001240A6E000E02200B6ECA
:102AB6000750D96EDA6ADF2A0750D96EDA6ADFCF95
:102AC600F6FF0E0EF76E000EF86E0800F550D00FEA
:102AD600096E090E096472EF15F074EF15F04BEFED
:102AE60015F00AC007F00BC008F012000350D8B466
:102AF6007FEF15F081EF15F089EF15F00350D8A49C
:102B060087EF15F089EF15F08EEF15F0015017ECF1
:102B160018F0CDEF15F00350D96EDA6A0A0ED926F1
:102B2600DE50DE10D8B49AEF15F09CEF15F0B5EF35
:102B360015F00350D96EDA6A0A0ED9260350E16EF3
:102B4600E26A030EE126DE50E65CE650800A086E75
:102B5600DE50800A0858D8B0B3EF15F0B5EF15F07F
:102B6600CDEF15F00350D96EDA6A030ED926DF5081
:102B7600046E0350D96EDA6ADF500424D96EDA6A1D
:102B860001C0DFFF0350D96EDA6A030ED926DE2AAA
:102B9600000EDD2212001F001C001F001E001F0079
:102BA6001E001F001F001E001F001E001F00000049
:102BB60000000000000017000000000000001700E1
:102BC60017001700170009000D0008000100390062
:102BD60001000500030037002F002E003800090011
:102BE6000D00080001003900010005000300370050
:102BF6002F002E0038000000000000000000170023
:102C060000000000000017001700170017001F0043
:102C16001C001F001E001F001E001F001F001E00BC
:102C26001F001E001F001F001C001F001E001F00AB
:102C36001E001F001F001E001F001E001F005EA0BA
:102C460027EF16F029EF16F031EF16F010C009F055
:102C560011C00AF00FC00BF011EC17F013BE38EFDD
:102C660016F036EF16F03CEF16F0000E136E000E5F
:102C7600126E000E166E000E156E4CEF16F0000E5C
:102C8600026E200E016E0FC003F079EC15F0154AA6
:102C9600162A1250155C1650800A146E1350800ABC
:102CA6001458D8A059EF16F05BEF16F042EF16F065
:102CB6005EB060EF16F062EF16F06AEF16F010C025
:102CC60009F011C00AF00FC00BF011EC17F012005A
:102CD600016E01A071EF16F073EF16F076EF16F0A5
:102CE6007A8677EF16F07A9601A27CEF16F07EEFE1
:102CF60016F081EF16F07A8482EF16F07A9401A42A
:102D060087EF16F089EF16F08CEF16F07D868DEFC3
:102D160016F07D9601A692EF16F094EF16F097EF57
:102D260016F07D8298EF16F07D9206EC18F01A0EDA
:102D3600E82EFED700D0120006BEADEF16F0065004
:102D460007E1470E055CD8B0ABEF16F0ADEF16F015
:102D5600CBEF16F008BEB8EF16F0085008E10704EE
:102D6600D8A0B8EF16F0BAEF16F0C8EF16F008BE06
:102D7600C6EF16F0085009E1050E075CD8A0C6EFAD
:102D860016F0C8EF16F0CBEF16F08086CCEF16F0F3
:102D9600809612009C0EF66E2B0EF76E000EF86EE5
:102DA60001EE00F010EEA8F00900F5CFEEFFE550B9
:102DB600E150FAE101EEA8F0200EEE6AE806FDE128
:102DC6000001F16BF06BEF6BEE6BED6BEC6B5E6A1B
:102DD6005F905F9200018EEF0FF02EC030F0FCEF97
:102DE60016F02DC022F0300E236E2FC024F073ECA7
:102DF60011F030C0F6FF0E0EF76E000EF86E0800EA
:102E0600F5500009D8A40AEF17F00CEF17F0F4EF0D
:102E160016F0000E2E6E000E2D6E1200000E0E6EB7
:102E2600000E0D6E20EF17F00CC001F0026A0BC009
:102E360003F079EC15F00D4A0E2A0D500924D96ECF
:102E46000E500A20DA6EDF500C6E0C50D8A42EEF0E
:102E560017F030EF17F017EF17F01200046E020E9E
:102E66000418D8A439EF17F03BEF17F040EF17F02E
:102E7600000E026EC00ED7EC17F00404D8A446EF7D
:102E860017F048EF17F04DEF17F0000E026E800EA8
:102E9600D7EC17F01200330E3B6E31C03CF0000E3B
:102EA600406E000E3F6E000E476E000E466E3C0EE4
:102EB6002D6E32C02EF03B0E2F6EF0EC16F0315018
:102EC6003F24D96EDA6ADF6A120008BE6DEF17F08A
:102ED6006FEF17F075EF17F007C007F008C008F09E
:102EE60081EF17F007C009F008C00AF0091E0A1E94
:102EF600094A0A2A09C007F00AC008F012006080D1
:102F060060B088EF17F08AEF17F083EF17F064CF01
:102F160003F0046A0350FF08036E0450D8A0E82AA1
:102F26000008046E03C001F004C002F01200A5EF11
:102F360017F0010E026E0450D96EDA6ADF50D7EC34
:102F460017F0042A0450D96EDA6ADF50D8A4AEEF1F
:102F560017F0B0EF17F09CEF17F0120087907F90F4
:102F660087927F9281947994869C7E9C81987998A9
:102F7600819A799A86907E9082907A9082927A92BD
:102F8600120001500302F3CF05F0F4CF06F0015012
:102F96000402F350062602500302F350062605C02B
:102FA60001F006C002F01200036E02B002D07B9C54
:102FB60001D07B8C03380F0B6BEC16F003506BECD7
:102FC60016F0A00E00D0E82EFDD71200D6501F0B2B
:102FD6004009D66ED688D650F00B0809D66ED5882D
:102FE6000B0ED46EDC0ED36ED58E120081860E01CA
:102FF60092870F015899FC0E5817030E5F6F609465
:103006006088608E12007B840A0EE82EFED700D000
:103016007B941200F28C0E01298B339B1F8BF28E50
:0A3026001200889680961200120036
:020000040030CA
:02000000AAFF55
:020004009FFF5C
:00000001FF
