:0400000018EF00F005
:1000080043820E0133AB0BEF00F00DEF00F016EF5B
:1000180000F00B0ED46EDC0ED36E0001F64BF72BFE
:0C0028000E01339B4392110055EF0AF0CB
:100E0000000025EC0AF038EC0AF060EC0AF0849E51
:100E10007C9E88968096000E0001F76F320EF66F6A
:100E2000000EF16F3B0EF06F000EF36F0C0EF26FC1
:100E3000000EF56F010EF46F000EE96F000EE86F03
:100E4000000EEB6F000EEA6F000EED6F000EEC6F00
:100E5000F2C0F6F0F3C0F7F0000EA16F1F0EA06F06
:100E6000000E9F6F000E9E6F000E9D6F090E9C6F0F
:100E7000000EA76F1C0EA66F000EA56F000EA46FCC
:100E8000000EA36F0D0EA26F000EAD6F1F0EAC6FA4
:100E9000000EAB6F000EAA6F000EA96F080EA86FB0
:100EA000000EB36F1E0EB26F000EB16F000EB06F6A
:100EB000000EAF6F010EAE6F000EB96F1F0EB86F50
:100EC000000EB76F170EB66F000EB56F390EB46F08
:100ED000000EBF6F1E0EBE6F000EBD6F000EBC6F0A
:100EE000000EBB6F010EBA6F000EC56F1F0EC46FF0
:100EF000000EC36F000EC26F000EC16F050EC06FF3
:100F0000000ECB6F1F0ECA6F000EC96F000EC86FA8
:100F1000000EC76F030EC66F000ED16F1E0ED06F8E
:100F2000000ECF6F170ECE6F000ECD6F370ECC6F49
:100F3000000ED76F1F0ED66F000ED56F170ED46F31
:100F4000000ED36F2F0ED26F000EDD6F1E0EDC6F02
:100F5000000EDB6F170EDA6F000ED96F2E0ED86FF2
:100F6000000EE36F1F0EE26F000EE16F170EE06FD1
:100F7000000EDF6F380EDE6F000EE56F070EE46FB8
:100F800020EE60F00D0EDE6AE806FDE220EE6EF067
:100F90000D0EDE6AE806FDE220EE7CF00D0EDE6A44
:100FA000E806FDE220EE8AF00D0EDE6AE806FDE2BC
:100FB00048EC0AF0000E0001996F460E986FF6C0DB
:100FC000EEF0F7C0EFF0F60E396EF00E3A6EF20E5C
:100FD0003B6EF40E3C6EB8EC08F0F2C039F0F3C092
:100FE0003AF070EC09F00DEC0AF039C09AF03AC012
:100FF0009BF0000198519A5D99519B59D8B003EF2D
:1010000008F005EF08F074EF08F08086F3BF12EFE8
:1010100008F0F35109E10F0EF25DD8A012EF08F0CD
:1010200014EF08F03AEF08F0F3BF22EF08F0F351A5
:1010300007E1170EF25DD8B020EF08F022EF08F0BC
:101040003AEF08F07C0E396EE4C03AF0E5C03BF0B0
:10105000F2C03CF0F3C03DF0D4EC09F08A0E396EDA
:10106000E4C03AF0E5C03BF0F0C03CF0F1C03DF028
:10107000D4EC09F00001F3BF46EF08F0F35108E1AA
:10108000F205D8A046EF08F048EF08F057EF08F057
:10109000F3BF56EF08F0F35107E1060EF25DD8B04A
:1010A00054EF08F056EF08F057EF08F08096F3BFC2
:1010B00063EF08F0F35109E1080EF25DD8A063EF89
:1010C00008F065EF08F074EF08F0F3BF73EF08F075
:1010D000F35107E10F0EF25DD8B071EF08F073EF36
:1010E00008F074EF08F080969A51985D9B519959D9
:1010F000D8B07DEF08F07FEF08F0DFEF07F08096C3
:10110000F3BF8CEF08F0F35109E1040EF25DD8A0B3
:101110008CEF08F08EEF08F0DFEF07F0F3BF9CEFE5
:1011200008F0F35107E1080EF25DD8B09AEF08F02D
:101130009CEF08F0DFEF07F0600E396EE4C03AF084
:10114000E5C03BF0F2C03CF0F3C03DF0D4EC09F058
:101150006E0E396EE4C03AF0E5C03BF0F0C03CF0F2
:10116000F1C03DF0D4EC09F0DFEF07F018EF00F02C
:101170003950D96EDA6A3B50E16EE26ADECFE6FFA3
:10118000DDCFE5FF3950D96EDA6A010EDBBED3EF51
:1011900008F0010EDB5009E1180EDE5CD8A0D3EF99
:1011A00008F0D5EF08F0F1EF08F03950D96EDA6A9F
:1011B000DE6ADD6A3B50D96EDA6ADE6ADD6A3C506F
:1011C000D96EDA6ADECF3DF0DDCF3EF0010E3D266E
:1011D000000E3E223C50D96EDA6A3DC0DEFF3EC0B2
:1011E000DDFF3950D96EDA6A010EDBBE02EF09F07D
:1011F000010EDB5009E13C0EDE5CD8A002EF09F0E5
:1012000004EF09F01BEF09F03950D96EDA6ADE6A93
:10121000DD6A3A50D96EDA6ADECF3DF0DDCF3EF0BE
:10122000010E3D26000E3E223A50D96EDA6A3DC0CC
:10123000DEFF3EC0DDFF3A50D96EDA6A010EDBBE3A
:101240002CEF09F0010EDB5009E13C0EDE5CD8A06A
:101250002CEF09F02EEF09F045EF09F03A50D96E66
:10126000DA6ADE6ADD6A3B50D96EDA6ADECF3DF0BB
:10127000DDCF3EF0010E3D26000E3E223B50D96EE2
:10128000DA6A3DC0DEFF3EC0DDFF3B50D96EDA6A50
:10129000010EDBBE56EF09F0010EDB5009E1180E1E
:1012A000DE5CD8A056EF09F058EF09F06FEF09F0B7
:1012B0003B50D96EDA6ADE6ADD6A3C50D96EDA6A72
:1012C000DECF3DF0DDCF3EF0010E3D26000E3E228A
:1012D0003C50D96EDA6A3DC0DEFF3EC0DDFF120031
:1012E00039A075EF09F077EF09F07AEF09F07F8008
:1012F0007BEF09F07F9039A280EF09F082EF09F0CF
:1013000085EF09F07F8286EF09F07F9239A48BEF99
:1013100009F08DEF09F090EF09F0798491EF09F071
:10132000799439A696EF09F098EF09F09BEF09F050
:101330007E8C9CEF09F07E9C39A8A1EF09F0A3EF09
:1013400009F0A6EF09F07988A7EF09F0799839AA92
:10135000ACEF09F0AEEF09F0B1EF09F0798AB2EF26
:1013600009F0799A39ACB7EF09F0B9EF09F0BCEFA1
:1013700009F07E80BDEF09F07E9039AEC2EF09F032
:10138000C4EF09F0C7EF09F07A80C8EF09F07A904E
:101390003AA0CDEF09F0CFEF09F0D2EF09F07A8251
:1013A000D3EF09F07A921200000E426E010E416EE8
:1013B000F7EF09F0000E426E060E416E3950D96EFD
:1013C000DA6A0C0ED9263950E16EE26A0A0EE1267D
:1013D000DECFE6FFDDCFE5FF3950D96EDA6A0C0EBD
:1013E000D9263CC0DEFF3DC0DDFF414A422AFF0E48
:1013F0003A243E6EFF0E3B203F6E41503E5C3F5014
:10140000800A406E4250800A4058D8B00AEF0AF075
:101410000CEF0AF0DAEF09F01200608060B013EF11
:101420000AF015EF0AF00EEF0AF064CF3BF03C6AC9
:101430003B50FF083B6E3C50D8A0E82A00083C6EA9
:101440003BC039F03CC03AF0120087907F90879201
:101450007F9281947994869C7E9C81987998819AD8
:10146000799A86907E9082907A9082927A921200F7
:10147000D6501F0B4009D66ED688D650F00B0809FF
:10148000D66ED5880B0ED46EDC0ED36ED58E1200C0
:1014900081860E0192870F015899FC0E5817030E92
:1014A0005F6F60946088608E120000EE01F0380E6D
:1014B000EE6AE806FDE143904392000101EF07F078
:0E14C000F28C0E01298B339B1F8BF28E1200D3
:020000040030CA
:02000000AAFF55
:020004009FFF5C
:00000001FF
