:0400000016EF00F007
:1000080041820E0133AB0BEF00F00DEF00F014EF5F
:1000180000F00B0ED46EDC0ED36E3F4A402A339BA1
:0800280041921100C8EF09F03C
:100E0000000098EC09F0ABEC09F0D3EC09F0849EFB
:100E10007C9E88968096000E406E320E3F6E000ECD
:100E20000001FB6F3B0EFA6F000EFD6F0C0EFC6FA6
:100E3000000EFF6F010EFE6F000EF36F000EF26FDB
:100E4000000EF56F000EF46F000EF76F000EF66FD8
:100E5000FCC03FF0FDC040F0000EA16F1F0EA06F60
:100E6000000E9F6F000E9E6F000E9D6F090E9C6F0F
:100E7000000EA76F1C0EA66F000EA56F000EA46FCC
:100E8000000EA36F0D0EA26F000EAD6F1F0EAC6FA4
:100E9000000EAB6F000EAA6F000EA96F080EA86FB0
:100EA000000EB36F1E0EB26F000EB16F000EB06F6A
:100EB000000EAF6F010EAE6F000EB96F1F0EB86F50
:100EC000000EB76F170EB66F000EB56F390EB46F08
:100ED000000EBF6F1E0EBE6F000EBD6F000EBC6F0A
:100EE000000EBB6F010EBA6F000EC56F1F0EC46FF0
:100EF000000EC36F000EC26F000EC16F050EC06FF3
:100F0000000ECB6F1F0ECA6F000EC96F000EC86FA8
:100F1000000EC76F030EC66F000ED16F1E0ED06F8E
:100F2000000ECF6F170ECE6F000ECD6F370ECC6F49
:100F3000000ED76F1F0ED66F000ED56F170ED46F31
:100F4000000ED36F2F0ED26F000EDD6F1E0EDC6F02
:100F5000000EDB6F170EDA6F000ED96F2E0ED86FF2
:100F6000000EE36F1F0EE26F000EE16F170EE06FD1
:100F7000000EDF6F380EDE6F000EE56F070EE46FB8
:100F800020EE60F00D0EDE6AE806FDE2000EE76F6F
:100F9000600EE66F20EE6EF00D0EDE6AE806FDE2F2
:100FA000000EE96F6E0EE86F000EEB6F070EEA6F32
:100FB00020EE7CF00D0EDE6AE806FDE2000EED6F1D
:100FC0007C0EEC6F20EE8AF00D0EDE6AE806FDE284
:100FD000000EEF6F8A0EEE6FBBEC09F0000E000101
:100FE000996F460E986F3FC0F8F040C0F9F03F0E81
:100FF000396EFA0E3A6EFC0E3B6EFE0E3C6E64ECE1
:1010000008F0FCC039F0FDC03AF01CEC09F080ECAF
:1010100009F039C09AF03AC09BF0000198519A5DEE
:1010200099519B59D8B017EF08F019EF08F054EF19
:1010300008F0FDBF24EF08F0FD5108E1FC05D8A041
:1010400024EF08F026EF08F034EF08F0FDBF32EF90
:1010500008F0FD5109E1050EFC5DD8A032EF08F063
:1010600034EF08F050EF08F0FDBF40EF08F0FD51FD
:1010700009E1080EFC5DD8A040EF08F042EF08F04F
:1010800053EF08F0FDBF50EF08F0FD5107E10F0EE0
:10109000FC5DD8B04EEF08F050EF08F053EF08F0C9
:1010A000809654EF08F080869A51985D9B5199592B
:1010B000D8B05DEF08F05FEF08F0F3EF07F080962F
:1010C000F3EF07F016EF00F03950D96EDA6A3B50B3
:1010D000E16EE26ADECFE6FFDDCFE5FF3950D96E83
:1010E000DA6A010EDBBE7FEF08F0010EDB5009E18A
:1010F000180EDE5CD8A07FEF08F081EF08F09DEFBE
:1011000008F03950D96EDA6ADE6ADD6A3B50D96E72
:10111000DA6ADE6ADD6A3C50D96EDA6ADECF3DF00B
:10112000DDCF3EF0010E3D26000E3E223C50D96E32
:10113000DA6A3DC0DEFF3EC0DDFF3950D96EDA6AA3
:10114000010EDBBEAEEF08F0010EDB5009E13C0EF4
:10115000DE5CD8A0AEEF08F0B0EF08F0C7EF08F003
:101160003950D96EDA6ADE6ADD6A3A50D96EDA6AC7
:10117000DECF3DF0DDCF3EF0010E3D26000E3E22DB
:101180003A50D96EDA6A3DC0DEFF3EC0DDFF3A500C
:10119000D96EDA6A010EDBBED8EF08F0010EDB5023
:1011A00009E13C0EDE5CD8A0D8EF08F0DAEF08F0D9
:1011B000F1EF08F03A50D96EDA6ADE6ADD6A3B5028
:1011C000D96EDA6ADECF3DF0DDCF3EF0010E3D266E
:1011D000000E3E223B50D96EDA6A3DC0DEFF3EC0B3
:1011E000DDFF3B50D96EDA6A010EDBBE02EF09F07B
:1011F000010EDB5009E1180EDE5CD8A002EF09F009
:1012000004EF09F01BEF09F03B50D96EDA6ADE6A91
:10121000DD6A3C50D96EDA6ADECF3DF0DDCF3EF0BC
:10122000010E3D26000E3E223C50D96EDA6A3DC0CA
:10123000DEFF3EC0DDFF120039A021EF09F023EFF1
:1012400009F026EF09F07F8027EF09F07F9039A29F
:101250002CEF09F02EEF09F031EF09F07F8232EF29
:1012600009F07F9239A437EF09F039EF09F03CEF2C
:1012700009F079843DEF09F0799439A642EF09F03D
:1012800044EF09F047EF09F07E8C48EF09F07E9CAF
:1012900039A84DEF09F04FEF09F052EF09F07988C6
:1012A00053EF09F0799839AA58EF09F05AEF09F08D
:1012B0005DEF09F0798A5EEF09F0799A39AC63EF56
:1012C00009F065EF09F068EF09F07E8069EF09F039
:1012D0007E9039AE6EEF09F070EF09F073EF09F010
:1012E0007A8074EF09F07A903AA079EF09F07BEFF9
:1012F00009F07EEF09F07A827FEF09F07A9212000E
:10130000608060B086EF09F088EF09F081EF09F0A6
:1013100064CF3BF03C6A3B50FF083B6E3C50D8A08A
:10132000E82A00083C6E3BC039F03CC03AF012009D
:1013300087907F9087927F9281947994869C7E9CFF
:1013400081987998819A799A86907E9082907A9005
:1013500082927A921200D6501F0B4009D66ED68820
:10136000D650F00B0809D66ED5880B0ED46EDC0E65
:10137000D36ED58E120081860E0192870F01589987
:10138000FC0E5817030E5F6F60946088608E120029
:1013900000EE01F0380EEE6AE806FDE14190419260
:1013A000000101EF07F0F28C0E01298B339B1F8B9C
:0413B000F28E1200A7
:020000040030CA
:02000000AAFF55
:020004009FFF5C
:00000001FF
