:040000002DEF00F0F0
:1000080017820E0133AB0BEF00F00DEF00F02BEF72
:1000180000F080A612EF00F016EF00F0016A012A46
:1000280017EF00F0016A01460146014680500118A9
:10003800F70B0118806E0B0ED46EDC0ED36E010E1A
:100048001524156E000E1620166E0E01339B17929E
:0600580011002CEF08F07E
:100E000000007CAE06EF07F00AEF07F0046A042A40
:100E10000BEF07F0046A043204327C5004187F0B95
:100E200004187C6E02A017EF07F019EF07F01CEF13
:100E300007F07F801DEF07F07F9002A222EF07F0FE
:100E400024EF07F027EF07F07F8228EF07F07F926B
:100E500002A42DEF07F02FEF07F032EF07F07984AF
:100E600033EF07F0799402A638EF07F03AEF07F076
:100E70003DEF07F07E8C3EEF07F07E9C02A843EF2B
:100E800007F045EF07F048EF07F0798849EF07F0E2
:100E9000799802AA4EEF07F050EF07F053EF07F0F2
:100EA000798A54EF07F0799A02AC59EF07F05BEFBB
:100EB00007F05EEF07F07E805FEF07F07E9002AEF6
:100EC00064EF07F066EF07F069EF07F07A806AEFEA
:100ED00007F07A9003A06FEF07F071EF07F074EF5F
:100EE00007F07A8275EF07F07A9212000E0E106EFC
:100EF000100E0F6E09EC08F01CEC08F033EC08F053
:100F000015C002F016C003F00FC004F010C005F0C9
:100F1000F6EC07F002C008F003C009F0000E0B6EFB
:100F20003C0E0A6EBCEC07F008C011F009C012F0CC
:100F300011C008F012C009F0000E0B6E3C0E0A6ED4
:100F4000BCEC07F008C013F009C014F013C008F09F
:100F500014C009F0000E0B6E180E0A6EBCEC07F000
:100F60003AEC08F013C002F014C003F001EC07F0F3
:100F700080EF07F02DEF00F0000E0D6E000E0C6EEE
:100F80000A500B10D8B4C7EF07F0C9EF07F0F1EF24
:100F900007F0010E0E6ED1EF07F0D8900A360B362F
:100FA0000E2A0BAED6EF07F0D8EF07F0CDEF07F023
:100FB000D8900C360D360A50085C0B500958D8A052
:100FC000E4EF07F0E6EF07F0EBEF07F00A50085EFA
:100FD0000B50095A0C80D8900B320A320E2ED8EFE3
:100FE00007F00CC008F00DC009F012000250040216
:100FF000F3CF06F0F4CF07F002500502F3500726B6
:1010000003500402F350072606C002F007C003F0A5
:10101000120087907F8087927F8281947984869C5A
:101020007E8C81987988819A798A86907E80829058
:101030007A8082927A821200D6501F0B4009D66EB7
:10104000D688D650F00B0809D66ED5880B0ED46E14
:10105000DC0ED36ED58E1200166A156A17901792A1
:10106000000176EF07F0F28C0E01298B339B1F8B6A
:0A107000F28E1200D350D45012008B
:020000040030CA
:02000000AAFF55
:020004009FFF5C
:00000001FF
