:0400000016EF00F007
:1000080011820E0133AB0BEF00F00DEF00F014EF8F
:1000180000F00B0ED46EDC0ED36E0F4A102A339B01
:080028001192110087EF08F0AE
:100E000000000150D96EDA6A0350E16EE26ADECF6B
:100E1000E6FFDDCFE5FF0150D96EDA6A010EDBBED9
:100E20001CEF07F0010EDB5009E1180EDE5CD8A0C4
:100E30001CEF07F01EEF07F023EF07F00150D96E0B
:100E4000DA6ADE6ADD6A0150D96EDA6A010EDBBE4B
:100E500034EF07F0010EDB5009E13C0EDE5CD8A058
:100E600034EF07F036EF07F04DEF07F00150D96E81
:100E7000DA6ADE6ADD6A0250D96EDA6ADECF05F020
:100E8000DDCF06F0010E0526000E06220250D96EB7
:100E9000DA6A05C0DEFF06C0DDFF0250D96EDA6AED
:100EA000010EDBBE5EEF07F0010EDB5009E13C0EE8
:100EB000DE5CD8A05EEF07F060EF07F077EF07F099
:100EC0000250D96EDA6ADE6ADD6A0350D96EDA6AD8
:100ED000DECF05F0DDCF06F0010E0526000E06225E
:100EE0000350D96EDA6A05C0DEFF06C0DDFF03508D
:100EF000D96EDA6A010EDBBE88EF07F0010EDB5017
:100F000009E1180EDE5CD8A088EF07F08AEF07F041
:100F1000A1EF07F00350D96EDA6ADE6ADD6A045089
:100F2000D96EDA6ADECF05F0DDCF06F0010E0526B8
:100F3000000E06220450D96EDA6A05C0DEFF06C034
:100F4000DDFF120001A0A7EF07F0A9EF07F0ACEF5B
:100F500007F07F80ADEF07F07F9001A2B2EF07F0BE
:100F6000B4EF07F0B7EF07F07F82B8EF07F07F929A
:100F700001A4BDEF07F0BFEF07F0C2EF07F07984DF
:100F8000C3EF07F0799401A6C8EF07F0CAEF07F0A6
:100F9000CDEF07F07E8CCEEF07F07E9C01A8D3EF5B
:100FA00007F0D5EF07F0D8EF07F07988D9EF07F011
:100FB000799801AADEEF07F0E0EF07F0E3EF07F022
:100FC000798AE4EF07F0799A01ACE9EF07F0EBEFEB
:100FD00007F0EEEF07F07E80EFEF07F07E9001AEB6
:100FE000F4EF07F0F6EF07F0F9EF07F07A80FAEF89
:100FF00007F07A9002A0FFEF07F001EF08F004EF8E
:1010000008F07A8205EF08F07A92120064EC08F09A
:1010100077EC08F08EEC08F0849E7C9E8896809693
:10102000000E0A6E000E096E000E0C6E000E0B6EA6
:10103000000E0E6E000E0D6E0FC007F010C008F00F
:101040000F0E016E090E026E0B0E036E0D0E046E76
:1010500001EC07F007C001F008C002F0A2EC07F0B5
:101060000EBE3BEF08F00E5008E10D04D8A03BEF98
:1010700008F03DEF08F040EF08F07C8E41EF08F0FB
:101080007C9E0CBE4CEF08F00C5008E10B04D8A07D
:101090004CEF08F04EEF08F05FEF08F00CBE5CEF8D
:1010A00008F00C5007E1060E0B5CD8B05AEF08F0C0
:1010B0005CEF08F05FEF08F080861CEF08F0809688
:1010C0001CEF08F016EF00F087907F9087927F92D8
:1010D00081947994869C7E9C81987998819A799A5A
:1010E00086907E9082907A9082927A921200D65068
:1010F0001F0B4009D66ED688D650F00B0809D66E65
:10110000D5880B0ED46EDC0ED36ED58E1200106A0D
:101110000F6A11901192000106EF08F0F28C0E0197
:0A112000298B339B1F8BF28E120007
:020000040030CA
:02000000AAFF55
:020004009FFF5C
:00000001FF
