:0400000027EF00F0F6
:100008000B820E0133AB0BEF00F00DEF00F025EF84
:1000180000F080A612EF00F016EF00F0016A012A46
:1000280017EF00F0016A01460146014680500118A9
:10003800F70B0118806E0B0ED46EDC0ED36E0E011A
:0A004800339B0B92110058EF07F0F4
:100E00000000809688964BEC07F0000E086E460EA8
:100E1000076E33EC07F002C009F003C00AF0075078
:100E2000095C08500A58D8B018EF07F01AEF07F01D
:100E30002EEF07F080A61FEF07F023EF07F0066AFA
:100E4000062A24EF07F0066A064606460646805044
:100E50000618F70B0618806E09EF07F0809609EF69
:100E600007F027EF00F0608060B039EF07F03BEF4C
:100E700007F034EF07F064CF04F0056A0450FF0870
:100E8000046E0550D8A0E82A0008056E04C002F0E0
:100E900005C003F0120081860E0192870F01589958
:100EA000FC0E5817030E5F6F60946088608E12000E
:0A0EB0000B900B92000101EF07F018
:020000040030CA
:02000000AAFF55
:020004009FFF5C
:00000001FF
