:0400000027EF00F0F6
:1000080021820E0133AB0BEF00F00DEF00F025EF6E
:1000180000F080A612EF00F016EF00F0016A012A46
:1000280017EF00F0016A01460146014680500118A9
:10003800F70B0118806E0B0ED46EDC0ED36E0E011A
:0A004800339B219211009FEF0AF094
:100E000000000E501024126E0F501120136E0A5065
:100E1000125C0B501358D8B010EF07F012EF07F028
:100E20002BEF07F010C012F011C013F0D89012365B
:100E300013360E5012260F5013220A50125C0B501C
:100E40001358D8A026EF07F028EF07F02BEF07F094
:100E50007F802CEF07F07F9010C012F011C013F0CC
:100E6000D890123613360E5012260F5013220A5005
:100E7000125C0B501358D8B040EF07F042EF07F068
:100E80005EEF07F010C002F011C003F0000E056E17
:100E9000030E046E7FEC0AF00E5002260F50032260
:100EA0000A50025C0B500358D8A059EF07F05BEFD3
:100EB00007F05EEF07F07F825FEF07F07F9210C0D0
:100EC00002F011C003F0000E056E030E046E7FECFD
:100ED0000AF00E5002260F5003220A50025C0B50FB
:100EE0000358D8B076EF07F078EF07F094EF07F0EB
:100EF00010C012F011C013F0D89012361336D890EB
:100F0000123613360E5012260F5013220A50125C5E
:100F10000B501358D8A08FEF07F091EF07F094EF24
:100F200007F0798495EF07F0799410C012F011C0A2
:100F300013F0D89012361336D890123613360E505E
:100F400012260F5013220A50125C0B501358D8B0BF
:100F5000ACEF07F0AEEF07F0CAEF07F010C002F0F9
:100F600011C003F0000E056E050E046E7FEC0AF052
:100F70000E5002260F5003220A50025C0B500358F9
:100F8000D8A0C5EF07F0C7EF07F0CAEF07F07E8CD7
:100F9000CBEF07F07E9C10C002F011C003F0000EF2
:100FA000056E050E046E7FEC0AF00E5002260F50FF
:100FB00003220A50025C0B500358D8B0E2EF07F04E
:100FC000E4EF07F000EF08F010C002F011C003F0EA
:100FD000000E056E060E046E7FEC0AF00E5002261F
:100FE0000F5003220A50025C0B500358D8A0FBEFAD
:100FF00007F0FDEF07F000EF08F0798801EF08F047
:10100000799810C002F011C003F0000E056E060EB4
:10101000046E7FEC0AF00E5002260F5003220A5095
:10102000025C0B500358D8B018EF08F01AEF08F024
:1010300036EF08F010C002F011C003F0000E056E8C
:10104000070E046E7FEC0AF00E5002260F500322AA
:101050000A50025C0B500358D8A031EF08F033EF70
:1010600008F036EF08F0798A37EF08F0799A10C067
:1010700002F011C003F0000E056E070E046E7FEC47
:101080000AF00E5002260F5003220A50025C0B5049
:101090000358D8B04EEF08F050EF08F06FEF08F0AB
:1010A00010C012F011C013F0D89012361336D89039
:1010B00012361336D890123613360E5012260F50B1
:1010C00013220A50125C0B501358D8A06AEF08F094
:1010D0006CEF08F06FEF08F07E8070EF08F07E9004
:1010E00010C012F011C013F0D89012361336D890F9
:1010F00012361336D890123613360E5012260F5071
:1011000013220A50125C0B501358D8B08AEF08F023
:101110008CEF08F0A8EF08F010C002F011C003F047
:10112000000E056E090E046E7FEC0AF00E500226CA
:101130000F5003220A50025C0B500358D8A0A3EFB3
:1011400008F0A5EF08F0A8EF08F07A80A9EF08F002
:101150007A9010C002F011C003F0000E056E090E67
:10116000046E7FEC0AF00E5002260F5003220A5044
:10117000025C0B500358D8B0C0EF08F0C2EF08F083
:10118000C5EF08F07A82C6EF08F07A920E5010246C
:10119000126E0F501120136E0850125C0950135834
:1011A000D8B0D5EF08F0D7EF08F0D8EF08F07F807F
:1011B00010C012F011C013F0D890123613360E5032
:1011C00012260F5013220850125C09501358D8B041
:1011D000ECEF08F0EEEF08F0EFEF08F07F8210C0C0
:1011E00002F011C003F0000E056E030E046E7FECDA
:1011F0000AF00E5002260F5003220850025C0950DC
:101200000358D8B006EF09F008EF09F009EF09F02C
:10121000798410C012F011C013F0D8901236133632
:10122000D890123613360E5012260F501322085043
:10123000125C09501358D8B020EF09F022EF09F0E2
:1012400023EF09F07E8C10C002F011C003F0000EF5
:10125000056E050E046E7FEC0AF00E5002260F504C
:1012600003220850025C09500358D8B03AEF09F045
:101270003CEF09F03DEF09F0798810C002F011C091
:1012800003F0000E056E060E046E7FEC0AF00E50A1
:1012900002260F5003220850025C09500358D8B0B0
:1012A00054EF09F056EF09F057EF09F0798A10C0B2
:1012B00002F011C003F0000E056E070E046E7FEC05
:1012C0000AF00E5002260F5003220850025C09500B
:1012D0000358D8B06EEF09F070EF09F071EF09F024
:1012E0007E8010C012F011C013F0D8901236133661
:1012F000D89012361336D890123613360E50122666
:101300000F5013220850125C09501358D8B08BEFBD
:1013100009F08DEF09F08EEF09F07A8010C002F02D
:1013200011C003F0000E056E090E046E7FEC0AF08A
:101330000E5002260F5003220850025C0950035839
:10134000D8B0A5EF09F0A7EF09F0A8EF09F07A826D
:1013500012006CEC0AF092EC0AF0000E186EAA0E65
:10136000176E000E1A6E460E196E000E036E640E96
:10137000026E000E056E090E046E1AEC0AF002C031
:101380001BF003C01CF0000E1E6E000E1D6E000E42
:10139000166E000E156E54EC0AF002501D5C0350E0
:1013A0001E58D8B0D6EF09F0D8EF09F0E0EF09F0F9
:1013B00054EC0AF002C01DF003C01EF0FEEF09F06D
:1013C000154A162AD00E146ECA0EE82EFED7142E19
:1013D000FCD7165009E1650E155CD8A0F2EF09F0B4
:1013E000F4EF09F0FEEF09F01B501D5C1D6E1C5060
:1013F0001E581E6E000E166E000E156E54EC0AF08E
:1014000002C008F003C009F01DC00AF01EC00BF0B6
:1014100017C00CF018C00DF019C00EF01AC00FF074
:101420001BC010F01CC011F001EC07F0CBEF09F06D
:1014300027EF00F0000E076E000E066E0450051038
:10144000D8B425EF0AF027EF0AF04FEF0AF0010EAB
:10145000086E2FEF0AF0D89004360536082A05AE3C
:1014600034EF0AF036EF0AF02BEF0AF0D890063688
:1014700007360450025C05500358D8A042EF0AF02A
:1014800044EF0AF049EF0AF00450025E0550035A97
:101490000680D89005320432082E36EF0AF006C0D6
:1014A00002F007C003F01200608060B05AEF0AF04B
:1014B0005CEF0AF055EF0AF064CF04F0056A0450BF
:1014C000FF08046E0550D8A0E82A0008056E04C085
:1014D00002F005C003F0120087907F8087927F8220
:1014E00081947984869C7E8C81987988819A798A86
:1014F00086907E8082907A8082927A821200025058
:101500000402F3CF06F0F4CF07F002500502F350C7
:10151000072603500402F350072606C002F007C056
:1015200003F0120081860E0192870F015899FC0E7C
:101530005817030E5F6F60946088608E1200206AF7
:0C1540001F6A219021920001A9EF09F020
:020000040030CA
:02000000AAFF55
:020004009FFF5C
:00000001FF
