:0400000018EF00F005
:100008004B820E0133AB0BEF00F00DEF00F016EF53
:1000180000F00B0ED46EDC0ED36E0001A64BA72B9E
:0C0028000E01339B4B92110097EF0EF07D
:100E00000054696D653A253032643A253032643ACF
:100E1000253032642044253031640054696D653AD0
:100E200020253032643A253032643A25303464006B
:100E3000446174653A253032642F253032642F25A1
:050E40003034640000E5
:100E460020EEA8F010EE17F0170EDBCFE3FFE80652
:100E5600FCE20F041010D8A433EF07F035EF07F0CB
:100E660057EF07F00750D96EDA6A0950E16EE26A69
:100E7600DECFE6FFDDCFE5FF0750D96EDA6A010E59
:100E8600DBBE50EF07F0010EDB5009E1180EDE5C09
:100E9600D8A050EF07F052EF07F057EF07F00750D2
:100EA600D96EDA6ADE6ADD6A0750D96EDA6A010E31
:100EB600DBBE68EF07F0010EDB5009E13C0EDE5C9D
:100EC600D8A068EF07F06AEF07F081EF07F0075048
:100ED600D96EDA6ADE6ADD6A0850D96EDA6ADECF62
:100EE60011F0DDCF12F0010E1126000E122208506D
:100EF600D96EDA6A11C0DEFF12C0DDFF0850D96E66
:100F0600DA6A010EDBBE92EF07F0010EDB5009E153
:100F16003C0EDE5CD8A092EF07F094EF07F0ABEF43
:100F260007F00850D96EDA6ADE6ADD6A0950D96EB2
:100F3600DA6ADECF11F0DDCF12F0010E1126000EB7
:100F460012220950D96EDA6A11C0DEFF12C0DDFF27
:100F56000950D96EDA6A010EDBBEBCEF07F0010E4E
:100F6600DB5009E1180EDE5CD8A0BCEF07F0BEEF3F
:100F760007F0E7EF07F00950D96EDA6ADE6ADD6A34
:100F86000A50D96EDA6ADECF11F0DDCF12F0010E0B
:100F96001126000E12220A50D96EDA6A11C0DEFF3F
:100FA60012C0DDFF0B50D96EDA6ADECF11F0DDCF4D
:100FB60012F0010E1126000E12220B50D96EDA6ABB
:100FC60011C0DEFF12C0DDFF0B50D96EDA6A010ECA
:100FD600DBBEF8EF07F0010EDB5009E1080EDE5C20
:100FE600D8A0F8EF07F0FAEF07F001EF08F00B5082
:100FF600D96EDA6A010EDE6E000EDD6E0E50D96E07
:10100600DA6ADE50DE10D8A40BEF08F00DEF08F018
:1010160065EF08F00C50D96EDA6A030EDE18DE10A2
:10102600D8A418EF08F01AEF08F065EF08F00A5098
:10103600D96EDA6A010EDBBE2BEF08F0010EDB502B
:1010460009E1190EDE5CD8A02BEF08F02DEF08F0B1
:1010560065EF08F00B50D96EDA6A070EDE18DE105F
:10106600D8A438EF08F03AEF08F065EF08F0095019
:10107600D96EDA6A010EDBBE4AEF08F0010EDB50CC
:1010860008E1DE04D8A04AEF08F04CEF08F065EF5F
:1010960008F00950D96EDA6ADECF11F0DDCF12F012
:1010A6000A0E1126000E12220950D96EDA6A11C0F4
:1010B600DEFF12C0DDFF0E50D96EDA6A010EDE6E5B
:1010C600000EDD6E0E50D96EDA6ADE04DE10D8A48C
:1010D6006FEF08F071EF08F0C4EF08F00C50D96E0E
:1010E600DA6A0A0EDE18DE10D8A47CEF08F07EEF6E
:1010F60008F0C4EF08F00A50D96EDA6A010EDBBEBA
:101106008FEF08F0010EDB5009E1190EDE5CD8A066
:101116008FEF08F091EF08F0C4EF08F00B50D96E8E
:10112600DA6A070EDE18DE10D8A49CEF08F09EEFF0
:1011360008F0C4EF08F00950D96EDA6A020EDE181C
:10114600DE10D8A4A9EF08F0ABEF08F0C4EF08F062
:101156000950D96EDA6ADECF11F0DDCF12F0FF0E3C
:101166001124136EFF0E1220146E0950D96EDA6A1E
:1011760013C0DEFF14C0DDFF0E50D96EDA6ADE6AD8
:10118600DD6A0D50D96EDA6ADECF11F0DDCF12F0CE
:10119600030E1116000E121611501210D8A4D6EF17
:1011A60008F0D8EF08F0E9EF08F00C50D96EDA6ACB
:1011B600020EDE18DE10D8A4E3EF08F0E5EF08F023
:1011C600E9EF08F0000E1A6E1D0E196E0D50D96E5D
:1011D600DA6ADECF01F0DDCF02F0000E046E640E97
:1011E600036EF9EC0CF001500210D8A4FDEF08F0E4
:1011F600FFEF08F026EF09F00C50D96EDA6A020EFE
:10120600DE18DE10D8A40AEF09F00CEF09F026EF7D
:1012160009F00D50D96EDA6ADECF01F0DDCF02F0AB
:10122600010E046E900E036EF9EC0CF001500210E4
:10123600D8B420EF09F022EF09F026EF09F0000EEE
:101246001A6E1C0E196E0A50D96EDA6A0C50E16ECF
:10125600E26AE750020DF3CF13F0FE0E1326135089
:10126600170FE16EE26ADE50E65CE650800A166E03
:10127600DE50800A1658D8B043EF09F045EF09F062
:101286008AEF09F00A50D96EDA6A010EDE6E000E98
:10129600DD6E0C50D96EDA6ADECF11F0DDCF12F0BA
:1012A600010E1126000E12220C50D96EDA6A11C0F8
:1012B600DEFF12C0DDFF0C50D96EDA6A010EDBBE0E
:1012C6006FEF09F0010EDB5009E10D0EDE5CD8A0D0
:1012D6006FEF09F071EF09F08AEF09F00C50D96E43
:1012E600DA6A010EDE6E000EDD6E0D50D96EDA6A18
:1012F600DECF11F0DDCF12F0010E1126000E122204
:101306000D50D96EDA6A11C0DEFF12C0DDFF120081
:101316002150D96EDA6ADFCFF6FF0E0EF76E000E99
:10132600F86E0800F550250AD8A49CEF09F09EEF48
:1013360009F038EF0AF02150D96EDA6ADF2A000E7A
:10134600476E000E466E46C04AF048684968000E71
:10135600296ED4EF09F04A822150D96EDA6ADF2A63
:10136600D4EF09F0010E296ED4EF09F02150D96EA1
:10137600DA6ADFCFF6FF0E0EF76E000EF86E080083
:10138600F550236E246A2450000AD8B4CDEF09F034
:10139600B5EF09F02350300AD8B4AEEF09F0B5EF37
:1013A60009F02950D8B4DAEF09F0DCEF09F0B9EF0B
:1013B60009F021C007F022C008F051EC0DF007C07B
:1013C60046F008C047F047BEEDEF09F0EBEF09F035
:1013D600F2EF09F04A80466C471ED8B0472A2150E2
:1013E600D96EDA6ADF502A6E2AC0F6FF0E0EF76E45
:1013F600000EF86E0800F550640AD8B405EF0AF03E
:1014060007EF0AF017EF0AF02AC0F6FF0E0EF76E86
:10141600000EF86E0800F550690AD8A415EF0AF018
:1014260017EF0AF032EF0AF02250D96EDA6A020E8E
:10143600DF26DF5CD96EDA6ADECF25F0DECF26F056
:101446002150D96EDA6A2A28DF6E20C015F025C031
:1014560016F026C017F04CEC0AF04BEF0AF02150BC
:10146600D96EDA6ADF2A4BEF0AF02150D96EDA6AB2
:10147600DFCFF6FF0E0EF76E000EF86E0800F55081
:10148600016E026A20C003F0A8EC0DF032EF0AF0FC
:101496001200010E1A6E17BE53EF0AF056EF0AF04D
:1014A600010E57EF0AF0000E1D6E46C01BF047C036
:1014B6001CF01D50D8B462EF0AF064EF0AF07BEF1F
:1014C6000AF01B06D8A01C061D50D8A46DEF0AF022
:1014D6006FEF0AF075EF0AF0000E196E2B0E186EFC
:1014E60079EF0AF0000E196E2D0E186E18C01DF059
:1014F600000E1F6E1F0E1E6E000E0001A56FB1EFCF
:101506000AF01E06D8A01F061E50860FD96EDA6A8C
:1015160016C001F017C002F0000E046E0A0E036E2C
:10152600F9EC0CF001C007F002C008F00CEC0FF06B
:101536000750300FDF6E000E1A6E1B06D8A01C0671
:1015460016C001F017C002F0000E046E0A0E036EFC
:1015560097EC0CF001C016F002C017F01FBEBCEFEE
:101566000AF01F5008E11E04D8A0BCEF0AF0BEEF37
:101576000AF0E3EF0AF016501710D8A4C5EF0AF0E8
:10158600C7EF0AF084EF0AF01A50D8A4CDEF0AF09C
:10159600CFEF0AF084EF0AF01CBEDAEF0AF01C5017
:1015A60008E11B04D8A0DAEF0AF0DCEF0AF0E3EF5B
:1015B6000AF04AB2E1EF0AF0E3EF0AF084EF0AF02C
:1015C6001D50D8B4E9EF0AF0EBEF0AF0F4EF0AF099
:1015D6001E06D8A01F061E50860FD96EDA6A1DC0D9
:1015E600DFFF15C00EF01E50860F0F6E1BC010F0E9
:1015F6001CC011F0FDEC0DF0120050EC0FF075EC74
:101606000FF0A5EC0FF0A3EC0BF085EC0FF0849E29
:101616007C9E88968096000E0001A76F370EA66FF7
:10162600000E796F3B0E786F000E7B6F000E7A6F9F
:10163600000E7D6F1F0E7C6F000E7F6F070E7E6F94
:10164600000E816F030E806F070E836FE80E826FA8
:10165600000E856F000E846F000E756F010E746F9D
:10166600A6C076F0A7C077F0000E776F000E766FF3
:101676007AC0A6F07BC0A7F0000174517511D8A4FA
:1016860047EF0BF049EF0BF04DEF0BF0A6C076F0ED
:10169600A7C077F0A60E076E780E086E7A0E096E52
:1016A6007C0E0A6E7E0E0B6E800E0C6E820E0D6E1A
:1016B600840E0E6E74C00FF075C010F023EC07F0A8
:1016C6007AC001F07BC002F033EC0CF0010ED5ECD1
:1016D6000EF0600E2F6E010E306E7AC031F07BC0B8
:1016E60032F078C033F079C034F076C035F077C088
:1016F60036F07EC037F07FC038F0F2EC0EF0600EA8
:10170600046E26EC0FF0020ED5EC0EF0600E2F6E76
:10171600300E306E7CC031F07DC032F080C033F0C8
:1017260081C034F082C035F083C036F0F2EC0EF0A2
:10173600600E046E26EC0FF03FEF0BF018EF00F092
:1017460082967A9682947A9485967D9685927D92F3
:1017560083947B94839C7B9C0D0E056E2D0E046EEC
:10176600D80EE82EFED7042EFCD7052EFAD7030E88
:1017760042EC0EF0680E046EE40EE82EFED7042E40
:10178600FCD700D0030E42EC0EF0040E046E1C0EC5
:10179600E82EFED7042EFCD700D0030E42EC0EF046
:1017A600040E046E1C0EE82EFED7042EFCD700D0C5
:1017B600020E42EC0EF0040E046E1C0EE82EFED74E
:1017C600042EFCD700D0000E026E2C0E63EC0FF038
:1017D600E40E00D000D0E82EFCD700D000D0000EDA
:1017E600026E080E63EC0FF0090E056E1E0E046EF7
:1017F600E40EE82EFED7042EFCD7052EFAD700D02D
:10180600000E026E010E63EC0FF0680E046EE40E1D
:10181600E82EFED7042EFCD700D0000E026E060E70
:1018260063EC0FF0090E056E1E0E046EE40EE82E34
:10183600FED7042EFCD7052EFAD700D0000E026E76
:101846000C0E63EC0FF0090E056E1E0E046EE40E10
:10185600E82EFED7042EFCD7052EFAD700D01200AC
:1018660001A038EF0CF03AEF0CF03DEF0CF07F8062
:101876003EEF0CF07F9001A243EF0CF045EF0CF029
:1018860048EF0CF07F8249EF0CF07F9201A44EEFF7
:101896000CF050EF0CF053EF0CF0798454EF0CF091
:1018A600799401A659EF0CF05BEF0CF05EEF0CF0AB
:1018B6007E8C5FEF0CF07E9C01A864EF0CF066EF67
:1018C6000CF069EF0CF079886AEF0CF0799801AAB0
:1018D6006FEF0CF071EF0CF074EF0CF0798A75EF86
:1018E6000CF0799A01AC7AEF0CF07CEF0CF07FEFFC
:1018F6000CF07E8080EF0CF07E9001AE85EF0CF050
:1019060087EF0CF08AEF0CF07A808BEF0CF07A9070
:1019160002A090EF0CF092EF0CF095EF0CF07A82AB
:1019260096EF0CF07A921200000E066E04BEA0EF3F
:101936000CF09EEF0CF0A6EF0CF0036C041ED8B072
:10194600042A010E066E02BEADEF0CF0ABEF0CF0F2
:10195600B3EF0CF0016C021ED8B0022A010E061A73
:10196600000E086E000E076E03500410D8B4BEEFCA
:101976000CF0C0EF0CF0E8EF0CF0010E056EC8EFAE
:101986000CF0D89003360436052A04AECDEF0CF0E1
:10199600CFEF0CF0C4EF0CF0D890073608360350A2
:1019A600015C04500258D8A0DBEF0CF0DDEF0CF020
:1019B600E2EF0CF00350015E0450025A0780D89003
:1019C60004320332052ECFEF0CF00650D8B4EEEFFA
:1019D6000CF0F0EF0CF0F4EF0CF0076C081ED8B02A
:1019E600082A07C001F008C002F01200000E066EB9
:1019F60002BE02EF0DF000EF0DF008EF0DF0016CE6
:101A0600021ED8B0022A010E066E04BE0FEF0DF0BC
:101A16000DEF0DF013EF0DF0036C041ED8B0042A81
:101A260003500410D8B41AEF0DF01CEF0DF040EF80
:101A36000DF0010E056E24EF0DF0D8900336043636
:101A4600052A04AE29EF0DF02BEF0DF020EF0DF077
:101A56000350015C04500258D8A034EF0DF036EF65
:101A66000DF03AEF0DF00350015E0450025AD89083
:101A760004320332052E2BEF0DF00650D8B446EF94
:101A86000DF048EF0DF04CEF0DF0016C021ED8B0D2
:101A9600022A01C001F002C002F01200000E0B6E15
:101AA600000E0A6E0750D96EDA6ADFCFF6FF0E0E09
:101AB600F76E000EF86E0800F5502A0AD8A466EFF5
:101AC6000DF068EF0DF08EEF0DF00750D96EDA6A63
:101AD600DF2A0850D96EDA6A020EDF26DF5CD96E7D
:101AE600DA6ADECF0AF0DECF0BF0A3EF0DF00AC004
:101AF60001F00BC002F0000E046E0A0E036E3DEC00
:101B06000FF0095001240A6E000E02200B6E0750DA
:101B1600D96EDA6ADF2A0750D96EDA6ADFCFF6FFA6
:101B26000E0EF76E000EF86E0800F550D00F096E17
:101B3600090E0964A1EF0DF0A3EF0DF07AEF0DF099
:101B46000AC007F00BC008F012000350D8B4AEEF7D
:101B56000DF0B0EF0DF0B8EF0DF00350D8A4B6EFCE
:101B66000DF0B8EF0DF0BDEF0DF00150ACEC0FF03D
:101B7600FCEF0DF00350D96EDA6A0A0ED926DE5054
:101B8600DE10D8B4C9EF0DF0CBEF0DF0E4EF0DF099
:101B96000350D96EDA6A0A0ED9260350E16EE26A5C
:101BA600030EE126DE50E65CE650800A086EDE5043
:101BB600800A0858D8B0E2EF0DF0E4EF0DF0FCEF24
:101BC6000DF00350D96EDA6A030ED926DF50046E83
:101BD6000350D96EDA6ADF500424D96EDA6A01C07E
:101BE600DFFF0350D96EDA6A030ED926DE2A000E0D
:101BF600DD2212004AA002EF0EF004EF0EF00AEF0B
:101C06000EF00FC009F00EC00AF0B7EC0EF011BED0
:101C160011EF0EF00FEF0EF015EF0EF0000E116E35
:101C2600000E106E000E146E000E136E25EF0EF0F1
:101C3600000E026E200E016E0EC003F0A8EC0DF031
:101C4600134A142A1050135C1450800A126E115055
:101C5600800A1258D8A032EF0EF034EF0EF01BEFC8
:101C66000EF04AB039EF0EF03BEF0EF041EF0EF0FA
:101C76000FC009F00EC00AF0B7EC0EF01200016EAC
:101C860001A048EF0EF04AEF0EF04DEF0EF07A8607
:101C96004EEF0EF07A9601A253EF0EF055EF0EF0CE
:101CA60058EF0EF07A8459EF0EF07A9401A45EEFA5
:101CB6000EF060EF0EF063EF0EF07D8664EF0EF02F
:101CC6007D9601A669EF0EF06BEF0EF06EEF0EF04B
:101CD6007D826FEF0EF07D929EEC0FF01A0EE82ECD
:101CE600FED700D012002CC02EF082EF0EF02BC0D3
:101CF60020F02E0E216E2DC022F08BEC09F02EC0A6
:101D0600F6FF0E0EF76E000EF86E0800F55000098D
:101D1600D8A490EF0EF092EF0EF07AEF0EF0000ED0
:101D26002C6E000E2B6E1200240EF66E1F0EF76E32
:101D3600000EF86E00EEA8F010EE18F00900F5CFD0
:101D4600EEFFE550E150FAE100EE86F0220EEE6A73
:101D5600E806FDE14A6A496A486A476A466A4B905C
:101D66004B92000100EF0BF0000E0D6E000E0C6E94
:101D7600C6EF0EF00BC001F0026A0AC003F0A8EC31
:101D86000DF00C4A0D2A09500C24D96EDA6ADF5080
:101D96000B6E0B50D8A4D2EF0EF0D4EF0EF0BDEFC1
:101DA6000EF01200046E020E0418D8A4DDEF0EF039
:101DB600DFEF0EF0E4EF0EF0000E026EC00E63ECE5
:101DC6000FF00404D8A4EAEF0EF0ECEF0EF0F1EFFA
:101DD6000EF0000E026E800E63EC0FF01200310E54
:101DE600396E2FC03AF0000E3E6E000E3D6E000EAC
:101DF600456E000E446E3A0E2B6E30C02CF0390E36
:101E06002D6E76EC0EF02F503D24D96EDA6ADF6A1D
:101E1600120008BE11EF0FF013EF0FF019EF0FF0DD
:101E260007C007F008C008F025EF0FF007C009F05B
:101E360008C00AF0091E0A1E094A0A2A09C007F044
:101E46000AC008F0120031EF0FF0010E026E0450C6
:101E5600D96EDA6ADF5063EC0FF0042A0450D96EAB
:101E6600DA6ADF50D8A43AEF0FF03CEF0FF028EF14
:101E76000FF0120001500302F3CF05F0F4CF06F085
:101E860001500402F350062602500302F3500626C0
:101E960005C001F006C002F0120087907F9087927D
:101EA6007F9281947994869C7E9C81987998819A78
:101EB600799A86907E9082907A9082927A92120097
:101EC600036E02B002D07B9C01D07B8C03380F0BD3
:101ED60042EC0EF0035042EC0EF0A00E00D0E82EBD
:101EE600FDD71200D6501F0B4009D66ED688D650A5
:101EF600F00B0809D66ED5880B0ED46EDC0ED36EA9
:101F0600D58E120081860E0192870F015899FC0E1C
:101F16005817030E5F6F60946088608E12001F0072
:101F26001C001F001E001F001E001F001F001E00B9
:101F36001F001E001F007B840A0EE82EFED700D06D
:101F46007B941200F28C0E01298B339B1F8BF28E31
:041F56001200120063
:020000040030CA
:02000000AAFF55
:020004009FFF5C
:00000001FF
