:0400000016EF00F007
:1000080011820E0133AB0BEF00F00DEF00F014EF8F
:1000180000F00B0ED46EDC0ED36E0F4A102A339B01
:0800280011921100A7EF08F08E
:100E000000000150D96EDA6A0350E16EE26ADECF6B
:100E1000E6FFDDCFE5FF0150D96EDA6A010EDBBED9
:100E20001CEF07F0010EDB5009E1180EDE5CD8A0C4
:100E30001CEF07F01EEF07F03AEF07F00150D96EF4
:100E4000DA6ADE6ADD6A0350D96EDA6ADE6ADD6A62
:100E50000450D96EDA6ADECF05F0DDCF06F0010E60
:100E60000526000E06220450D96EDA6A05C0DEFFA0
:100E700006C0DDFF0150D96EDA6A010EDBBE4BEF12
:100E800007F0010EDB5009E13C0EDE5CD8A04BEF11
:100E900007F04DEF07F064EF07F00150D96EDA6A02
:100EA000DE6ADD6A0250D96EDA6ADECF05F0DDCF88
:100EB00006F0010E0526000E06220250D96EDA6AEF
:100EC00005C0DEFF06C0DDFF0250D96EDA6A010EF2
:100ED000DBBE75EF07F0010EDB5009E13C0EDE5C76
:100EE000D8A075EF07F077EF07F08EEF07F002500C
:100EF000D96EDA6ADE6ADD6A0350D96EDA6ADECF4D
:100F000005F0DDCF06F0010E0526000E0622035087
:100F1000D96EDA6A05C0DEFF06C0DDFF0350D96E68
:100F2000DA6A010EDBBE9FEF07F0010EDB5009E12C
:100F3000180EDE5CD8A09FEF07F0A1EF07F0B8EF26
:100F400007F00350D96EDA6ADE6ADD6A0450D96EA2
:100F5000DA6ADECF05F0DDCF06F0010E0526000EC1
:100F600006220450D96EDA6A05C0DEFF06C0DDFF36
:100F7000120001A0BEEF07F0C0EF07F0C3EF07F0CB
:100F80007F80C4EF07F07F9001A2C9EF07F0CBEF9D
:100F900007F0CEEF07F07F82CFEF07F07F9201A43A
:100FA000D4EF07F0D6EF07F0D9EF07F07984DAEF46
:100FB00007F0799401A6DFEF07F0E1EF07F0E4EF27
:100FC00007F07E8CE5EF07F07E9C01A8EAEF07F0C2
:100FD000ECEF07F0EFEF07F07988F0EF07F0799882
:100FE00001AAF5EF07F0F7EF07F0FAEF07F0798ABB
:100FF000FBEF07F0799A01AC00EF08F002EF08F080
:1010000005EF08F07E8006EF08F07E9001AE0BEF52
:1010100008F00DEF08F010EF08F07A8011EF08F0FB
:101020007A9002A016EF08F018EF08F01BEF08F016
:101030007A821CEF08F07A9212007DEC08F090ECB6
:1010400008F0A0EC08F0849E7C9E88968096000EA6
:10105000106E000E0F6E000E0A6E000E096E000E6E
:101060000C6E000E0B6E000E0E6E010E0D6E0BC0A0
:101070000FF00CC010F00FC007F010C008F00F0EFA
:10108000016E090E026E0B0E036E0D0E046E01EC66
:1010900007F00BC001F00CC002F0B9EC07F00DB086
:1010A00054EF08F056EF08F059EF08F07C8E5AEF35
:1010B00008F07C9E0CBE65EF08F00C5008E10B04B4
:1010C000D8A065EF08F067EF08F078EF08F00CBEE5
:1010D00075EF08F00C5007E1060E0B5CD8B073EF0B
:1010E00008F075EF08F078EF08F080963BEF08F015
:1010F00080863BEF08F016EF00F087907F90879294
:101100007F9281947994869C7E9C81987998819A2B
:10111000799A86907E9082907A9082927A9212004A
:10112000D6501F0B4009D66ED688D650F00B080952
:10113000D66ED5880B0ED46EDC0ED36ED58E120013
:10114000F28C0E01298B339B1F8BF28E12001190B3
:08115000119200011DEF08F0EF
:020000040030CA
:02000000AAFF55
:020004009FFF5C
:00000001FF
