:0400000016EF00F007
:1000080014820E0133AB0BEF00F00DEF00F014EF8C
:1000180000F00B0ED46EDC0ED36E094A0A2A339B0D
:080028001492110013EF08F01F
:100E00000000F0EC07F003EC08F01EEC08F0849E04
:100E10007C9E88968096000E116E000E106E000E5D
:100E20000F6E000E0E6E09C012F00AC013F00A50C9
:100E300009E1180E095CD8A020EF07F022EF07F0B7
:100E400026EF07F0000E0A6E000E096E0A5009E147
:100E50003C0E095CD8A02FEF07F031EF07F037EF19
:100E600007F0000E0A6E000E096E104A112A11508A
:100E700009E13C0E105CD8A040EF07F042EF07F00C
:100E800048EF07F0000E116E000E106E124A132A82
:100E9000135009E1180E125CD8A051EF07F053EF80
:100EA00007F059EF07F0000E136E000E126E0E4A97
:100EB0000F2A12C00BF013C00CF07BEC07F00950A6
:100EC0000A10D8B466EF07F068EF07F076EF07F086
:100ED0000A5007E1060E095CD8B071EF07F073EF16
:100EE00007F076EF07F0808613EF07F0809613EF98
:100EF00007F016EF00F07CAE80EF07F084EF07F00C
:100F00000D6A0D2A85EF07F00D6A0D320D327C5007
:100F10000D187F0B0D187C6E0BA091EF07F093EF6F
:100F200007F096EF07F07F8097EF07F07F900BA216
:100F30009CEF07F09EEF07F0A1EF07F07F82A2EF92
:100F400007F07F920BA4A7EF07F0A9EF07F0ACEF33
:100F500007F07984ADEF07F079940BA6B2EF07F0B4
:100F6000B4EF07F0B7EF07F07E8CB8EF07F07E9C88
:100F70000BA8BDEF07F0BFEF07F0C2EF07F07988CD
:100F8000C3EF07F079980BAAC8EF07F0CAEF07F094
:100F9000CDEF07F0798ACEEF07F0799A0BACD3EF5B
:100FA00007F0D5EF07F0D8EF07F07E80D9EF07F014
:100FB0007E900BAEDEEF07F0E0EF07F0E3EF07F017
:100FC0007A80E4EF07F07A900CA0E9EF07F0EBEFFE
:100FD00007F0EEEF07F07A82EFEF07F07A92120057
:100FE00087907F9087927F9281947994869C7E9C53
:100FF00081987998819A799A86907E9082907A9059
:1010000082927A921200D6501F0B4009D66ED68873
:10101000D650F00B0809D66ED5880B0ED46EDC0EB8
:10102000D36ED58E120000EE01F00A0EEE6AE806CD
:10103000FDE114901492000101EF07F0F28C0E0113
:0A104000298B339B1F8BF28E1200E8
:020000040030CA
:02000000AAFF55
:020004009FFF5C
:00000001FF
