:0400000018EF00F005
:100008000E820E0133AB0BEF00F00DEF00F016EF90
:1000180000F00B0ED46EDC0ED36E0101E04BE12B29
:0C0028000E01339B0E9211006EEF0AF0E7
:100E000000003EEC0AF051EC0AF079EC0AF0849E06
:100E10007C9E88968096000E0101E16F320EE06F95
:100E2000000EA36F3B0EA26F000EA56F0C0EA46FF9
:100E3000000EA76F010EA66F000E8B6F000E8A6F5B
:100E4000000E8D6F000E8C6F000E8F6F000E8E6F78
:100E5000A4C1E0F1A5C1E1F1000E456F1F0E446F82
:100E6000000E436F000E426F000E416F090E406F7F
:100E7000000E4B6F1C0E4A6F000E496F000E486F3C
:100E8000000E476F0D0E466F000E516F1F0E506F14
:100E9000000E4F6F000E4E6F000E4D6F080E4C6F20
:100EA000000E576F1E0E566F000E556F000E546FDA
:100EB000000E536F010E526F000E5D6F1F0E5C6FC0
:100EC000000E5B6F170E5A6F000E596F390E586F78
:100ED000000E636F1E0E626F000E616F000E606F7A
:100EE000000E5F6F010E5E6F000E696F1F0E686F60
:100EF000000E676F000E666F000E656F050E646F63
:100F0000000E6F6F1F0E6E6F000E6D6F000E6C6F18
:100F1000000E6B6F030E6A6F000E756F1E0E746FFE
:100F2000000E736F170E726F000E716F370E706FB9
:100F3000000E7B6F1F0E7A6F000E796F170E786FA1
:100F4000000E776F2F0E766F000E816F1E0E806F72
:100F5000000E7F6F170E7E6F000E7D6F2E0E7C6F62
:100F6000000E876F1F0E866F000E856F170E846F41
:100F7000000E836F380E826F000E916F070E906F18
:100F8000000E936F000E926F21EE00F00D0EDE6AE0
:100F9000E806FDE2010E956F000E946F21EE0EF053
:100FA0000D0EDE6AE806FDE2010E976F0E0E966FDB
:100FB000000E996F070E986F000E9B6F000E9A6FD0
:100FC00021EE1CF00D0EDE6AE806FDE2010E9D6FBB
:100FD0001C0E9C6F21EE2AF00D0EDE6AE806FDE283
:100FE000010E9F6F2A0E9E6F61EC0AF0000E010148
:100FF0003D6F460E3C6F000E3B6F000E3A6FA6C170
:1010000038F1A7C139F1E0C1A0F1E1C1A1F1E00ED1
:10101000016E010E026EA20E036E010E046EA40E8E
:10102000056E010E066EA60E076E010E086EBBEC75
:1010300008F0A4C101F0A5C102F086EC09F026EC8D
:101040000AF001C03EF102C03FF101013C513E5D9A
:101050003D513F59D8B02FEF08F031EF08F070EF55
:1010600008F0A5BF3CEF08F0A55108E1A405D8A001
:101070003CEF08F03EEF08F04CEF08F0A5BF4AEF58
:1010800008F0A55109E1050EA45DD8A04AEF08F0CB
:101090004CEF08F068EF08F0A5BF58EF08F0A55135
:1010A00009E1080EA45DD8A058EF08F05AEF08F047
:1010B0006BEF08F0A5BF68EF08F0A55107E10F0E30
:1010C000A45DD8B066EF08F068EF08F06BEF08F0A9
:1010D000809670EF08F08086000E9B6F000E9A6F6E
:1010E0003E513C5D3F513D59D8B079EF08F07BEF60
:1010F00008F080EF08F08096000E936F000E926F5C
:10110000A651385DA7513959D8B089EF08F08BEF57
:1011100008F003EF08F0000E936F000E926F000EC0
:101120009B6F000E9A6F3A4B3B2B7C8EA6C138F119
:10113000A7C139F1070E3A193B11D8A4A2EF08F064
:10114000A4EF08F003EF08F07C8E8086290E0D6E68
:10115000960E0C6E7F0EE82EFED70C2EFCD70D2EB1
:10116000FAD70000000E01013B6F000E3A6F03EF4B
:1011700008F018EF00F001C0D9FF02C0DAFF05C087
:10118000E1FF06C0E2FFDECFE6FFDDCFE5FF01C0F5
:10119000D9FF02C0DAFF010EDBBED9EF08F0010E65
:1011A000DB5009E1180EDE5CD8A0D9EF08F0DBEFC8
:1011B00008F0FBEF08F001C0D9FF02C0DAFFDE6AD9
:1011C000DD6A05C0D9FF06C0DAFFDE6ADD6A07C046
:1011D000D9FF08C0DAFFDECF09F0DDCF0AF0010E3B
:1011E0000926000E0A2207C0D9FF08C0DAFF09C08D
:1011F000DEFF0AC0DDFF01C0D9FF02C0DAFF010E29
:10120000DBBE0DEF09F0010EDB5009E13C0EDE5CA8
:10121000D8A00DEF09F00FEF09F029EF09F001C098
:10122000D9FF02C0DAFFDE6ADD6A03C0D9FF04C05D
:10123000DAFFDECF09F0DDCF0AF0010E0926000E3D
:101240000A2203C0D9FF04C0DAFF09C0DEFF0AC0CA
:10125000DDFF03C0D9FF04C0DAFF010EDBBE3BEFA8
:1012600009F0010EDB5009E13C0EDE5CD8A03BEF3B
:1012700009F03DEF09F057EF09F003C0D9FF04C0B2
:10128000DAFFDE6ADD6A05C0D9FF06C0DAFFDECF0D
:1012900009F0DDCF0AF0010E0926000E0A2205C072
:1012A000D9FF06C0DAFF09C0DEFF0AC0DDFF05C0B6
:1012B000D9FF06C0DAFF010EDBBE69EF09F0010EAF
:1012C000DB5009E1180EDE5CD8A069EF09F06BEF86
:1012D00009F085EF09F005C0D9FF06C0DAFFDE6A24
:1012E000DD6A07C0D9FF08C0DAFFDECF09F0DDCF25
:1012F0000AF0010E0926000E0A2207C0D9FF08C015
:10130000DAFF09C0DEFF0AC0DDFF120001A08BEF8B
:1013100009F08DEF09F090EF09F07F8091EF09F06F
:101320007F9001A296EF09F098EF09F09BEF09F08A
:101330007F829CEF09F07F9201A4A1EF09F0A3EF57
:1013400009F0A6EF09F07984A7EF09F0799401A6D6
:10135000ACEF09F0AEEF09F0B1EF09F07E8CB2EF1F
:1013600009F07E9C01A8B7EF09F0B9EF09F0BCEFD6
:1013700009F07988BDEF09F0799801AAC2EF09F068
:10138000C4EF09F0C7EF09F0798AC8EF09F0799A3C
:1013900001ACCDEF09F0CFEF09F0D2EF09F07E807C
:1013A000D3EF09F07E9001AED8EF09F0DAEF09F043
:1013B000DDEF09F07A80DEEF09F07A9002A0E3EF2A
:1013C00009F0E5EF09F0E8EF09F07A82E9EF09F0BA
:1013D0007A921200000E0B6E010E0A6E10EF0AF0E8
:1013E000000E0B6E060E0A6E20EE0CF00150D92690
:1013F0000250DA2210EE0AF00150E1260250E222F9
:10140000DECFE6FFDDCFE5FF20EE0CF00150D92660
:101410000250DA2205C0DEFF06C0DDFF0A4A0B2AB1
:10142000FF0E0324076EFF0E0420086E0A50075CAF
:101430000850800A096E0B50800A0958D8B023EF73
:101440000AF025EF0AF0F0EF09F01200608060B0BA
:101450002CEF0AF02EEF0AF027EF0AF064CF03F02A
:10146000046A0350FF08036E0450D8A0E82A00085D
:10147000046E03C001F004C002F0120087907F9058
:1014800087927F9281947994869C7E9C81987998AA
:10149000819A799A86907E9082907A9082927A92BE
:1014A0001200D6501F0B4009D66ED688D650F00BCE
:1014B0000809D66ED5880B0ED46EDC0ED36ED58E91
:1014C000120081860E0192870F015899FC0E581761
:1014D000030E5F6F60946088608E120001EEA8F0CA
:1014E000380EEE6AE806FDE10E900E92000101EF63
:1014F00007F0F28C0E01298B339B1F8BF28E1200AA
:020000040030CA
:02000000AAFF55
:020004009FFF5C
:00000001FF
