:0400000018EF00F005
:100008004E820E0133AB0BEF00F00DEF00F016EF50
:1000180000F00B0ED46EDC0ED36E0001E44BE52B22
:0C0028000E01339B4E921100C5EF0EF04C
:100E00000054696D653A253032643A253032643ACF
:100E1000253032642044253031640054696D653AD0
:100E200020253032643A253032643A25303464006B
:100E3000446174653A253032642F253032642F25A1
:050E40003034640000E5
:100E460020EECCF010EE17F0170EDBCFE3FFE8062E
:100E5600FCE20F041010D8A433EF07F035EF07F0CB
:100E660057EF07F00750D96EDA6A0950E16EE26A69
:100E7600DECFE6FFDDCFE5FF0750D96EDA6A010E59
:100E8600DBBE50EF07F0010EDB5009E1180EDE5C09
:100E9600D8A050EF07F052EF07F057EF07F00750D2
:100EA600D96EDA6ADE6ADD6A0750D96EDA6A010E31
:100EB600DBBE68EF07F0010EDB5009E13C0EDE5C9D
:100EC600D8A068EF07F06AEF07F081EF07F0075048
:100ED600D96EDA6ADE6ADD6A0850D96EDA6ADECF62
:100EE60011F0DDCF12F0010E1126000E122208506D
:100EF600D96EDA6A11C0DEFF12C0DDFF0850D96E66
:100F0600DA6A010EDBBE92EF07F0010EDB5009E153
:100F16003C0EDE5CD8A092EF07F094EF07F0ABEF43
:100F260007F00850D96EDA6ADE6ADD6A0950D96EB2
:100F3600DA6ADECF11F0DDCF12F0010E1126000EB7
:100F460012220950D96EDA6A11C0DEFF12C0DDFF27
:100F56000950D96EDA6A010EDBBEBCEF07F0010E4E
:100F6600DB5009E1180EDE5CD8A0BCEF07F0BEEF3F
:100F760007F0E7EF07F00950D96EDA6ADE6ADD6A34
:100F86000A50D96EDA6ADECF11F0DDCF12F0010E0B
:100F96001126000E12220A50D96EDA6A11C0DEFF3F
:100FA60012C0DDFF0B50D96EDA6ADECF11F0DDCF4D
:100FB60012F0010E1126000E12220B50D96EDA6ABB
:100FC60011C0DEFF12C0DDFF0B50D96EDA6A010ECA
:100FD600DBBEF8EF07F0010EDB5009E1080EDE5C20
:100FE600D8A0F8EF07F0FAEF07F001EF08F00B5082
:100FF600D96EDA6A010EDE6E000EDD6E0E50D96E07
:10100600DA6ADE50DE10D8A40BEF08F00DEF08F018
:1010160080EF08F00C50D96EDA6A030EDE18DE1087
:10102600D8A418EF08F01AEF08F080EF08F00A507D
:10103600D96EDA6A010EDBBE2BEF08F0010EDB502B
:1010460009E1190EDE5CD8A02BEF08F02DEF08F0B1
:1010560080EF08F00B50D96EDA6A070EDE18DE1044
:10106600D8A438EF08F03AEF08F080EF08F00950FE
:10107600D96EDA6A010EDBBE4AEF08F0010EDB50CC
:1010860008E1DE04D8A04AEF08F04CEF08F080EF44
:1010960008F00950D96EDA6ADECF11F0DDCF12F012
:1010A600010E1126000E12220950D96EDA6A11C0FD
:1010B600DEFF12C0DDFF0F041010D8A465EF08F0A4
:1010C60067EF08F079EF08F00750D96EDA6ADECFDD
:1010D60011F0DDCF12F0010E1126000E122207507C
:1010E600D96EDA6A11C0DEFF12C0DDFF0E50D96E6E
:1010F600DA6A010EDE6E000EDD6E0E50D96EDA6A09
:10110600DE04DE10D8A48AEF08F08CEF08F0FCEFBE
:1011160008F00C50D96EDA6A0A0EDE18DE10D8A472
:1011260097EF08F099EF08F0FCEF08F00A50D96E37
:10113600DA6A010EDBBEAAEF08F0010EDB5009E108
:10114600190EDE5CD8A0AAEF08F0ACEF08F0FCEFB1
:1011560008F00B50D96EDA6A070EDE18DE10D8A436
:10116600B7EF08F0B9EF08F0FCEF08F00950D96EB8
:10117600DA6A020EDE18DE10D8A4C4EF08F0C6EF55
:1011860008F0FCEF08F00950D96EDA6ADECF11F0EC
:10119600DDCF12F0FF0E1124136EFF0E1220146E17
:1011A6000950D96EDA6A13C0DEFF14C0DDFF0F04E2
:1011B6001010D8A4E1EF08F0E3EF08F0F7EF08F01D
:1011C6000750D96EDA6ADECF11F0DDCF12F0FF0ECE
:1011D6001124136EFF0E1220146E0750D96EDA6AB0
:1011E60013C0DEFF14C0DDFF0E50D96EDA6ADE6A68
:1011F600DD6A0D50D96EDA6ADECF11F0DDCF12F05E
:10120600030E1116000E121611501210D8A40EEF6E
:1012160009F010EF09F021EF09F00C50D96EDA6AE7
:10122600020EDE18DE10D8A41BEF09F01DEF09F040
:1012360021EF09F0000E1A6E1D0E196E0D50D96EB3
:10124600DA6ADECF01F0DDCF02F0000E046E640E26
:10125600036E44EC0DF001500210D8A435EF09F0EE
:1012660037EF09F05EEF09F00C50D96EDA6A020E1C
:10127600DE18DE10D8A442EF09F044EF09F05EEF65
:1012860009F00D50D96EDA6ADECF01F0DDCF02F03B
:10129600010E046E900E036E44EC0DF00150021028
:1012A600D8B458EF09F05AEF09F05EEF09F0000ED6
:1012B6001A6E1C0E196E0A50D96EDA6A0C50E16E5F
:1012C600E26AE750020DF3CF13F0FE0E1326135019
:1012D600170FE16EE26ADE50E65CE650800A166E93
:1012E600DE50800A1658D8B07BEF09F07DEF09F082
:1012F600C2EF09F00A50D96EDA6A010EDE6E000EF0
:10130600DD6E0C50D96EDA6ADECF11F0DDCF12F049
:10131600010E1126000E12220C50D96EDA6A11C087
:10132600DEFF12C0DDFF0C50D96EDA6A010EDBBE9D
:10133600A7EF09F0010EDB5009E10D0EDE5CD8A027
:10134600A7EF09F0A9EF09F0C2EF09F00C50D96E2A
:10135600DA6A010EDE6E000EDD6E0D50D96EDA6AA7
:10136600DECF11F0DDCF12F0010E1126000E122293
:101376000D50D96EDA6A11C0DEFF12C0DDFF120011
:101386002350D96EDA6ADFCFF6FF0E0EF76E000E27
:10139600F86E0800F550250AD8A4D4EF09F0D6EF68
:1013A60009F070EF0AF02350D96EDA6ADF2A000ED0
:1013B6004A6E000E496E49C04DF04B684C68000EEF
:1013C6002B6E0CEF0AF04D822350D96EDA6ADF2AB3
:1013D6000CEF0AF0010E2B6E0CEF0AF02350D96EBB
:1013E600DA6ADFCFF6FF0E0EF76E000EF86E080013
:1013F600F550256E266A2650000AD8B405EF0AF085
:10140600EDEF09F02550300AD8B4E6EF09F0EDEF1C
:1014160009F02B50D8B412EF0AF014EF0AF0F1EFEE
:1014260009F023C007F024C008F09CEC0DF007C0BB
:1014360049F008C04AF04ABE25EF0AF023EF0AF049
:101446002AEF0AF04D80496C4A1ED8B04A2A23502A
:10145600D96EDA6ADF502C6E2CC0F6FF0E0EF76ED0
:10146600000EF86E0800F550640AD8B43DEF0AF095
:101476003FEF0AF04FEF0AF02CC0F6FF0E0EF76EA4
:10148600000EF86E0800F550690AD8A44DEF0AF070
:101496004FEF0AF06AEF0AF02450D96EDA6A020EAC
:1014A600DF26DF5CD96EDA6ADECF27F0DECF28F0E2
:1014B6002350D96EDA6A2C28DF6E22C017F027C0B7
:1014C60018F028C019F084EC0AF083EF0AF02350D4
:1014D600D96EDA6ADF2A83EF0AF02350D96EDA6A08
:1014E600DFCFF6FF0E0EF76E000EF86E0800F55011
:1014F600016E026A22C003F0F3EC0DF06AEF0AF007
:101506001200010E1C6E19BE8BEF0AF08EEF0AF068
:10151600010E8FEF0AF0000E1F6E49C01DF04AC083
:101526001EF01F50D8B49AEF0AF09CEF0AF0B3EF02
:101536000AF01D06D8A01E061F50D8A4A5EF0AF073
:10154600A7EF0AF0ADEF0AF0000E1B6E2B0E1A6E17
:10155600B1EF0AF0000E1B6E2D0E1A6E1AC01FF0A8
:10156600000E216E1F0E206E000E0101676FEBEF5D
:101576000AF02006D8A02106480E2024D96E010EB6
:101586002120DA6E18C001F019C002F0000E046EB8
:101596000A0E036E44EC0DF001C007F002C008F01D
:1015A60094EC0FF00750300FDF6E000E1C6E1D0618
:1015B600D8A01E0618C001F019C002F0000E046E75
:1015C6000A0E036EE2EC0CF001C018F002C019F02E
:1015D60021BEF6EF0AF0215008E12004D8A0F6EF6C
:1015E6000AF0F8EF0AF01DEF0BF018501910D8A406
:1015F600FFEF0AF001EF0BF0BCEF0AF01C50D8A485
:1016060007EF0BF009EF0BF0BCEF0AF01EBE14EF6C
:101616000BF01E5008E11D04D8A014EF0BF016EFD6
:101626000BF01DEF0BF04DB21BEF0BF01DEF0BF0A7
:10163600BCEF0AF01F50D8B423EF0BF025EF0BF0E8
:1016460030EF0BF02006D8A02106480E2024D96ED4
:10165600010E2120DA6E1FC0DFFF17C00FF0480E03
:101666002024106E010E2120116E1DC012F01EC026
:1016760013F048EC0EF01200D8EC0FF0FDEC0FF072
:101686002DEC10F0EEEC0BF00DEC10F0849E7C9E31
:1016960088968096000E0001BB6F000EBA6F000E92
:1016A600E56F000EE46F000EBF6F3B0EBE6F000EBF
:1016B600C16F160EC06F000EC36F1C0EC26F000EF8
:1016C600C56F050EC46F000EC76F020EC66F070EFC
:1016D600C96FE80EC86F000ECB6F000ECA6F21EE01
:1016E60000F010EE72F0470EDBCFE3FFE806FCE2F7
:1016F600E4C0BCF0E5C0BDF00001BA51BB11D8A4EE
:1017060087EF0BF089EF0BF08DEF0BF0E4C0BCF028
:10171600E5C0BDF0E40E076EBE0E086EC00E096E83
:10172600C20E0A6EC40E0B6EC60E0C6EC80E0D6E81
:10173600CA0E0E6EBAC00FF0BBC010F023EC07F055
:10174600C0C001F0C1C002F07EEC0CF0010E5DECF1
:101756000FF0600E316E010E326EC0C033F0C1C0A4
:1017660034F0BEC035F0BFC036F0BCC037F0BDC0E7
:1017760038F0C4C039F0C5C03AF07AEC0FF0600E0C
:10178600046EAEEC0FF0020E5DEC0FF0600E316EE3
:10179600300E326EC2C033F0C3C034F0C6C035F06E
:1017A600C7C036F00001E451020DF3CF48F0300E09
:1017B60048264850720FD96EDA6ADECF37F0DDCF91
:1017C60038F07AEC0FF0600E046EAEEC0FF07FEF9F
:1017D6000BF018EF00F082967A9682947A948596AA
:1017E6007D9685927D9283947B94839C7B9C0D0E43
:1017F600056E2D0E046ED80EE82EFED7042EFCD7ED
:10180600052EFAD7030E91EC0EF0680E046EE40E68
:10181600E82EFED7042EFCD700D0030E91EC0EF076
:10182600040E046E1C0EE82EFED7042EFCD700D044
:10183600030E91EC0EF0040E046E1C0EE82EFED77D
:10184600042EFCD700D0020E91EC0EF0040E046EAE
:101856001C0EE82EFED7042EFCD700D0000E026E1A
:101866002C0EEBEC0FF0E40E00D000D0E82EFCD7E7
:1018760000D000D0000E026E080EEBEC0FF0090E41
:10188600056E1E0E046EE40EE82EFED7042EFCD75F
:10189600052EFAD700D0000E026E010EEBEC0FF00B
:1018A600680E046EE40EE82EFED7042EFCD700D098
:1018B600000E026E060EEBEC0FF0090E056E1E0E04
:1018C600046EE40EE82EFED7042EFCD7052EFAD7BA
:1018D60000D0000E026E0C0EEBEC0FF0090E056E3A
:1018E6001E0E046EE40EE82EFED7042EFCD7052E3F
:1018F600FAD700D0120001A083EF0CF085EF0CF0B0
:1019060088EF0CF07F8089EF0CF07F9001A28EEFBC
:101916000CF090EF0CF093EF0CF07F8294EF0CF04C
:101926007F9201A499EF0CF09BEF0CF09EEF0CF068
:1019360079849FEF0CF0799401A6A4EF0CF0A6EF42
:101946000CF0A9EF0CF07E8CAAEF0CF07E9C01A89F
:10195600AFEF0CF0B1EF0CF0B4EF0CF07988B5EF07
:101966000CF0799801AABAEF0CF0BCEF0CF0BFEFBF
:101976000CF0798AC0EF0CF0799A01ACC5EF0CF047
:10198600C7EF0CF0CAEF0CF07E80CBEF0CF07E9028
:1019960001AED0EF0CF0D2EF0CF0D5EF0CF07A8060
:1019A600D6EF0CF07A9002A0DBEF0CF0DDEF0CF036
:1019B600E0EF0CF07A82E1EF0CF07A921200000E62
:1019C600066E04BEEBEF0CF0E9EF0CF0F1EF0CF055
:1019D600036C041ED8B0042A010E066E02BEF8EF90
:1019E6000CF0F6EF0CF0FEEF0CF0016C021ED8B016
:1019F600022A010E061A000E086E000E076E03502C
:101A06000410D8B409EF0DF00BEF0DF033EF0DF025
:101A1600010E056E13EF0DF0D89003360436052A35
:101A260004AE18EF0DF01AEF0DF00FEF0DF0D89091
:101A3600073608360350015C04500258D8A026EF3A
:101A46000DF028EF0DF02DEF0DF00350015E045060
:101A5600025A0780D89004320332052E1AEF0DF091
:101A66000650D8B439EF0DF03BEF0DF03FEF0DF017
:101A7600076C081ED8B0082A07C001F008C002F09B
:101A86001200000E066E02BE4DEF0DF04BEF0DF08C
:101A960053EF0DF0016C021ED8B0022A010E066E3D
:101AA60004BE5AEF0DF058EF0DF05EEF0DF0036C2B
:101AB600041ED8B0042A03500410D8B465EF0DF004
:101AC60067EF0DF08BEF0DF0010E056E6FEF0DF069
:101AD600D89003360436052A04AE74EF0DF076EF7F
:101AE6000DF06BEF0DF00350015C04500258D8A0C6
:101AF6007FEF0DF081EF0DF085EF0DF00350015EE5
:101B06000450025AD89004320332052E76EF0DF0B7
:101B16000650D8B491EF0DF093EF0DF097EF0DF05E
:101B2600016C021ED8B0022A01C001F002C002F008
:101B36001200000E0B6E000E0A6E0750D96EDA6A9E
:101B4600DFCFF6FF0E0EF76E000EF86E0800F550AA
:101B56002A0AD8A4B1EF0DF0B3EF0DF0D9EF0DF0CE
:101B66000750D96EDA6ADF2A0850D96EDA6A020E91
:101B7600DF26DF5CD96EDA6ADECF0AF0DECF0BF045
:101B8600EEEF0DF00AC001F00BC002F0000E046E7D
:101B96000A0E036EC5EC0FF0095001240A6E000E02
:101BA60002200B6E0750D96EDA6ADF2A0750D96E0B
:101BB600DA6ADFCFF6FF0E0EF76E000EF86E08003B
:101BC600F550D00F096E090E0964ECEF0DF0EEEF3B
:101BD6000DF0C5EF0DF00AC007F00BC008F01200BB
:101BE6000350D8B4F9EF0DF0FBEF0DF003EF0EF054
:101BF6000350D8A401EF0EF003EF0EF008EF0EF03D
:101C0600015034EC10F047EF0EF00350D96EDA6A4B
:101C16000A0ED926DE50DE10D8B414EF0EF016EFF9
:101C26000EF02FEF0EF00350D96EDA6A0A0ED9269F
:101C36000350E16EE26A030EE126DE50E65CE650F2
:101C4600800A086EDE50800A0858D8B02DEF0EF0D4
:101C56002FEF0EF047EF0EF00350D96EDA6A030E3F
:101C6600D926DF50046E0350D96EDA6ADF50042499
:101C7600D96EDA6A01C0DFFF0350D96EDA6A030E45
:101C8600D926DE2A000EDD2212004DA04DEF0EF001
:101C96004FEF0EF057EF0EF010C009F011C00AF02A
:101CA6000FC00BF03DEC0FF013BE5EEF0EF05CEFD5
:101CB6000EF062EF0EF0000E136E000E126E000EA6
:101CC600166E000E156E72EF0EF0000E026E200EEE
:101CD600016E0FC003F0F3EC0DF0154A162A1250F0
:101CE600155C1650800A146E1350800A1458D8A03A
:101CF6007FEF0EF081EF0EF068EF0EF04DB086EF3D
:101D06000EF088EF0EF090EF0EF010C009F011C043
:101D16000AF00FC00BF03DEC0FF01200016E01A0AF
:101D260097EF0EF099EF0EF09CEF0EF07A869DEF8E
:101D36000EF07A9601A2A2EF0EF0A4EF0EF0A7EF36
:101D46000EF07A84A8EF0EF07A9401A4ADEF0EF0AF
:101D5600AFEF0EF0B2EF0EF07D86B3EF0EF07D968C
:101D660001A6B8EF0EF0BAEF0EF0BDEF0EF07D82D1
:101D7600BEEF0EF07D9226EC10F01A0EE82EFED77E
:101D860000D01200F00EF66E1D0EF76E000EF86E05
:101D960001EE00F010EE48F00900F5CFEEFFE55039
:101DA600E150FAE1340EF66E200EF76E000EF86E74
:101DB60000EECCF010EE18F00900F5CFEEFFE5507E
:101DC600E150FAE101EE48F0200EEE6AE806FDE188
:101DD6000001E56BE46B4D6A4C6A4B6A4A6A496AD4
:101DE6004E904E9200013FEF0BF01F001C001F00AB
:101DF6001E001F001E001F001F001E001F001E00E9
:101E06001F00000000000000000017000000000096
:101E16000000170017001700170009000D00080042
:101E26000100390001000500030037002F002E00D5
:101E360038002EC030F028EF0FF02DC022F0300E03
:101E4600236E2FC024F0C3EC09F030C0F6FF0E0E4F
:101E5600F76E000EF86E0800F5500009D8A436EFAC
:101E66000FF038EF0FF020EF0FF0000E2E6E000E81
:101E76002D6E1200000E0E6E000E0D6E4CEF0FF062
:101E86000CC001F0026A0BC003F0F3EC0DF00D4A32
:101E96000E2A0D500924D96E0E500A20DA6EDF5034
:101EA6000C6E0C50D8A45AEF0FF05CEF0FF043EF16
:101EB6000FF01200046E020E0418D8A465EF0FF09E
:101EC60067EF0FF06CEF0FF0000E026EC00EEBEC3A
:101ED6000FF00404D8A472EF0FF074EF0FF079EF4F
:101EE6000FF0000E026E800EEBEC0FF01200330EB8
:101EF6003B6E31C03CF0000E406E000E3F6E000E91
:101F0600476E000E466E3C0E2D6E32C02EF03B0E16
:101F16002F6E1CEC0FF031503F24D96EDA6ADF6A5F
:101F2600120008BE99EF0FF09BEF0FF0A1EF0FF034
:101F360007C007F008C008F0ADEF0FF007C009F0C2
:101F460008C00AF0091E0A1E094A0A2A09C007F033
:101F56000AC008F01200B9EF0FF0010E026E04502D
:101F6600D96EDA6ADF50EBEC0FF0042A0450D96E12
:101F7600DA6ADF50D8A4C2EF0FF0C4EF0FF0B0EF6B
:101F86000FF0120001500302F3CF05F0F4CF06F074
:101F960001500402F350062602500302F3500626AF
:101FA60005C001F006C002F0120087907F9087926C
:101FB6007F9281947994869C7E9C81987998819A67
:101FC600799A86907E9082907A9082927A92120086
:101FD600036E02B002D07B9C01D07B8C03380F0BC2
:101FE60091EC0EF0035091EC0EF0A00E00D0E82E0E
:101FF600FDD71200D6501F0B4009D66ED688D65094
:10200600F00B0809D66ED5880B0ED46EDC0ED36E97
:10201600D58E120081860E0192870F015899FC0E0B
:102026005817030E5F6F60946088608E12001F0061
:102036001C001F001E001F001E001F001F001E00A8
:102046001F001E001F007B840A0EE82EFED700D05C
:102056007B941200F28C0E01298B339B1F8BF28E20
:042066001200120052
:020000040030CA
:02000000AAFF55
:020004009FFF5C
:00000001FF
