:0400000016EF00F007
:1000080051820E0133AB0BEF00F00DEF00F014EF4F
:1000180000F00B0ED46EDC0ED36E4F4A502A339B81
:0800280051921100B5EF09F03F
:100E0000000020EE37F010EE13F0170EDBCFE3FFFB
:100E1000E806FCE20750D96EDA6A0950E16EE26A30
:100E2000DECFE6FFDDCFE5FF0750D96EDA6A010EAF
:100E3000DBBE25EF07F0010EDB5009E1180EDE5C8A
:100E4000D8A025EF07F027EF07F043EF07F0075092
:100E5000D96EDA6ADE6ADD6A0950D96EDA6ADE6A4C
:100E6000DD6A0A50D96EDA6ADECF0DF0DDCF0EF002
:100E7000010E0D26000E0E220A50D96EDA6A0DC040
:100E8000DEFF0EC0DDFF0750D96EDA6A010EDBBE51
:100E900054EF07F0010EDB5009E13C0EDE5CD8A0F8
:100EA00054EF07F056EF07F06DEF07F00750D96EDB
:100EB000DA6ADE6ADD6A0850D96EDA6ADECF0DF0D2
:100EC000DDCF0EF0010E0D26000E0E220850D96E59
:100ED000DA6A0DC0DEFF0EC0DDFF0850D96EDA6A97
:100EE000010EDBBE7EEF07F0010EDB5009E13C0E88
:100EF000DE5CD8A07EEF07F080EF07F097EF07F0F9
:100F00000850D96EDA6ADE6ADD6A0950D96EDA6A8B
:100F1000DECF0DF0DDCF0EF0010E0D26000E0E22FD
:100F20000950D96EDA6A0DC0DEFF0EC0DDFF095030
:100F3000D96EDA6A010EDBBEA8EF07F0010EDB50B6
:100F400009E1180EDE5CD8A0A8EF07F0AAEF07F0C1
:100F5000C1EF07F00950D96EDA6ADE6ADD6A0A501D
:100F6000D96EDA6ADECF0DF0DDCF0EF0010E0D2660
:100F7000000E0E220A50D96EDA6A0DC0DEFF0EC0D6
:100F8000DDFF0C50D96EDA6ADECF0DF0DDCF0EF04A
:100F9000030E0D16000E0E160D500E10D8A4D3EF32
:100FA00007F0D5EF07F0E6EF07F00B50D96EDA6ADD
:100FB000020EDE18DE10D8A4E0EF07F0E2EF07F033
:100FC000E6EF07F0000E166E1D0E156E0C50D96E72
:100FD000DA6ADECF01F0DDCF02F0000E046E640E9F
:100FE000036E5DEC09F001500210D8A4FAEF07F08F
:100FF000FCEF07F023EF08F00B50D96EDA6A020E0F
:10100000DE18DE10D8A407EF08F009EF08F023EF90
:1010100008F00C50D96EDA6ADECF01F0DDCF02F0B5
:10102000010E046E900E036E5DEC09F0015002108B
:10103000D8B41DEF08F01FEF08F023EF08F0000E02
:10104000166E1C0E156E0A50D96EDA6A0B50E16EE0
:10105000E26AE750020DF3CF0FF0FE0E0F260F509D
:10106000130FE16EE26ADE50E65CE650800A126E13
:10107000DE50800A1258D8B040EF08F042EF08F076
:1010800087EF08F00A50D96EDA6A010EDE6E000EA4
:10109000DD6E0B50D96EDA6ADECF0DF0DDCF0EF0CB
:1010A000010E0D26000E0E220B50D96EDA6A0DC00D
:1010B000DEFF0EC0DDFF0B50D96EDA6A010EDBBE1B
:1010C0006CEF08F0010EDB5009E10D0EDE5CD8A0DC
:1010D0006CEF08F06EEF08F087EF08F00B50D96E58
:1010E000DA6A010EDE6E000EDD6E0C50D96EDA6A21
:1010F000DECF0DF0DDCF0EF0010E0D26000E0E221C
:101100000C50D96EDA6A0DC0DEFF0EC0DDFF120092
:10111000CAEC09F0DDEC09F006EC0AF0EDEC09F0A0
:10112000849E7C9E88968096000E506E320E4F6E86
:10113000000E2E6E3B0E2D6E000E306E160E2F6EB4
:10114000000E326E1C0E316E000E346E020E336EC7
:10115000070E366E700E356E2FC04FF030C050F057
:101160004FC02BF050C02CF04F0E076E2D0E086EA6
:101170002F0E096E310E0A6E330E0B6E350E0C6E8D
:1011800001EC07F02FC001F030C002F0F9EC08F0DC
:10119000030E33183410D8A4D0EF08F0D2EF08F0C3
:1011A000D5EF08F07C8ED6EF08F07C9E30BEE1EFE4
:1011B00008F0305008E12F04D8A0E1EF08F0E3EF89
:1011C00008F0F4EF08F030BEF1EF08F0305007E11E
:1011D000060E2F5CD8B0EFEF08F0F1EF08F0F4EF57
:1011E00008F08096B0EF08F08086B0EF08F016EFB8
:1011F00000F001A0FEEF08F000EF09F003EF09F0A6
:101200007F8004EF09F07F9001A209EF09F00BEF56
:1012100009F00EEF09F07F820FEF09F07F9201A431
:1012200014EF09F016EF09F019EF09F079841AEFBD
:1012300009F0799401A61FEF09F021EF09F024EFDE
:1012400009F07E8C25EF09F07E9C01A82AEF09F0B9
:101250002CEF09F02FEF09F0798830EF09F0799839
:1012600001AA35EF09F037EF09F03AEF09F0798A72
:101270003BEF09F0799A01AC40EF09F042EF09F039
:1012800045EF09F07E8046EF09F07E9001AE4BEF0E
:1012900009F04DEF09F050EF09F07A8051EF09F0B5
:1012A0007A9002A056EF09F058EF09F05BEF09F0D1
:1012B0007A825CEF09F07A921200000E066E02BE8E
:1012C00066EF09F064EF09F06CEF09F0016C021EA3
:1012D000D8B0022A010E066E04BE73EF09F071EF5A
:1012E00009F077EF09F0036C041ED8B0042A03500C
:1012F0000410D8B47EEF09F080EF09F0A4EF09F0F4
:10130000010E056E88EF09F0D89003360436052AE1
:1013100004AE8DEF09F08FEF09F084EF09F0035070
:10132000015C04500258D8A098EF09F09AEF09F038
:101330009EEF09F00350015E0450025AD890043227
:101340000332052E8FEF09F00650D8B4AAEF09F04A
:10135000ACEF09F0B0EF09F0016C021ED8B0022A20
:1013600001C001F002C002F01200F40EF66E130E7E
:10137000F76E000EF86E00EE37F010EE18F0090070
:10138000F5CFEEFFE550E150FAE1519051920001A6
:1013900088EF08F087907F9087927F92819479946C
:1013A000869C7E9C81987998819A799A86907E9085
:1013B00082907A9082927A921200D6501F0B400946
:1013C000D66ED688D650F00B0809D66ED5880B0E8F
:1013D000D46EDC0ED36ED58E120081860E019287FC
:1013E0000F015899FC0E5817030E5F6F60946088C8
:1013F000608E12001F001C001F001E001F001E0038
:101400001F001F001E001F001E001F00F28C0E0197
:0A141000298B339B1F8BF28E120014
:020000040030CA
:02000000AAFF55
:020004009FFF5C
:00000001FF
