:0400000018EF00F005
:100008004B820E0133AB0BEF00F00DEF00F016EF53
:1000180000F00B0ED46EDC0ED36E0001A44BA52BA2
:0C0028000E01339B4B921100CFEF0EF045
:100E00000054696D653A253032643A253032643ACF
:100E1000253032642044253031640054696D653AD0
:100E200020253032643A253032643A25303464006B
:100E3000446174653A253032642F253032642F25A1
:050E40003034640000E5
:100E460020EEA6F010EE17F0170EDBCFE3FFE80654
:100E5600FCE20F041010D8A433EF07F035EF07F0CB
:100E660057EF07F00750D96EDA6A0950E16EE26A69
:100E7600DECFE6FFDDCFE5FF0750D96EDA6A010E59
:100E8600DBBE50EF07F0010EDB5009E1180EDE5C09
:100E9600D8A050EF07F052EF07F057EF07F00750D2
:100EA600D96EDA6ADE6ADD6A0750D96EDA6A010E31
:100EB600DBBE68EF07F0010EDB5009E13C0EDE5C9D
:100EC600D8A068EF07F06AEF07F081EF07F0075048
:100ED600D96EDA6ADE6ADD6A0850D96EDA6ADECF62
:100EE60011F0DDCF12F0010E1126000E122208506D
:100EF600D96EDA6A11C0DEFF12C0DDFF0850D96E66
:100F0600DA6A010EDBBE92EF07F0010EDB5009E153
:100F16003C0EDE5CD8A092EF07F094EF07F0ABEF43
:100F260007F00850D96EDA6ADE6ADD6A0950D96EB2
:100F3600DA6ADECF11F0DDCF12F0010E1126000EB7
:100F460012220950D96EDA6A11C0DEFF12C0DDFF27
:100F56000950D96EDA6A010EDBBEBCEF07F0010E4E
:100F6600DB5009E1180EDE5CD8A0BCEF07F0BEEF3F
:100F760007F0E7EF07F00950D96EDA6ADE6ADD6A34
:100F86000A50D96EDA6ADECF11F0DDCF12F0010E0B
:100F96001126000E12220A50D96EDA6A11C0DEFF3F
:100FA60012C0DDFF0B50D96EDA6ADECF11F0DDCF4D
:100FB60012F0010E1126000E12220B50D96EDA6ABB
:100FC60011C0DEFF12C0DDFF0B50D96EDA6A010ECA
:100FD600DBBEF8EF07F0010EDB5009E1080EDE5C20
:100FE600D8A0F8EF07F0FAEF07F001EF08F00B5082
:100FF600D96EDA6A010EDE6E000EDD6E0E50D96E07
:10100600DA6ADE50DE10D8A40BEF08F00DEF08F018
:1010160080EF08F00C50D96EDA6A030EDE18DE1087
:10102600D8A418EF08F01AEF08F080EF08F00A507D
:10103600D96EDA6A010EDBBE2BEF08F0010EDB502B
:1010460009E1190EDE5CD8A02BEF08F02DEF08F0B1
:1010560080EF08F00B50D96EDA6A070EDE18DE1044
:10106600D8A438EF08F03AEF08F080EF08F00950FE
:10107600D96EDA6A010EDBBE4AEF08F0010EDB50CC
:1010860008E1DE04D8A04AEF08F04CEF08F080EF44
:1010960008F00950D96EDA6ADECF11F0DDCF12F012
:1010A600010E1126000E12220950D96EDA6A11C0FD
:1010B600DEFF12C0DDFF0F041010D8A465EF08F0A4
:1010C60067EF08F079EF08F00750D96EDA6ADECFDD
:1010D60011F0DDCF12F0010E1126000E122207507C
:1010E600D96EDA6A11C0DEFF12C0DDFF0E50D96E6E
:1010F600DA6A010EDE6E000EDD6E0E50D96EDA6A09
:10110600DE04DE10D8A48AEF08F08CEF08F0FCEFBE
:1011160008F00C50D96EDA6A0A0EDE18DE10D8A472
:1011260097EF08F099EF08F0FCEF08F00A50D96E37
:10113600DA6A010EDBBEAAEF08F0010EDB5009E108
:10114600190EDE5CD8A0AAEF08F0ACEF08F0FCEFB1
:1011560008F00B50D96EDA6A070EDE18DE10D8A436
:10116600B7EF08F0B9EF08F0FCEF08F00950D96EB8
:10117600DA6A020EDE18DE10D8A4C4EF08F0C6EF55
:1011860008F0FCEF08F00950D96EDA6ADECF11F0EC
:10119600DDCF12F0FF0E1124136EFF0E1220146E17
:1011A6000950D96EDA6A13C0DEFF14C0DDFF0F04E2
:1011B6001010D8A4E1EF08F0E3EF08F0F7EF08F01D
:1011C6000750D96EDA6ADECF11F0DDCF12F0FF0ECE
:1011D6001124136EFF0E1220146E0750D96EDA6AB0
:1011E60013C0DEFF14C0DDFF0E50D96EDA6ADE6A68
:1011F600DD6A0D50D96EDA6ADECF11F0DDCF12F05E
:10120600030E1116000E121611501210D8A40EEF6E
:1012160009F010EF09F021EF09F00C50D96EDA6AE7
:10122600020EDE18DE10D8A41BEF09F01DEF09F040
:1012360021EF09F0000E1A6E1D0E196E0D50D96EB3
:10124600DA6ADECF01F0DDCF02F0000E046E640E26
:10125600036E31EC0DF001500210D8A435EF09F001
:1012660037EF09F05EEF09F00C50D96EDA6A020E1C
:10127600DE18DE10D8A442EF09F044EF09F05EEF65
:1012860009F00D50D96EDA6ADECF01F0DDCF02F03B
:10129600010E046E900E036E31EC0DF0015002103B
:1012A600D8B458EF09F05AEF09F05EEF09F0000ED6
:1012B6001A6E1C0E196E0A50D96EDA6A0C50E16E5F
:1012C600E26AE750020DF3CF13F0FE0E1326135019
:1012D600170FE16EE26ADE50E65CE650800A166E93
:1012E600DE50800A1658D8B07BEF09F07DEF09F082
:1012F600C2EF09F00A50D96EDA6A010EDE6E000EF0
:10130600DD6E0C50D96EDA6ADECF11F0DDCF12F049
:10131600010E1126000E12220C50D96EDA6A11C087
:10132600DEFF12C0DDFF0C50D96EDA6A010EDBBE9D
:10133600A7EF09F0010EDB5009E10D0EDE5CD8A027
:10134600A7EF09F0A9EF09F0C2EF09F00C50D96E2A
:10135600DA6A010EDE6E000EDD6E0D50D96EDA6AA7
:10136600DECF11F0DDCF12F0010E1126000E122293
:101376000D50D96EDA6A11C0DEFF12C0DDFF120011
:101386002150D96EDA6ADFCFF6FF0E0EF76E000E29
:10139600F86E0800F550250AD8A4D4EF09F0D6EF68
:1013A60009F070EF0AF02150D96EDA6ADF2A000ED2
:1013B600476E000E466E46C04AF048684968000E01
:1013C600296E0CEF0AF04A822150D96EDA6ADF2ABA
:1013D6000CEF0AF0010E296E0CEF0AF02150D96EBF
:1013E600DA6ADFCFF6FF0E0EF76E000EF86E080013
:1013F600F550236E246A2450000AD8B405EF0AF08B
:10140600EDEF09F02350300AD8B4E6EF09F0EDEF1E
:1014160009F02950D8B412EF0AF014EF0AF0F1EFF0
:1014260009F021C007F022C008F089EC0DF007C0D2
:1014360046F008C047F047BE25EF0AF023EF0AF052
:101446002AEF0AF04A80466C471ED8B0472A215038
:10145600D96EDA6ADF502A6E2AC0F6FF0E0EF76ED4
:10146600000EF86E0800F550640AD8B43DEF0AF095
:101476003FEF0AF04FEF0AF02AC0F6FF0E0EF76EA6
:10148600000EF86E0800F550690AD8A44DEF0AF070
:101496004FEF0AF06AEF0AF02250D96EDA6A020EAE
:1014A600DF26DF5CD96EDA6ADECF25F0DECF26F0E6
:1014B6002150D96EDA6A2A28DF6E20C015F025C0C1
:1014C60016F026C017F084EC0AF083EF0AF02150DC
:1014D600D96EDA6ADF2A83EF0AF02150D96EDA6A0A
:1014E600DFCFF6FF0E0EF76E000EF86E0800F55011
:1014F600016E026A20C003F0E0EC0DF06AEF0AF01C
:101506001200010E1A6E17BE8BEF0AF08EEF0AF06C
:10151600010E8FEF0AF0000E1D6E46C01BF047C08D
:101526001CF01D50D8B49AEF0AF09CEF0AF0B3EF06
:101536000AF01B06D8A01C061D50D8A4A5EF0AF079
:10154600A7EF0AF0ADEF0AF0000E196E2B0E186E1B
:10155600B1EF0AF0000E196E2D0E186E18C01DF0B0
:10156600000E1F6E1F0E1E6E000E0001A36FE9EF28
:101576000AF01E06D8A01F061E50840FD96EDA6A1E
:1015860016C001F017C002F0000E046E0A0E036EBC
:1015960031EC0DF001C007F002C008F044EC0FF08A
:1015A6000750300FDF6E000E1A6E1B06D8A01C0601
:1015B60016C001F017C002F0000E046E0A0E036E8C
:1015C600CFEC0CF001C016F002C017F01FBEF4EF0E
:1015D6000AF01F5008E11E04D8A0F4EF0AF0F6EF57
:1015E6000AF01BEF0BF016501710D8A4FDEF0AF007
:1015F600FFEF0AF0BCEF0AF01A50D8A405EF0BF083
:1016060007EF0BF0BCEF0AF01CBE12EF0BF01C50FC
:1016160008E11B04D8A012EF0BF014EF0BF01BEF40
:101626000BF04AB219EF0BF01BEF0BF0BCEF0AF010
:101636001D50D8B421EF0BF023EF0BF02CEF0BF07D
:101646001E06D8A01F061E50840FD96EDA6A1DC06A
:10165600DFFF15C00EF01E50840F0F6E1BC010F07A
:101666001CC011F035EC0EF0120088EC0FF0ADEC5A
:101676000FF0DDEC0FF0DBEC0BF0BDEC0FF0849E11
:101686007C9E88968096000E0001A56F370EA46F8B
:10169600000E776F3B0E766F000E796F000E786F37
:1016A600000E7B6F1E0E7A6F000E7D6F070E7C6F2D
:1016B600000E7F6F0A0E7E6F070E816FE60E806F3B
:1016C600000E836F010E826F000E736F010E726F34
:1016D600A4C074F0A5C075F0000E756F000E746F8F
:1016E60078C0A4F079C0A5F0000172517311D8A496
:1016F6007FEF0BF081EF0BF085EF0BF0A4C074F0D9
:10170600A5C075F0A40E076E760E086E780E096EEB
:101716007A0E0A6E7C0E0B6E7E0E0C6E800E0D6EB1
:10172600820E0E6E72C00FF073C010F023EC07F03D
:1017360078C001F079C002F06BEC0CF0010E0DECF4
:101746000FF0600E2F6E010E306E78C031F079C04A
:1017560032F076C033F077C034F074C035F075C01F
:1017660036F07CC037F07DC038F02AEC0FF0600E02
:10177600046E5EEC0FF0020E0DEC0FF0600E2F6E95
:10178600300E306E7AC031F07BC032F07EC033F05E
:101796007FC034F080C035F081C036F02AEC0FF0FF
:1017A600600E046E5EEC0FF077EF0BF018EF00F0B2
:1017B60082967A9682947A9485967D9685927D9283
:1017C60083947B94839C7B9C0D0E056E2D0E046E7C
:1017D600D80EE82EFED7042EFCD7052EFAD7030E18
:1017E6007AEC0EF0680E046EE40EE82EFED7042E98
:1017F600FCD700D0030E7AEC0EF0040E046E1C0E1D
:10180600E82EFED7042EFCD700D0030E7AEC0EF09D
:10181600040E046E1C0EE82EFED7042EFCD700D054
:10182600020E7AEC0EF0040E046E1C0EE82EFED7A5
:10183600042EFCD700D0000E026E2C0E9BEC0FF08F
:10184600E40E00D000D0E82EFCD700D000D0000E69
:10185600026E080E9BEC0FF0090E056E1E0E046E4E
:10186600E40EE82EFED7042EFCD7052EFAD700D0BC
:10187600000E026E010E9BEC0FF0680E046EE40E75
:10188600E82EFED7042EFCD700D0000E026E060E00
:101896009BEC0FF0090E056E1E0E046EE40EE82E8C
:1018A600FED7042EFCD7052EFAD700D0000E026E06
:1018B6000C0E9BEC0FF0090E056E1E0E046EE40E68
:1018C600E82EFED7042EFCD7052EFAD700D012003C
:1018D60001A070EF0CF072EF0CF075EF0CF07F804A
:1018E60076EF0CF07F9001A27BEF0CF07DEF0CF011
:1018F60080EF0CF07F8281EF0CF07F9201A486EFDF
:101906000CF088EF0CF08BEF0CF079848CEF0CF078
:10191600799401A691EF0CF093EF0CF096EF0CF092
:101926007E8C97EF0CF07E9C01A89CEF0CF09EEF4E
:101936000CF0A1EF0CF07988A2EF0CF0799801AACF
:10194600A7EF0CF0A9EF0CF0ACEF0CF0798AADEF35
:101956000CF0799A01ACB2EF0CF0B4EF0CF0B7EFE3
:101966000CF07E80B8EF0CF07E9001AEBDEF0CF06F
:10197600BFEF0CF0C2EF0CF07A80C3EF0CF07A9058
:1019860002A0C8EF0CF0CAEF0CF0CDEF0CF07A8293
:10199600CEEF0CF07A921200000E066E04BED8EF5F
:1019A6000CF0D6EF0CF0DEEF0CF0036C041ED8B092
:1019B600042A010E066E02BEE5EF0CF0E3EF0CF012
:1019C600EBEF0CF0016C021ED8B0022A010E061ACB
:1019D600000E086E000E076E03500410D8B4F6EF22
:1019E6000CF0F8EF0CF020EF0DF0010E056E00EF95
:1019F6000DF0D89003360436052A04AE05EF0DF037
:101A060007EF0DF0FCEF0CF0D890073608360350C0
:101A1600015C04500258D8A013EF0DF015EF0DF03D
:101A26001AEF0DF00350015E0450025A0780D89059
:101A360004320332052E07EF0DF00650D8B426EF18
:101A46000DF028EF0DF02CEF0DF0076C081ED8B046
:101A5600082A07C001F008C002F01200000E066E48
:101A660002BE3AEF0DF038EF0DF040EF0DF0016CCD
:101A7600021ED8B0022A010E066E04BE47EF0DF014
:101A860045EF0DF04BEF0DF0036C041ED8B0042AA1
:101A960003500410D8B452EF0DF054EF0DF078EF68
:101AA6000DF0010E056E5CEF0DF0D890033604368E
:101AB600052A04AE61EF0DF063EF0DF058EF0DF05F
:101AC6000350015C04500258D8A06CEF0DF06EEF85
:101AD6000DF072EF0DF00350015E0450025AD890DB
:101AE60004320332052E63EF0DF00650D8B47EEFB4
:101AF6000DF080EF0DF084EF0DF0016C021ED8B0F2
:101B0600022A01C001F002C002F01200000E0B6EA4
:101B1600000E0A6E0750D96EDA6ADFCFF6FF0E0E98
:101B2600F76E000EF86E0800F5502A0AD8A49EEF4C
:101B36000DF0A0EF0DF0C6EF0DF00750D96EDA6A82
:101B4600DF2A0850D96EDA6A020EDF26DF5CD96E0C
:101B5600DA6ADECF0AF0DECF0BF0DBEF0DF00AC05B
:101B660001F00BC002F0000E046E0A0E036E75EC57
:101B76000FF0095001240A6E000E02200B6E07506A
:101B8600D96EDA6ADF2A0750D96EDA6ADFCFF6FF36
:101B96000E0EF76E000EF86E0800F550D00F096EA7
:101BA600090E0964D9EF0DF0DBEF0DF0B2EF0DF081
:101BB6000AC007F00BC008F012000350D8B4E6EFD5
:101BC6000DF0E8EF0DF0F0EF0DF00350D8A4EEEFB6
:101BD6000DF0F0EF0DF0F5EF0DF00150E4EC0FF025
:101BE60034EF0EF00350D96EDA6A0A0ED926DE50AB
:101BF600DE10D8B401EF0EF003EF0EF01CEF0EF07E
:101C06000350D96EDA6A0A0ED9260350E16EE26AEB
:101C1600030EE126DE50E65CE650800A086EDE50D2
:101C2600800A0858D8B01AEF0EF01CEF0EF034EF09
:101C36000EF00350D96EDA6A030ED926DF50046E11
:101C46000350D96EDA6ADF500424D96EDA6A01C00D
:101C5600DFFF0350D96EDA6A030ED926DE2A000E9C
:101C6600DD2212004AA03AEF0EF03CEF0EF042EFF2
:101C76000EF00FC009F00EC00AF0EFEC0EF011BE28
:101C860049EF0EF047EF0EF04DEF0EF0000E116E1D
:101C9600000E106E000E146E000E136E5DEF0EF049
:101CA600000E026E200E016E0EC003F0E0EC0DF089
:101CB600134A142A1050135C1450800A126E1150E5
:101CC600800A1258D8A06AEF0EF06CEF0EF053EFB0
:101CD6000EF04AB071EF0EF073EF0EF079EF0EF0E2
:101CE6000FC009F00EC00AF0EFEC0EF01200016E04
:101CF60001A080EF0EF082EF0EF085EF0EF07A86EF
:101D060086EF0EF07A9601A28BEF0EF08DEF0EF0B5
:101D160090EF0EF07A8491EF0EF07A9401A496EF8C
:101D26000EF098EF0EF09BEF0EF07D869CEF0EF016
:101D36007D9601A6A1EF0EF0A3EF0EF0A6EF0EF032
:101D46007D82A7EF0EF07D92D6EC0FF01A0EE82EEC
:101D5600FED700D012002CC02EF0BAEF0EF02BC02A
:101D660020F02E0E216E2DC022F0C3EC09F02EC0FD
:101D7600F6FF0E0EF76E000EF86E0800F55000091D
:101D8600D8A4C8EF0EF0CAEF0EF0B2EF0EF0000EB8
:101D96002C6E000E2B6E1200940EF66E1F0EF76E52
:101DA600000EF86E00EEA6F010EE18F00900F5CF62
:101DB600EEFFE550E150FAE100EE84F0220EEE6A05
:101DC600E806FDE14A6A496A486A476A466A4B90EC
:101DD6004B92000138EF0BF0000E0D6E000E0C6EEC
:101DE600FEEF0EF00BC001F0026A0AC003F0E0EC51
:101DF6000DF00C4A0D2A09500C24D96EDA6ADF5010
:101E06000B6E0B50D8A40AEF0FF00CEF0FF0F5EFA6
:101E16000EF01200046E020E0418D8A415EF0FF08F
:101E260017EF0FF01CEF0FF0000E026EC00E9BECCA
:101E36000FF00404D8A422EF0FF024EF0FF029EFDF
:101E46000FF0000E026E800E9BEC0FF01200310EAA
:101E5600396E2FC03AF0000E3E6E000E3D6E000E3B
:101E6600456E000E446E3A0E2B6E30C02CF0390EC5
:101E76002D6EAEEC0EF02F503D24D96EDA6ADF6A75
:101E8600120008BE49EF0FF04BEF0FF051EF0FF0C5
:101E960007C007F008C008F05DEF0FF007C009F0B3
:101EA60008C00AF0091E0A1E094A0A2A09C007F0D4
:101EB6000AC008F0120069EF0FF0010E026E04501E
:101EC600D96EDA6ADF509BEC0FF0042A0450D96E03
:101ED600DA6ADF50D8A472EF0FF074EF0FF060EFFC
:101EE6000FF0120001500302F3CF05F0F4CF06F015
:101EF60001500402F350062602500302F350062650
:101F060005C001F006C002F0120087907F9087920C
:101F16007F9281947994869C7E9C81987998819A07
:101F2600799A86907E9082907A9082927A92120026
:101F3600036E02B002D07B9C01D07B8C03380F0B62
:101F46007AEC0EF003507AEC0EF0A00E00D0E82EDC
:101F5600FDD71200D6501F0B4009D66ED688D65034
:101F6600F00B0809D66ED5880B0ED46EDC0ED36E38
:101F7600D58E120081860E0192870F015899FC0EAC
:101F86005817030E5F6F60946088608E12001F0002
:101F96001C001F001E001F001E001F001F001E0049
:101FA6001F001E001F007B840A0EE82EFED700D0FD
:101FB6007B941200F28C0E01298B339B1F8BF28EC1
:041FC60012001200F3
:020000040030CA
:02000000AAFF55
:020004009FFF5C
:00000001FF
