:0400000018EF00F005
:100008004E820E0133AB0BEF00F00DEF00F016EF50
:1000180000F00B0ED46EDC0ED36E0101F24BF32B05
:0C0028000E01339B4E9211009DEF10F072
:100E00000054696D653A253032643A253032643ACF
:100E1000253032642044253031640054696D653AD0
:100E200020253032643A253032643A25303464006B
:100E3000446174653A253032642F253032642F25A1
:050E40003034640000E5
:100E460020EE80F010EE1FF0170EDBCFE3FFE80672
:100E5600FCE217041810D8A433EF07F035EF07F0BB
:100E66005BEF07F007C0D9FF08C0DAFF0BC0E1FF50
:100E76000CC0E2FFDECFE6FFDDCFE5FF07C0D9FFFE
:100E860008C0DAFF010EDBBE53EF07F0010EDB50A0
:100E960009E1180EDE5CD8A053EF07F055EF07F016
:100EA6005BEF07F007C0D9FF08C0DAFFDE6ADD6A2C
:100EB60007C0D9FF08C0DAFF010EDBBE6DEF07F0F1
:100EC600010EDB5009E13C0EDE5CD8A06DEF07F0A9
:100ED6006FEF07F089EF07F007C0D9FF08C0DAFF08
:100EE600DE6ADD6A09C0D9FF0AC0DAFFDECF19F073
:100EF600DDCF1AF0010E1926000E1A2209C0D9FFFD
:100F06000AC0DAFF19C0DEFF1AC0DDFF09C0D9FF2B
:100F16000AC0DAFF010EDBBE9BEF07F0010EDB50C5
:100F260009E13C0EDE5CD8A09BEF07F09DEF07F0D1
:100F3600B7EF07F009C0D9FF0AC0DAFFDE6ADD6A3B
:100F46000BC0D9FF0CC0DAFFDECF19F0DDCF1AF0E7
:100F5600010E1926000E1A220BC0D9FF0CC0DAFFAB
:100F660019C0DEFF1AC0DDFF0BC0D9FF0CC0DAFFC7
:100F7600010EDBBEC9EF07F0010EDB5009E1180ECA
:100F8600DE5CD8A0C9EF07F0CBEF07F0F9EF07F06A
:100F96000BC0D9FF0CC0DAFFDE6ADD6A0DC0D9FFCF
:100FA6000EC0DAFFDECF19F0DDCF1AF0010E1926DA
:100FB600000E1A220DC0D9FF0EC0DAFF19C0DEFFDF
:100FC6001AC0DDFF0FC0D9FF10C0DAFFDECF19F05F
:100FD600DDCF1AF0010E1926000E1A220FC0D9FF16
:100FE60010C0DAFF19C0DEFF1AC0DDFF0FC0D9FF3F
:100FF60010C0DAFF010EDBBE0BEF08F0010EDB506E
:1010060009E1080EDE5CD8A00BEF08F00DEF08F042
:1010160015EF08F00FC0D9FF10C0DAFF010EDE6E23
:10102600000EDD6E15C0D9FF16C0DAFFDE50DE10E9
:10103600D8A420EF08F022EF08F09EEF08F011C0C8
:10104600D9FF12C0DAFF030EDE18DE10D8A42EEF89
:1010560008F030EF08F09EEF08F00DC0D9FF0EC083
:10106600DAFF010EDBBE42EF08F0010EDB5009E1AC
:10107600190EDE5CD8A042EF08F044EF08F09EEFB0
:1010860008F00FC0D9FF10C0DAFF070EDE18DE1019
:10109600D8A450EF08F052EF08F09EEF08F00BC00E
:1010A600D9FF0CC0DAFF010EDBBE63EF08F0010EBC
:1010B600DB5008E1DE04D8A063EF08F065EF08F026
:1010C6009EEF08F00BC0D9FF0CC0DAFFDECF19F097
:1010D600DDCF1AF0010E1926000E1A220BC0D9FF19
:1010E6000CC0DAFF19C0DEFF1AC0DDFF17041810A6
:1010F600D8A480EF08F082EF08F096EF08F007C05A
:10110600D9FF08C0DAFFDECF19F0DDCF1AF0010EE5
:101116001926000E1A2207C0D9FF08C0DAFF19C027
:10112600DEFF1AC0DDFF15C0D9FF16C0DAFF010EBB
:10113600DE6E000EDD6E15C0D9FF16C0DAFFDE04C6
:10114600DE10D8A4A9EF08F0ABEF08F024EF09F001
:1011560011C0D9FF12C0DAFF0A0EDE18DE10D8A4BD
:10116600B7EF08F0B9EF08F024EF09F00DC0D9FF8A
:101176000EC0DAFF010EDBBECBEF08F0010EDB502E
:1011860009E1190EDE5CD8A0CBEF08F0CDEF08F030
:1011960024EF09F00FC0D9FF10C0DAFF070EDE18E2
:1011A600DE10D8A4D9EF08F0DBEF08F024EF09F041
:1011B6000BC0D9FF0CC0DAFF020EDE18DE10D8A471
:1011C600E7EF08F0E9EF08F024EF09F00BC0D9FFCC
:1011D6000CC0DAFFDECF19F0DDCF1AF0FF0E1924AE
:1011E6001B6EFF0E1A201C6E0BC0D9FF0CC0DAFF57
:1011F6001BC0DEFF1CC0DDFF17041810D8A406EFC5
:1012060009F008EF09F01EEF09F007C0D9FF08C082
:10121600DAFFDECF19F0DDCF1AF0FF0E19241B6EB0
:10122600FF0E1A201C6E07C0D9FF08C0DAFF1BC0CC
:10123600DEFF1CC0DDFF15C0D9FF16C0DAFFDE6A6F
:10124600DD6A13C0D9FF14C0DAFFDECF19F0DDCF97
:101256001AF0030E1916000E1A1619501A10D8A4F1
:1012660037EF09F039EF09F04BEF09F011C0D9FF5C
:1012760012C0DAFF020EDE18DE10D8A445EF09F020
:1012860047EF09F04BEF09F0000E226E1D0E216E9E
:1012960013C0D9FF14C0DAFFDECF01F0DDCF02F0B4
:1012A600000E046E640E036E39EC0FF0015002104E
:1012B600D8A460EF09F062EF09F08BEF09F011C0D6
:1012C600D9FF12C0DAFF020EDE18DE10D8A46EEFC8
:1012D60009F070EF09F08BEF09F013C0D9FF14C0C5
:1012E600DAFFDECF01F0DDCF02F0010E046E900EC4
:1012F600036E39EC0FF001500210D8B485EF09F0F7
:1013060087EF09F08BEF09F0000E226E1C0E216E9E
:101316000DC0D9FF0EC0DAFF11C0E1FF12C0E2FF17
:10132600E750020DF3CF1BF0FE0E1B261B501F0FBE
:10133600E16EE26ADE50E65CE650800A1E6EDE5022
:10134600800A1E58D8B0AAEF09F0ACEF09F0F8EF02
:1013560009F00DC0D9FF0EC0DAFF010EDE6E000ED9
:10136600DD6E11C0D9FF12C0DAFFDECF19F0DDCF76
:101376001AF0010E1926000E1A2211C0D9FF12C04A
:10138600DAFF19C0DEFF1AC0DDFF11C0D9FF12C097
:10139600DAFF010EDBBEDAEF09F0010EDB5009E1E0
:1013A6000D0EDE5CD8A0DAEF09F0DCEF09F0F8EFFD
:1013B60009F011C0D9FF12C0DAFF010EDE6E000E71
:1013C600DD6E13C0D9FF14C0DAFFDECF19F0DDCF12
:1013D6001AF0010E1926000E1A2213C0D9FF14C0E6
:1013E600DAFF19C0DEFF1AC0DDFF12009CEC11F017
:1013F600C1EC11F0F1EC11F086EC0DF0D1EC11F02E
:10140600849E7C9E88968096000E0101F36F370EAF
:10141600F26F000EAD6F3B0EAC6F000EAF6F160E87
:10142600AE6F000EB16F1C0EB06F000EB36F050EDF
:10143600B26F000EB56F020EB46F070EB76FE80EEF
:10144600B66F000EB96F000EB86F000E516F010E29
:10145600506FF2C1AAF1F3C1ABF1000EAB6F000EF3
:10146600AA6FAEC1F2F1AFC1F3F1000E576F1F0EB6
:10147600566F000E556F000E546F000E536F090E17
:10148600526F000E5D6F1C0E5C6F000E5B6F000EE0
:101496005A6F000E596F0D0E586F000E636F1F0EB8
:1014A600626F000E616F000E606F000E5F6F080EB8
:1014B6005E6F000E696F1E0E686F000E676F000E7E
:1014C600666F000E656F010E646F000E6F6F1F0E64
:1014D6006E6F000E6D6F170E6C6F000E6B6F390E10
:1014E6006A6F000E756F1E0E746F000E736F000E1E
:1014F600726F000E716F010E706F000E7B6F1F0E04
:101506007A6F000E796F000E786F000E776F050EFA
:10151600766F000E816F1F0E806F000E7F6F000EBC
:101526007E6F000E7D6F030E7C6F000E876F1E0EA2
:10153600866F000E856F170E846F000E836F370E51
:10154600826F000E8D6F1F0E8C6F000E8B6F170E45
:101556008A6F000E896F2F0E886F000E936F1E0E16
:10156600926F000E916F170E906F000E8F6F2E0EFA
:101576008E6F000E996F1F0E986F000E976F170EE5
:10158600966F000E956F380E946F000E9B6F070EC8
:101596009A6F000E9D6F000E9C6F21EE12F00D0EDD
:1015A600DE6AE806FDE2010E9F6F120E9E6F21EEC7
:1015B60020F00D0EDE6AE806FDE2010EA16F200E98
:1015C600A06F000EA36F070EA26F000EA56F000E90
:1015D600A46F21EE2EF00D0EDE6AE806FDE2010E86
:1015E600A76F2E0EA66F21EE3CF00D0EDE6AE80602
:1015F600FDE2010EA96F3C0EA86F000E4F6F460E5E
:101606004E6F000E4D6F000E4C6FB0C14AF1B1C166
:101616004BF150515111D8A413EF0BF015EF0BF00D
:1016260019EF0BF0F2C1AAF1F3C1ABF1F20E076E9E
:10163600010E086EAC0E096E010E0A6EAE0E0B6E32
:10164600010E0C6EB00E0D6E010E0E6EB20E0F6E0A
:10165600010E106EB40E116E010E126EB60E136EE2
:10166600010E146EB80E156E010E166E50C117F0EF
:1016760051C118F023EC07F0AEC101F0AFC102F082
:1016860016EC0EF0010E20EC11F0000E2F6E010E7E
:10169600306E010E316EAEC132F0AFC133F0ACC167
:1016A60034F0ADC135F0AAC136F0ABC137F0B2C1E6
:1016B60038F0B3C139F0E4EC10F0000E046E010E00
:1016C600056E57EC11F0020E20EC11F0000E2F6E95
:1016D600010E306E300E316EB0C132F0B1C133F052
:1016E600B4C134F0B5C135F0B6C136F0B7C137F084
:1016F600E4EC10F0000E046E010E056E57EC11F0CE
:1017060071EC11F001014E51015C4F510258D8B0F5
:101716008FEF0BF091EF0BF0C3EF0BF0AE51AF1163
:10172600D8B498EF0BF09AEF0BF0A5EF0BF0AF5192
:1017360009E1050EAE5DD8A0A3EF0BF0A5EF0BF007
:10174600BBEF0BF0AF5109E1080EAE5DD8A0AEEFCE
:101756000BF0B0EF0BF0BEEF0BF0AF5107E10F0E41
:10176600AE5DD8B0B9EF0BF0BBEF0BF0BEEF0BF0F0
:101776008096C3EF0BF08086000EA56F000EA46F57
:1017860071EC11F0015001014E5D02504F59D8B075
:10179600CFEF0BF0D1EF0BF0D6EF0BF08096000EEB
:1017A6009D6F000E9C6FB0514A5DB1514B59D8B038
:1017B600DFEF0BF0E1EF0BF00CEF0BF0000E9D6F7F
:1017C600000E9C6F000EA56F000EA46F4C4B4D2BA8
:1017D6007C8EB0C14AF1B1C14BF1070E4C194D11C7
:1017E600D8A4F8EF0BF0FAEF0BF00CEF0BF07C8EB1
:1017F6008086290E486E960E476E7F0EE82EFED71F
:10180600472EFCD7482EFAD70000000E01014D6F77
:10181600000E4C6F0CEF0BF018EF00F02150D96E54
:10182600DA6ADFCFF6FF0E0EF76E000EF86E0800CE
:10183600F550250AD8A422EF0CF024EF0CF0BEEFE9
:101846000CF02150D96EDA6ADF2A000E4A6E000EBD
:10185600496E49C04DF04B684C68000E296E5AEF30
:101866000CF04D822150D96EDA6ADF2A5AEF0CF05D
:10187600010E296E5AEF0CF02150D96EDA6ADFCFCD
:10188600F6FF0E0EF76E000EF86E0800F550236E8A
:10189600246A2450000AD8B453EF0CF03BEF0CF046
:1018A6002350300AD8B434EF0CF03BEF0CF029503B
:1018B600D8B460EF0CF062EF0CF03FEF0CF021C0F3
:1018C60007F022C008F091EC0FF007C049F008C0FD
:1018D6004AF04ABE73EF0CF071EF0CF078EF0CF0A3
:1018E6004D80496C4A1ED8B04A2A2150D96EDA6A10
:1018F600DF502A6E2AC0F6FF0E0EF76E000EF86E47
:101906000800F550640AD8B48BEF0CF08DEF0CF09C
:101916009DEF0CF02AC0F6FF0E0EF76E000EF86E65
:101926000800F550690AD8A49BEF0CF09DEF0CF067
:10193600B8EF0CF02250D96EDA6A020EDF26DF5CB1
:10194600D96EDA6ADECF25F0DECF26F02150D96EC9
:10195600DA6A2A28DF6E20C015F025C016F026C0E8
:1019660017F0D2EC0CF0D1EF0CF02150D96EDA6AF8
:10197600DF2AD1EF0CF02150D96EDA6ADFCFF6FFFD
:101986000E0EF76E000EF86E0800F550016E026A34
:1019960020C003F0DCEC0EF0B8EF0CF01200010EE4
:1019A6001A6E17BED9EF0CF0DCEF0CF0010EDDEF6E
:1019B6000CF0000E1D6E49C01BF04AC01CF01D50F5
:1019C600D8B4E8EF0CF0EAEF0CF001EF0DF01B06CF
:1019D600D8A01C061D50D8A4F3EF0CF0F5EF0CF0C0
:1019E600FBEF0CF0000E196E2B0E186EFFEF0CF0CD
:1019F600000E196E2D0E186E18C01DF0000E1F6E0B
:101A06001F0E1E6E000E00017F6F37EF0DF01E06D3
:101A1600D8A01F061E50600FD96EDA6A16C001F0F4
:101A260017C002F0000E046E0A0E036E39EC0FF0BA
:101A360001C007F002C008F03DEC11F00750300F6E
:101A4600DF6E000E1A6E1B06D8A01C0616C001F02B
:101A560017C002F0000E046E0A0E036E7AEC0EF04A
:101A660001C016F002C017F01FBE42EF0DF01F5066
:101A760008E11E04D8A042EF0DF044EF0DF069EF27
:101A86000DF016501710D8A44BEF0DF04DEF0DF0DA
:101A96000AEF0DF01A50D8A453EF0DF055EF0DF0E4
:101AA6000AEF0DF01CBE60EF0DF01C5008E11B04A0
:101AB600D8A060EF0DF062EF0DF069EF0DF04DB2BA
:101AC60067EF0DF069EF0DF00AEF0DF01D50D8B479
:101AD6006FEF0DF071EF0DF07AEF0DF01E06D8A046
:101AE6001F061E50600FD96EDA6A1DC0DFFF15C0D3
:101AF6000EF01E50600F0F6E1BC010F01CC011F0D0
:101B0600E8EC0FF0120082967A9682947A94859683
:101B16007D9685927D9283947B94839C7B9C0D0E0F
:101B2600056E2D0E046ED80EE82EFED7042EFCD7B9
:101B3600052EFAD7030E69EC10F0680E046EE40E5B
:101B4600E82EFED7042EFCD700D0030E69EC10F069
:101B5600040E046E1C0EE82EFED7042EFCD700D011
:101B6600030E69EC10F0040E046E1C0EE82EFED770
:101B7600042EFCD700D0020E69EC10F0040E046EA1
:101B86001C0EE82EFED7042EFCD700D0000E026EE7
:101B96002C0EAFEC11F0E40E00D000D0E82EFCD7EE
:101BA60000D000D0000E026E080EAFEC11F0090E48
:101BB600056E1E0E046EE40EE82EFED7042EFCD72C
:101BC600052EFAD700D0000E026E010EAFEC11F012
:101BD600680E046EE40EE82EFED7042EFCD700D065
:101BE600000E026E060EAFEC11F0090E056E1E0E0B
:101BF600046EE40EE82EFED7042EFCD7052EFAD787
:101C060000D0000E026E0C0EAFEC11F0090E056E40
:101C16001E0E046EE40EE82EFED7042EFCD7052E0B
:101C2600FAD700D0120001A01BEF0EF01DEF0EF048
:101C360020EF0EF07F8021EF0EF07F9001A226EFBD
:101C46000EF028EF0EF02BEF0EF07F822CEF0EF049
:101C56007F9201A431EF0EF033EF0EF036EF0EF067
:101C6600798437EF0EF0799401A63CEF0EF03EEF43
:101C76000EF041EF0EF07E8C42EF0EF07E9C01A836
:101C860047EF0EF049EF0EF04CEF0EF079884DEF6E
:101C96000EF0799801AA52EF0EF054EF0EF057EFBE
:101CA6000EF0798A58EF0EF0799A01AC5DEF0EF0DE
:101CB6005FEF0EF062EF0EF07E8063EF0EF07E9027
:101CC60001AE68EF0EF06AEF0EF06DEF0EF07A805F
:101CD6006EEF0EF07A9002A073EF0EF075EF0EF035
:101CE60078EF0EF07A8279EF0EF07A921200000EFB
:101CF600066E04BE83EF0EF081EF0EF089EF0EF054
:101D0600036C041ED8B0042A010E066E02BE90EFC4
:101D16000EF08EEF0EF096EF0EF0016C021ED8B0AC
:101D2600022A010E061A000E086E000E076E0350F8
:101D36000410D8B4A1EF0EF0A3EF0EF0CBEF0EF027
:101D4600010E056EABEF0EF0D89003360436052A69
:101D560004AEB0EF0EF0B2EF0EF0A7EF0EF0D89093
:101D6600073608360350015C04500258D8A0BEEF6F
:101D76000EF0C0EF0EF0C5EF0EF00350015E0450FA
:101D8600025A0780D89004320332052EB2EF0EF0C5
:101D96000650D8B4D1EF0EF0D3EF0EF0D7EF0EF019
:101DA600076C081ED8B0082A07C001F008C002F068
:101DB60012000350D8B4E2EF0EF0E4EF0EF0ECEFB1
:101DC6000EF00350D8A4EAEF0EF0ECEF0EF0F1EFB0
:101DD6000EF00150F8EC11F038EF0FF00350D96E09
:101DE600DA6A0A0ED926DE50DE10D8B4FDEF0EF000
:101DF600FFEF0EF018EF0FF00350D96EDA6A0A0EF5
:101E0600D9260350E16EE26A030EE126DE50E65C57
:101E1600E650800A086EDE50800A0858D8B016EFE1
:101E26000FF018EF0FF038EF0FF00350D96EDA6AA3
:101E3600030ED926DECF04F0DDCF05F00350D96EB0
:101E4600DA6ADECF06F0DDCF07F004500624D96E3D
:101E560005500720DA6E01C0DFFF0350D96EDA6A3B
:101E6600030ED926DE2A000EDD221200000E066EB3
:101E760002BE42EF0FF040EF0FF048EF0FF0016C9B
:101E8600021ED8B0022A010E066E04BE4FEF0FF0F6
:101E96004DEF0FF053EF0FF0036C041ED8B0042A79
:101EA60003500410D8B45AEF0FF05CEF0FF080EF38
:101EB6000FF0010E056E64EF0FF0D890033604366E
:101EC600052A04AE69EF0FF06BEF0FF060EF0FF02D
:101ED6000350015C04500258D8A074EF0FF076EF5F
:101EE6000FF07AEF0FF00350015E0450025AD890BB
:101EF60004320332052E6BEF0FF00650D8B486EF8E
:101F06000FF088EF0FF08CEF0FF0016C021ED8B0C7
:101F1600022A01C001F002C002F01200000E0B6E90
:101F2600000E0A6E0750D96EDA6ADFCFF6FF0E0E84
:101F3600F76E000EF86E0800F5502A0AD8A4A6EF30
:101F46000FF0A8EF0FF0CEEF0FF00750D96EDA6A58
:101F5600DF2A0850D96EDA6A020EDF26DF5CD96EF8
:101F6600DA6ADECF0AF0DECF0BF0E3EF0FF00AC03D
:101F760001F00BC002F0000E046E0A0E036E89EC2F
:101F860011F0095001240A6E000E02200B6E075054
:101F9600D96EDA6ADF2A0750D96EDA6ADFCFF6FF22
:101FA6000E0EF76E000EF86E0800F550D00F096E93
:101FB600090E0964E1EF0FF0E3EF0FF0BAEF0FF04F
:101FC6000AC007F00BC008F012004DA0EDEF0FF0AD
:101FD600EFEF0FF0F5EF0FF00FC009F00EC00AF0AB
:101FE60002EC11F011BEFCEF0FF0FAEF0FF000EF6C
:101FF60010F0000E116E000E106E000E146E000E24
:10200600136E10EF10F0000E026E200E016E0EC061
:1020160003F0DCEC0EF0134A142A1050135C145033
:10202600800A126E1150800A1258D8A01DEF10F0C7
:102036001FEF10F006EF10F04DB024EF10F026EF72
:1020460010F02CEF10F00FC009F00EC00AF002ECF1
:1020560011F01200000E0B6E010E0A6E53EF10F017
:10206600000E0B6E060E0A6E20EE0CF00150D926FD
:102076000250DA2210EE0AF00150E1260250E22266
:10208600DECFE6FFDDCFE5FF20EE0CF00150D926CE
:102096000250DA2205C0DEFF06C0DDFF0A4A0B2A1F
:1020A600FF0E0324076EFF0E0420086E0A50075C1D
:1020B6000850800A096E0B50800A0958D8B066EF9E
:1020C60010F068EF10F033EF10F01200016E01A06F
:1020D6006FEF10F071EF10F074EF10F07A8675EF75
:1020E60010F07A9601A27AEF10F07CEF10F07FEFF5
:1020F60010F07A8480EF10F07A9401A485EF10F046
:1021060087EF10F08AEF10F07D868BEF10F07D964A
:1021160001A690EF10F092EF10F095EF10F07D828F
:1021260096EF10F07D92EAEC11F01A0EE82EFED72B
:1021360000D01200BC0EF66E230EF76E000EF86E7F
:1021460000EE80F010EE18F00900F5CFEEFFE55036
:10215600E150FAE101EEBAF03A0EEE6AE806FDE168
:1021660000EE60F0200EEE6AE806FDE14D6A4C6A6C
:102176004B6A4A6A496A4E904E920001F9EF09F09D
:102186002CC02EF0CFEF10F02BC020F02E0E216EBB
:102196002DC022F011EC0CF02EC0F6FF0E0EF76EDD
:1021A600000EF86E0800F5500009D8A4DDEF10F017
:1021B600DFEF10F0C7EF10F0000E2C6E000E2B6E46
:1021C6001200320E3A6E2FC03BF030C03CF0000ECB
:1021D6003F6E000E3E6E000E466E000E456E3B0EC6
:1021E6002B6E31C02CF03A0E2D6EC3EC10F03E5023
:1021F6002F24D96E3F503020DA6EDF6A1200000EAF
:102206000D6E000E0C6E11EF11F00BC001F0026A9C
:102216000AC003F0DCEC0EF00C4A0D2A09500C241F
:10222600D96EDA6ADF500B6E0B50D8A41DEF11F091
:102236001FEF11F008EF11F01200046E020E0418E1
:10224600D8A428EF11F02AEF11F02FEF11F0000EAD
:10225600026EC00EAFEC11F00404D8A435EF11F0F5
:1022660037EF11F03CEF11F0000E026E800EAFEC6E
:1022760011F0120008BE42EF11F044EF11F04AEFE0
:1022860011F007C007F008C008F056EF11F007C0BC
:1022960009F008C00AF0091E0A1E094A0A2A09C0DE
:1022A60007F00AC008F0120064EF11F0010E026E8A
:1022B60004C0D9FF05C0DAFFDF50AFEC11F0044AC5
:1022C600052A04C0D9FF05C0DAFFDF50D8A46EEF97
:1022D60011F070EF11F059EF11F01200608060B04C
:1022E60077EF11F079EF11F072EF11F064CF03F090
:1022F600046A0350FF08036E0450D8A0E82A0008B9
:10230600046E03C001F004C002F012000150030283
:10231600F3CF05F0F4CF06F001500402F350062681
:1023260002500302F350062605C001F006C002F073
:10233600120087907F9087927F9281947994869CF1
:102346007E9C81987998819A799A86907E908290DF
:102356007A9082927A921200036E02B002D07B9C2F
:1023660001D07B8C03380F0B69EC10F0035069EC3D
:1023760010F0A00E00D0E82EFDD71200D6501F0B8D
:102386004009D66ED688D650F00B0809D66ED58889
:102396000B0ED46EDC0ED36ED58E120081860E0126
:1023A60092870F015899FC0E5817030E5F6F6094C1
:1023B6006088608E12001F001C001F001E001F0098
:1023C6001E001F001F001E001F001E001F007B8432
:1023D6000A0EE82EFED700D07B941200F28C0E0176
:0C23E600298B339B1F8BF28E120012001B
:020000040030CA
:02000000AAFF55
:020004009FFF5C
:00000001FF
